{"contracts/MessageSenderMoonbeam.sol":{"MessageSender":{"abi":[{"inputs":[{"internalType":"address","name":"_gateway","type":"address"},{"internalType":"address","name":"_gasReceiver","type":"address"},{"internalType":"address","name":"_curvePools","type":"address"},{"internalType":"address","name":"_router","type":"address"},{"internalType":"address","name":"_weth","type":"address"},{"internalType":"address","name":"_ausdc","type":"address"}],"stateMutability":"nonpayable","type":"constructor"},{"inputs":[{"internalType":"address","name":"tokenIn","type":"address"},{"internalType":"uint256","name":"amount","type":"uint256"},{"internalType":"uint256","name":"amountGas","type":"uint256"}],"name":"SwapAndTransfer","outputs":[{"internalType":"uint256","name":"","type":"uint256"}],"stateMutability":"nonpayable","type":"function"},{"inputs":[{"internalType":"string","name":"destinationChain","type":"string"},{"internalType":"string","name":"destinationAddress","type":"string"},{"internalType":"address","name":"tokenIn","type":"address"},{"internalType":"address","name":"tokenOut","type":"address"},{"internalType":"uint256","name":"amount","type":"uint256"},{"internalType":"uint256","name":"amountGas","type":"uint256"},{"internalType":"uint256","name":"minAmount","type":"uint256"}],"name":"requestTransfersOut","outputs":[],"stateMutability":"payable","type":"function"}],"evm":{"bytecode":{"linkReferences":{},"object":"6101406040523480156200001257600080fd5b5060405162001d2938038062001d298339818101604052810190620000389190620001e8565b8573ffffffffffffffffffffffffffffffffffffffff1660a08173ffffffffffffffffffffffffffffffffffffffff16815250508473ffffffffffffffffffffffffffffffffffffffff1660808173ffffffffffffffffffffffffffffffffffffffff16815250508373ffffffffffffffffffffffffffffffffffffffff1660c08173ffffffffffffffffffffffffffffffffffffffff16815250508273ffffffffffffffffffffffffffffffffffffffff1660e08173ffffffffffffffffffffffffffffffffffffffff16815250508173ffffffffffffffffffffffffffffffffffffffff166101008173ffffffffffffffffffffffffffffffffffffffff16815250508073ffffffffffffffffffffffffffffffffffffffff166101208173ffffffffffffffffffffffffffffffffffffffff168152505050505050505062000284565b600080fd5b600073ffffffffffffffffffffffffffffffffffffffff82169050919050565b6000620001b08262000183565b9050919050565b620001c281620001a3565b8114620001ce57600080fd5b50565b600081519050620001e281620001b7565b92915050565b60008060008060008060c087890312156200020857620002076200017e565b5b60006200021889828a01620001d1565b96505060206200022b89828a01620001d1565b95505060406200023e89828a01620001d1565b94505060606200025189828a01620001d1565b93505060806200026489828a01620001d1565b92505060a06200027789828a01620001d1565b9150509295509295509295565b60805160a05160c05160e05161010051610120516119e1620003486000396000818161024201528181610276015281816105480152818161089801526108c10152600081816101e901528181610cd401528181610d290152610f0801526000818161080f01528181610a6e01528181610b2a0152610fe20152600081816102b201528181610638015281816108fd0152610c1801526000818161011c01528181610364015281816104c0015281816106ea01526109af0152600050506119e16000f3fe6080604052600436106100295760003560e01c80631b1129971461002e5780635fb79c3e1461004a575b600080fd5b610048600480360381019061004391906111c3565b610087565b005b34801561005657600080fd5b50610071600480360381019061006c91906112a5565b610117565b60405161007e9190611307565b60405180910390f35b60003073ffffffffffffffffffffffffffffffffffffffff16635fb79c3e8786866040518463ffffffff1660e01b81526004016100c693929190611331565b6020604051808303816000875af11580156100e5573d6000803e3d6000fd5b505050506040513d601f19601f82011682018060405250810190610109919061137d565b905050505050505050505050565b6000807f000000000000000000000000000000000000000000000000000000000000000073ffffffffffffffffffffffffffffffffffffffff1663935b13f66040518163ffffffff1660e01b815260040161017190611407565b602060405180830381865afa15801561018e573d6000803e3d6000fd5b505050506040513d601f19601f820116820180604052508101906101b2919061143c565b905060008073b1bc9f56103175193519ae1540a0a4572b1566f69050600073a1ffdc79f998e7fa91ba3a6f098b84c9275b048390507f000000000000000000000000000000000000000000000000000000000000000073ffffffffffffffffffffffffffffffffffffffff168873ffffffffffffffffffffffffffffffffffffffff16036103eb576000610272897f0000000000000000000000000000000000000000000000000000000000000000898b61026d9190611498565b610a42565b90507f000000000000000000000000000000000000000000000000000000000000000073ffffffffffffffffffffffffffffffffffffffff1663095ea7b37f0000000000000000000000000000000000000000000000000000000000000000836040518363ffffffff1660e01b81526004016102ef9291906114cc565b6020604051808303816000875af115801561030e573d6000803e3d6000fd5b505050506040513d601f19601f82011682018060405250810190610332919061152d565b50610344828460008085600042610c13565b93508473ffffffffffffffffffffffffffffffffffffffff1663095ea7b37f0000000000000000000000000000000000000000000000000000000000000000866040518363ffffffff1660e01b81526004016103a19291906114cc565b6020604051808303816000875af11580156103c0573d6000803e3d6000fd5b505050506040513d601f19601f820116820180604052508101906103e4919061152d565b5050610a34565b8373ffffffffffffffffffffffffffffffffffffffff168873ffffffffffffffffffffffffffffffffffffffff1603610546578773ffffffffffffffffffffffffffffffffffffffff166323b872dd33308a6040518463ffffffff1660e01b815260040161045b9392919061155a565b6020604051808303816000875af115801561047a573d6000803e3d6000fd5b505050506040513d601f19601f8201168201806040525081019061049e919061152d565b508692508373ffffffffffffffffffffffffffffffffffffffff1663095ea7b37f0000000000000000000000000000000000000000000000000000000000000000856040518363ffffffff1660e01b81526004016104fd9291906114cc565b6020604051808303816000875af115801561051c573d6000803e3d6000fd5b505050506040513d601f19601f82011682018060405250810190610540919061152d565b50610a33565b7f000000000000000000000000000000000000000000000000000000000000000073ffffffffffffffffffffffffffffffffffffffff168873ffffffffffffffffffffffffffffffffffffffff1603610770578773ffffffffffffffffffffffffffffffffffffffff166323b872dd33308a6040518463ffffffff1660e01b81526004016105d69392919061155a565b6020604051808303816000875af11580156105f5573d6000803e3d6000fd5b505050506040513d601f19601f82011682018060405250810190610619919061152d565b508773ffffffffffffffffffffffffffffffffffffffff1663095ea7b37f0000000000000000000000000000000000000000000000000000000000000000896040518363ffffffff1660e01b81526004016106759291906114cc565b6020604051808303816000875af1158015610694573d6000803e3d6000fd5b505050506040513d601f19601f820116820180604052508101906106b8919061152d565b506106ca81836000808b600042610c13565b92508373ffffffffffffffffffffffffffffffffffffffff1663095ea7b37f0000000000000000000000000000000000000000000000000000000000000000856040518363ffffffff1660e01b81526004016107279291906114cc565b6020604051808303816000875af1158015610746573d6000803e3d6000fd5b505050506040513d601f19601f8201168201806040525081019061076a919061152d565b50610a32565b8773ffffffffffffffffffffffffffffffffffffffff166323b872dd33308a6040518463ffffffff1660e01b81526004016107ad9392919061155a565b6020604051808303816000875af11580156107cc573d6000803e3d6000fd5b505050506040513d601f19601f820116820180604052508101906107f0919061152d565b508773ffffffffffffffffffffffffffffffffffffffff1663095ea7b37f0000000000000000000000000000000000000000000000000000000000000000896040518363ffffffff1660e01b815260040161084c9291906114cc565b6020604051808303816000875af115801561086b573d6000803e3d6000fd5b505050506040513d601f19601f8201168201806040525081019061088f919061152d565b5060006108bd897f00000000000000000000000000000000000000000000000000000000000000008a610a42565b90507f000000000000000000000000000000000000000000000000000000000000000073ffffffffffffffffffffffffffffffffffffffff1663095ea7b37f0000000000000000000000000000000000000000000000000000000000000000836040518363ffffffff1660e01b815260040161093a9291906114cc565b6020604051808303816000875af1158015610959573d6000803e3d6000fd5b505050506040513d601f19601f8201168201806040525081019061097d919061152d565b5061098f828460008085600042610c13565b93508473ffffffffffffffffffffffffffffffffffffffff1663095ea7b37f0000000000000000000000000000000000000000000000000000000000000000866040518363ffffffff1660e01b81526004016109ec9291906114cc565b6020604051808303816000875af1158015610a0b573d6000803e3d6000fd5b505050506040513d601f19601f82011682018060405250810190610a2f919061152d565b50505b5b5b829450505050509392505050565b600080610a4f8585610ccf565b90506000610a5e868686610fcf565b90506060600283511115610b28577f000000000000000000000000000000000000000000000000000000000000000073ffffffffffffffffffffffffffffffffffffffff166338ed173986848630600f42610ab99190611591565b6040518663ffffffff1660e01b8152600401610ad9959493929190611683565b6000604051808303816000875af1158015610af8573d6000803e3d6000fd5b505050506040513d6000823e3d601f19601f82011682018060405250810190610b21919061182c565b9050610bdf565b7f000000000000000000000000000000000000000000000000000000000000000073ffffffffffffffffffffffffffffffffffffffff16637ff36ab586848630600f42610b759190611591565b6040518663ffffffff1660e01b8152600401610b949493929190611875565b60006040518083038185885af1158015610bb2573d6000803e3d6000fd5b50505050506040513d6000823e3d601f19601f82011682018060405250810190610bdc919061182c565b90505b8060018451610bee9190611498565b81518110610bff57610bfe6118c1565b5b602002602001015193505050509392505050565b6000807f000000000000000000000000000000000000000000000000000000000000000073ffffffffffffffffffffffffffffffffffffffff166338c789738a8a8a8a8a8a8a6040518863ffffffff1660e01b8152600401610c7b979695949392919061190c565b6020604051808303816000875af1158015610c9a573d6000803e3d6000fd5b505050506040513d601f19601f82011682018060405250810190610cbe919061137d565b905080915050979650505050505050565b6060807f000000000000000000000000000000000000000000000000000000000000000073ffffffffffffffffffffffffffffffffffffffff168473ffffffffffffffffffffffffffffffffffffffff161480610d7757507f000000000000000000000000000000000000000000000000000000000000000073ffffffffffffffffffffffffffffffffffffffff168373ffffffffffffffffffffffffffffffffffffffff16145b15610e6b57600267ffffffffffffffff811115610d9757610d966116ee565b5b604051908082528060200260200182016040528015610dc55781602001602082028036833780820191505090505b5090508381600081518110610ddd57610ddc6118c1565b5b602002602001019073ffffffffffffffffffffffffffffffffffffffff16908173ffffffffffffffffffffffffffffffffffffffff16815250508281600181518110610e2c57610e2b6118c1565b5b602002602001019073ffffffffffffffffffffffffffffffffffffffff16908173ffffffffffffffffffffffffffffffffffffffff1681525050610fc5565b600367ffffffffffffffff811115610e8657610e856116ee565b5b604051908082528060200260200182016040528015610eb45781602001602082028036833780820191505090505b5090508381600081518110610ecc57610ecb6118c1565b5b602002602001019073ffffffffffffffffffffffffffffffffffffffff16908173ffffffffffffffffffffffffffffffffffffffff16815250507f000000000000000000000000000000000000000000000000000000000000000081600181518110610f3b57610f3a6118c1565b5b602002602001019073ffffffffffffffffffffffffffffffffffffffff16908173ffffffffffffffffffffffffffffffffffffffff16815250508281600281518110610f8a57610f896118c1565b5b602002602001019073ffffffffffffffffffffffffffffffffffffffff16908173ffffffffffffffffffffffffffffffffffffffff16815250505b8091505092915050565b600080610fdc8585610ccf565b905060007f000000000000000000000000000000000000000000000000000000000000000073ffffffffffffffffffffffffffffffffffffffff1663d06ca61f85846040518363ffffffff1660e01b815260040161103b92919061197b565b600060405180830381865afa158015611058573d6000803e3d6000fd5b505050506040513d6000823e3d601f19601f82011682018060405250810190611081919061182c565b905080600183516110929190611498565b815181106110a3576110a26118c1565b5b6020026020010151925050509392505050565b6000604051905090565b600080fd5b600080fd5b600080fd5b600080fd5b600080fd5b60008083601f8401126110ef576110ee6110ca565b5b8235905067ffffffffffffffff81111561110c5761110b6110cf565b5b602083019150836001820283011115611128576111276110d4565b5b9250929050565b600073ffffffffffffffffffffffffffffffffffffffff82169050919050565b600061115a8261112f565b9050919050565b61116a8161114f565b811461117557600080fd5b50565b60008135905061118781611161565b92915050565b6000819050919050565b6111a08161118d565b81146111ab57600080fd5b50565b6000813590506111bd81611197565b92915050565b600080600080600080600080600060e08a8c0312156111e5576111e46110c0565b5b60008a013567ffffffffffffffff811115611203576112026110c5565b5b61120f8c828d016110d9565b995099505060208a013567ffffffffffffffff811115611232576112316110c5565b5b61123e8c828d016110d9565b975097505060406112518c828d01611178565b95505060606112628c828d01611178565b94505060806112738c828d016111ae565b93505060a06112848c828d016111ae565b92505060c06112958c828d016111ae565b9150509295985092959850929598565b6000806000606084860312156112be576112bd6110c0565b5b60006112cc86828701611178565b93505060206112dd868287016111ae565b92505060406112ee868287016111ae565b9150509250925092565b6113018161118d565b82525050565b600060208201905061131c60008301846112f8565b92915050565b61132b8161114f565b82525050565b60006060820190506113466000830186611322565b61135360208301856112f8565b61136060408301846112f8565b949350505050565b60008151905061137781611197565b92915050565b600060208284031215611393576113926110c0565b5b60006113a184828501611368565b91505092915050565b600082825260208201905092915050565b7f61786c5553444300000000000000000000000000000000000000000000000000600082015250565b60006113f16007836113aa565b91506113fc826113bb565b602082019050919050565b60006020820190508181036000830152611420816113e4565b9050919050565b60008151905061143681611161565b92915050565b600060208284031215611452576114516110c0565b5b600061146084828501611427565b91505092915050565b7f4e487b7100000000000000000000000000000000000000000000000000000000600052601160045260246000fd5b60006114a38261118d565b91506114ae8361118d565b92508282039050818111156114c6576114c5611469565b5b92915050565b60006040820190506114e16000830185611322565b6114ee60208301846112f8565b9392505050565b60008115159050919050565b61150a816114f5565b811461151557600080fd5b50565b60008151905061152781611501565b92915050565b600060208284031215611543576115426110c0565b5b600061155184828501611518565b91505092915050565b600060608201905061156f6000830186611322565b61157c6020830185611322565b61158960408301846112f8565b949350505050565b600061159c8261118d565b91506115a78361118d565b92508282019050808211156115bf576115be611469565b5b92915050565b600081519050919050565b600082825260208201905092915050565b6000819050602082019050919050565b6115fa8161114f565b82525050565b600061160c83836115f1565b60208301905092915050565b6000602082019050919050565b6000611630826115c5565b61163a81856115d0565b9350611645836115e1565b8060005b8381101561167657815161165d8882611600565b975061166883611618565b925050600181019050611649565b5085935050505092915050565b600060a08201905061169860008301886112f8565b6116a560208301876112f8565b81810360408301526116b78186611625565b90506116c66060830185611322565b6116d360808301846112f8565b9695505050505050565b6000601f19601f8301169050919050565b7f4e487b7100000000000000000000000000000000000000000000000000000000600052604160045260246000fd5b611726826116dd565b810181811067ffffffffffffffff82111715611745576117446116ee565b5b80604052505050565b60006117586110b6565b9050611764828261171d565b919050565b600067ffffffffffffffff821115611784576117836116ee565b5b602082029050602081019050919050565b60006117a86117a384611769565b61174e565b905080838252602082019050602084028301858111156117cb576117ca6110d4565b5b835b818110156117f457806117e08882611368565b8452602084019350506020810190506117cd565b5050509392505050565b600082601f830112611813576118126110ca565b5b8151611823848260208601611795565b91505092915050565b600060208284031215611842576118416110c0565b5b600082015167ffffffffffffffff8111156118605761185f6110c5565b5b61186c848285016117fe565b91505092915050565b600060808201905061188a60008301876112f8565b818103602083015261189c8186611625565b90506118ab6040830185611322565b6118b860608301846112f8565b95945050505050565b7f4e487b7100000000000000000000000000000000000000000000000000000000600052603260045260246000fd5b600060ff82169050919050565b611906816118f0565b82525050565b600060e082019050611921600083018a611322565b61192e6020830189611322565b61193b60408301886118fd565b61194860608301876118fd565b61195560808301866112f8565b61196260a08301856112f8565b61196f60c08301846112f8565b98975050505050505050565b600060408201905061199060008301856112f8565b81810360208301526119a28184611625565b9050939250505056fea2646970667358221220846f7f185ecace0e8059d654372384725b6a99f36e05c2ccd9bd26ecb67fdc4d64736f6c63430008110033","opcodes":"PUSH2 0x140 PUSH1 0x40 MSTORE CALLVALUE DUP1 ISZERO PUSH3 0x12 JUMPI PUSH1 0x0 DUP1 REVERT JUMPDEST POP PUSH1 0x40 MLOAD PUSH3 0x1D29 CODESIZE SUB DUP1 PUSH3 0x1D29 DUP4 CODECOPY DUP2 DUP2 ADD PUSH1 0x40 MSTORE DUP2 ADD SWAP1 PUSH3 0x38 SWAP2 SWAP1 PUSH3 0x1E8 JUMP JUMPDEST DUP6 PUSH20 0xFFFFFFFFFFFFFFFFFFFFFFFFFFFFFFFFFFFFFFFF AND PUSH1 0xA0 DUP2 PUSH20 0xFFFFFFFFFFFFFFFFFFFFFFFFFFFFFFFFFFFFFFFF AND DUP2 MSTORE POP POP DUP5 PUSH20 0xFFFFFFFFFFFFFFFFFFFFFFFFFFFFFFFFFFFFFFFF AND PUSH1 0x80 DUP2 PUSH20 0xFFFFFFFFFFFFFFFFFFFFFFFFFFFFFFFFFFFFFFFF AND DUP2 MSTORE POP POP DUP4 PUSH20 0xFFFFFFFFFFFFFFFFFFFFFFFFFFFFFFFFFFFFFFFF AND PUSH1 0xC0 DUP2 PUSH20 0xFFFFFFFFFFFFFFFFFFFFFFFFFFFFFFFFFFFFFFFF AND DUP2 MSTORE POP POP DUP3 PUSH20 0xFFFFFFFFFFFFFFFFFFFFFFFFFFFFFFFFFFFFFFFF AND PUSH1 0xE0 DUP2 PUSH20 0xFFFFFFFFFFFFFFFFFFFFFFFFFFFFFFFFFFFFFFFF AND DUP2 MSTORE POP POP DUP2 PUSH20 0xFFFFFFFFFFFFFFFFFFFFFFFFFFFFFFFFFFFFFFFF AND PUSH2 0x100 DUP2 PUSH20 0xFFFFFFFFFFFFFFFFFFFFFFFFFFFFFFFFFFFFFFFF AND DUP2 MSTORE POP POP DUP1 PUSH20 0xFFFFFFFFFFFFFFFFFFFFFFFFFFFFFFFFFFFFFFFF AND PUSH2 0x120 DUP2 PUSH20 0xFFFFFFFFFFFFFFFFFFFFFFFFFFFFFFFFFFFFFFFF AND DUP2 MSTORE POP POP POP POP POP POP POP POP PUSH3 0x284 JUMP JUMPDEST PUSH1 0x0 DUP1 REVERT JUMPDEST PUSH1 0x0 PUSH20 0xFFFFFFFFFFFFFFFFFFFFFFFFFFFFFFFFFFFFFFFF DUP3 AND SWAP1 POP SWAP2 SWAP1 POP JUMP JUMPDEST PUSH1 0x0 PUSH3 0x1B0 DUP3 PUSH3 0x183 JUMP JUMPDEST SWAP1 POP SWAP2 SWAP1 POP JUMP JUMPDEST PUSH3 0x1C2 DUP2 PUSH3 0x1A3 JUMP JUMPDEST DUP2 EQ PUSH3 0x1CE JUMPI PUSH1 0x0 DUP1 REVERT JUMPDEST POP JUMP JUMPDEST PUSH1 0x0 DUP2 MLOAD SWAP1 POP PUSH3 0x1E2 DUP2 PUSH3 0x1B7 JUMP JUMPDEST SWAP3 SWAP2 POP POP JUMP JUMPDEST PUSH1 0x0 DUP1 PUSH1 0x0 DUP1 PUSH1 0x0 DUP1 PUSH1 0xC0 DUP8 DUP10 SUB SLT ISZERO PUSH3 0x208 JUMPI PUSH3 0x207 PUSH3 0x17E JUMP JUMPDEST JUMPDEST PUSH1 0x0 PUSH3 0x218 DUP10 DUP3 DUP11 ADD PUSH3 0x1D1 JUMP JUMPDEST SWAP7 POP POP PUSH1 0x20 PUSH3 0x22B DUP10 DUP3 DUP11 ADD PUSH3 0x1D1 JUMP JUMPDEST SWAP6 POP POP PUSH1 0x40 PUSH3 0x23E DUP10 DUP3 DUP11 ADD PUSH3 0x1D1 JUMP JUMPDEST SWAP5 POP POP PUSH1 0x60 PUSH3 0x251 DUP10 DUP3 DUP11 ADD PUSH3 0x1D1 JUMP JUMPDEST SWAP4 POP POP PUSH1 0x80 PUSH3 0x264 DUP10 DUP3 DUP11 ADD PUSH3 0x1D1 JUMP JUMPDEST SWAP3 POP POP PUSH1 0xA0 PUSH3 0x277 DUP10 DUP3 DUP11 ADD PUSH3 0x1D1 JUMP JUMPDEST SWAP2 POP POP SWAP3 SWAP6 POP SWAP3 SWAP6 POP SWAP3 SWAP6 JUMP JUMPDEST PUSH1 0x80 MLOAD PUSH1 0xA0 MLOAD PUSH1 0xC0 MLOAD PUSH1 0xE0 MLOAD PUSH2 0x100 MLOAD PUSH2 0x120 MLOAD PUSH2 0x19E1 PUSH3 0x348 PUSH1 0x0 CODECOPY PUSH1 0x0 DUP2 DUP2 PUSH2 0x242 ADD MSTORE DUP2 DUP2 PUSH2 0x276 ADD MSTORE DUP2 DUP2 PUSH2 0x548 ADD MSTORE DUP2 DUP2 PUSH2 0x898 ADD MSTORE PUSH2 0x8C1 ADD MSTORE PUSH1 0x0 DUP2 DUP2 PUSH2 0x1E9 ADD MSTORE DUP2 DUP2 PUSH2 0xCD4 ADD MSTORE DUP2 DUP2 PUSH2 0xD29 ADD MSTORE PUSH2 0xF08 ADD MSTORE PUSH1 0x0 DUP2 DUP2 PUSH2 0x80F ADD MSTORE DUP2 DUP2 PUSH2 0xA6E ADD MSTORE DUP2 DUP2 PUSH2 0xB2A ADD MSTORE PUSH2 0xFE2 ADD MSTORE PUSH1 0x0 DUP2 DUP2 PUSH2 0x2B2 ADD MSTORE DUP2 DUP2 PUSH2 0x638 ADD MSTORE DUP2 DUP2 PUSH2 0x8FD ADD MSTORE PUSH2 0xC18 ADD MSTORE PUSH1 0x0 DUP2 DUP2 PUSH2 0x11C ADD MSTORE DUP2 DUP2 PUSH2 0x364 ADD MSTORE DUP2 DUP2 PUSH2 0x4C0 ADD MSTORE DUP2 DUP2 PUSH2 0x6EA ADD MSTORE PUSH2 0x9AF ADD MSTORE PUSH1 0x0 POP POP PUSH2 0x19E1 PUSH1 0x0 RETURN INVALID PUSH1 0x80 PUSH1 0x40 MSTORE PUSH1 0x4 CALLDATASIZE LT PUSH2 0x29 JUMPI PUSH1 0x0 CALLDATALOAD PUSH1 0xE0 SHR DUP1 PUSH4 0x1B112997 EQ PUSH2 0x2E JUMPI DUP1 PUSH4 0x5FB79C3E EQ PUSH2 0x4A JUMPI JUMPDEST PUSH1 0x0 DUP1 REVERT JUMPDEST PUSH2 0x48 PUSH1 0x4 DUP1 CALLDATASIZE SUB DUP2 ADD SWAP1 PUSH2 0x43 SWAP2 SWAP1 PUSH2 0x11C3 JUMP JUMPDEST PUSH2 0x87 JUMP JUMPDEST STOP JUMPDEST CALLVALUE DUP1 ISZERO PUSH2 0x56 JUMPI PUSH1 0x0 DUP1 REVERT JUMPDEST POP PUSH2 0x71 PUSH1 0x4 DUP1 CALLDATASIZE SUB DUP2 ADD SWAP1 PUSH2 0x6C SWAP2 SWAP1 PUSH2 0x12A5 JUMP JUMPDEST PUSH2 0x117 JUMP JUMPDEST PUSH1 0x40 MLOAD PUSH2 0x7E SWAP2 SWAP1 PUSH2 0x1307 JUMP JUMPDEST PUSH1 0x40 MLOAD DUP1 SWAP2 SUB SWAP1 RETURN JUMPDEST PUSH1 0x0 ADDRESS PUSH20 0xFFFFFFFFFFFFFFFFFFFFFFFFFFFFFFFFFFFFFFFF AND PUSH4 0x5FB79C3E DUP8 DUP7 DUP7 PUSH1 0x40 MLOAD DUP5 PUSH4 0xFFFFFFFF AND PUSH1 0xE0 SHL DUP2 MSTORE PUSH1 0x4 ADD PUSH2 0xC6 SWAP4 SWAP3 SWAP2 SWAP1 PUSH2 0x1331 JUMP JUMPDEST PUSH1 0x20 PUSH1 0x40 MLOAD DUP1 DUP4 SUB DUP2 PUSH1 0x0 DUP8 GAS CALL ISZERO DUP1 ISZERO PUSH2 0xE5 JUMPI RETURNDATASIZE PUSH1 0x0 DUP1 RETURNDATACOPY RETURNDATASIZE PUSH1 0x0 REVERT JUMPDEST POP POP POP POP PUSH1 0x40 MLOAD RETURNDATASIZE PUSH1 0x1F NOT PUSH1 0x1F DUP3 ADD AND DUP3 ADD DUP1 PUSH1 0x40 MSTORE POP DUP2 ADD SWAP1 PUSH2 0x109 SWAP2 SWAP1 PUSH2 0x137D JUMP JUMPDEST SWAP1 POP POP POP POP POP POP POP POP POP POP POP JUMP JUMPDEST PUSH1 0x0 DUP1 PUSH32 0x0 PUSH20 0xFFFFFFFFFFFFFFFFFFFFFFFFFFFFFFFFFFFFFFFF AND PUSH4 0x935B13F6 PUSH1 0x40 MLOAD DUP2 PUSH4 0xFFFFFFFF AND PUSH1 0xE0 SHL DUP2 MSTORE PUSH1 0x4 ADD PUSH2 0x171 SWAP1 PUSH2 0x1407 JUMP JUMPDEST PUSH1 0x20 PUSH1 0x40 MLOAD DUP1 DUP4 SUB DUP2 DUP7 GAS STATICCALL ISZERO DUP1 ISZERO PUSH2 0x18E JUMPI RETURNDATASIZE PUSH1 0x0 DUP1 RETURNDATACOPY RETURNDATASIZE PUSH1 0x0 REVERT JUMPDEST POP POP POP POP PUSH1 0x40 MLOAD RETURNDATASIZE PUSH1 0x1F NOT PUSH1 0x1F DUP3 ADD AND DUP3 ADD DUP1 PUSH1 0x40 MSTORE POP DUP2 ADD SWAP1 PUSH2 0x1B2 SWAP2 SWAP1 PUSH2 0x143C JUMP JUMPDEST SWAP1 POP PUSH1 0x0 DUP1 PUSH20 0xB1BC9F56103175193519AE1540A0A4572B1566F6 SWAP1 POP PUSH1 0x0 PUSH20 0xA1FFDC79F998E7FA91BA3A6F098B84C9275B0483 SWAP1 POP PUSH32 0x0 PUSH20 0xFFFFFFFFFFFFFFFFFFFFFFFFFFFFFFFFFFFFFFFF AND DUP9 PUSH20 0xFFFFFFFFFFFFFFFFFFFFFFFFFFFFFFFFFFFFFFFF AND SUB PUSH2 0x3EB JUMPI PUSH1 0x0 PUSH2 0x272 DUP10 PUSH32 0x0 DUP10 DUP12 PUSH2 0x26D SWAP2 SWAP1 PUSH2 0x1498 JUMP JUMPDEST PUSH2 0xA42 JUMP JUMPDEST SWAP1 POP PUSH32 0x0 PUSH20 0xFFFFFFFFFFFFFFFFFFFFFFFFFFFFFFFFFFFFFFFF AND PUSH4 0x95EA7B3 PUSH32 0x0 DUP4 PUSH1 0x40 MLOAD DUP4 PUSH4 0xFFFFFFFF AND PUSH1 0xE0 SHL DUP2 MSTORE PUSH1 0x4 ADD PUSH2 0x2EF SWAP3 SWAP2 SWAP1 PUSH2 0x14CC JUMP JUMPDEST PUSH1 0x20 PUSH1 0x40 MLOAD DUP1 DUP4 SUB DUP2 PUSH1 0x0 DUP8 GAS CALL ISZERO DUP1 ISZERO PUSH2 0x30E JUMPI RETURNDATASIZE PUSH1 0x0 DUP1 RETURNDATACOPY RETURNDATASIZE PUSH1 0x0 REVERT JUMPDEST POP POP POP POP PUSH1 0x40 MLOAD RETURNDATASIZE PUSH1 0x1F NOT PUSH1 0x1F DUP3 ADD AND DUP3 ADD DUP1 PUSH1 0x40 MSTORE POP DUP2 ADD SWAP1 PUSH2 0x332 SWAP2 SWAP1 PUSH2 0x152D JUMP JUMPDEST POP PUSH2 0x344 DUP3 DUP5 PUSH1 0x0 DUP1 DUP6 PUSH1 0x0 TIMESTAMP PUSH2 0xC13 JUMP JUMPDEST SWAP4 POP DUP5 PUSH20 0xFFFFFFFFFFFFFFFFFFFFFFFFFFFFFFFFFFFFFFFF AND PUSH4 0x95EA7B3 PUSH32 0x0 DUP7 PUSH1 0x40 MLOAD DUP4 PUSH4 0xFFFFFFFF AND PUSH1 0xE0 SHL DUP2 MSTORE PUSH1 0x4 ADD PUSH2 0x3A1 SWAP3 SWAP2 SWAP1 PUSH2 0x14CC JUMP JUMPDEST PUSH1 0x20 PUSH1 0x40 MLOAD DUP1 DUP4 SUB DUP2 PUSH1 0x0 DUP8 GAS CALL ISZERO DUP1 ISZERO PUSH2 0x3C0 JUMPI RETURNDATASIZE PUSH1 0x0 DUP1 RETURNDATACOPY RETURNDATASIZE PUSH1 0x0 REVERT JUMPDEST POP POP POP POP PUSH1 0x40 MLOAD RETURNDATASIZE PUSH1 0x1F NOT PUSH1 0x1F DUP3 ADD AND DUP3 ADD DUP1 PUSH1 0x40 MSTORE POP DUP2 ADD SWAP1 PUSH2 0x3E4 SWAP2 SWAP1 PUSH2 0x152D JUMP JUMPDEST POP POP PUSH2 0xA34 JUMP JUMPDEST DUP4 PUSH20 0xFFFFFFFFFFFFFFFFFFFFFFFFFFFFFFFFFFFFFFFF AND DUP9 PUSH20 0xFFFFFFFFFFFFFFFFFFFFFFFFFFFFFFFFFFFFFFFF AND SUB PUSH2 0x546 JUMPI DUP8 PUSH20 0xFFFFFFFFFFFFFFFFFFFFFFFFFFFFFFFFFFFFFFFF AND PUSH4 0x23B872DD CALLER ADDRESS DUP11 PUSH1 0x40 MLOAD DUP5 PUSH4 0xFFFFFFFF AND PUSH1 0xE0 SHL DUP2 MSTORE PUSH1 0x4 ADD PUSH2 0x45B SWAP4 SWAP3 SWAP2 SWAP1 PUSH2 0x155A JUMP JUMPDEST PUSH1 0x20 PUSH1 0x40 MLOAD DUP1 DUP4 SUB DUP2 PUSH1 0x0 DUP8 GAS CALL ISZERO DUP1 ISZERO PUSH2 0x47A JUMPI RETURNDATASIZE PUSH1 0x0 DUP1 RETURNDATACOPY RETURNDATASIZE PUSH1 0x0 REVERT JUMPDEST POP POP POP POP PUSH1 0x40 MLOAD RETURNDATASIZE PUSH1 0x1F NOT PUSH1 0x1F DUP3 ADD AND DUP3 ADD DUP1 PUSH1 0x40 MSTORE POP DUP2 ADD SWAP1 PUSH2 0x49E SWAP2 SWAP1 PUSH2 0x152D JUMP JUMPDEST POP DUP7 SWAP3 POP DUP4 PUSH20 0xFFFFFFFFFFFFFFFFFFFFFFFFFFFFFFFFFFFFFFFF AND PUSH4 0x95EA7B3 PUSH32 0x0 DUP6 PUSH1 0x40 MLOAD DUP4 PUSH4 0xFFFFFFFF AND PUSH1 0xE0 SHL DUP2 MSTORE PUSH1 0x4 ADD PUSH2 0x4FD SWAP3 SWAP2 SWAP1 PUSH2 0x14CC JUMP JUMPDEST PUSH1 0x20 PUSH1 0x40 MLOAD DUP1 DUP4 SUB DUP2 PUSH1 0x0 DUP8 GAS CALL ISZERO DUP1 ISZERO PUSH2 0x51C JUMPI RETURNDATASIZE PUSH1 0x0 DUP1 RETURNDATACOPY RETURNDATASIZE PUSH1 0x0 REVERT JUMPDEST POP POP POP POP PUSH1 0x40 MLOAD RETURNDATASIZE PUSH1 0x1F NOT PUSH1 0x1F DUP3 ADD AND DUP3 ADD DUP1 PUSH1 0x40 MSTORE POP DUP2 ADD SWAP1 PUSH2 0x540 SWAP2 SWAP1 PUSH2 0x152D JUMP JUMPDEST POP PUSH2 0xA33 JUMP JUMPDEST PUSH32 0x0 PUSH20 0xFFFFFFFFFFFFFFFFFFFFFFFFFFFFFFFFFFFFFFFF AND DUP9 PUSH20 0xFFFFFFFFFFFFFFFFFFFFFFFFFFFFFFFFFFFFFFFF AND SUB PUSH2 0x770 JUMPI DUP8 PUSH20 0xFFFFFFFFFFFFFFFFFFFFFFFFFFFFFFFFFFFFFFFF AND PUSH4 0x23B872DD CALLER ADDRESS DUP11 PUSH1 0x40 MLOAD DUP5 PUSH4 0xFFFFFFFF AND PUSH1 0xE0 SHL DUP2 MSTORE PUSH1 0x4 ADD PUSH2 0x5D6 SWAP4 SWAP3 SWAP2 SWAP1 PUSH2 0x155A JUMP JUMPDEST PUSH1 0x20 PUSH1 0x40 MLOAD DUP1 DUP4 SUB DUP2 PUSH1 0x0 DUP8 GAS CALL ISZERO DUP1 ISZERO PUSH2 0x5F5 JUMPI RETURNDATASIZE PUSH1 0x0 DUP1 RETURNDATACOPY RETURNDATASIZE PUSH1 0x0 REVERT JUMPDEST POP POP POP POP PUSH1 0x40 MLOAD RETURNDATASIZE PUSH1 0x1F NOT PUSH1 0x1F DUP3 ADD AND DUP3 ADD DUP1 PUSH1 0x40 MSTORE POP DUP2 ADD SWAP1 PUSH2 0x619 SWAP2 SWAP1 PUSH2 0x152D JUMP JUMPDEST POP DUP8 PUSH20 0xFFFFFFFFFFFFFFFFFFFFFFFFFFFFFFFFFFFFFFFF AND PUSH4 0x95EA7B3 PUSH32 0x0 DUP10 PUSH1 0x40 MLOAD DUP4 PUSH4 0xFFFFFFFF AND PUSH1 0xE0 SHL DUP2 MSTORE PUSH1 0x4 ADD PUSH2 0x675 SWAP3 SWAP2 SWAP1 PUSH2 0x14CC JUMP JUMPDEST PUSH1 0x20 PUSH1 0x40 MLOAD DUP1 DUP4 SUB DUP2 PUSH1 0x0 DUP8 GAS CALL ISZERO DUP1 ISZERO PUSH2 0x694 JUMPI RETURNDATASIZE PUSH1 0x0 DUP1 RETURNDATACOPY RETURNDATASIZE PUSH1 0x0 REVERT JUMPDEST POP POP POP POP PUSH1 0x40 MLOAD RETURNDATASIZE PUSH1 0x1F NOT PUSH1 0x1F DUP3 ADD AND DUP3 ADD DUP1 PUSH1 0x40 MSTORE POP DUP2 ADD SWAP1 PUSH2 0x6B8 SWAP2 SWAP1 PUSH2 0x152D JUMP JUMPDEST POP PUSH2 0x6CA DUP2 DUP4 PUSH1 0x0 DUP1 DUP12 PUSH1 0x0 TIMESTAMP PUSH2 0xC13 JUMP JUMPDEST SWAP3 POP DUP4 PUSH20 0xFFFFFFFFFFFFFFFFFFFFFFFFFFFFFFFFFFFFFFFF AND PUSH4 0x95EA7B3 PUSH32 0x0 DUP6 PUSH1 0x40 MLOAD DUP4 PUSH4 0xFFFFFFFF AND PUSH1 0xE0 SHL DUP2 MSTORE PUSH1 0x4 ADD PUSH2 0x727 SWAP3 SWAP2 SWAP1 PUSH2 0x14CC JUMP JUMPDEST PUSH1 0x20 PUSH1 0x40 MLOAD DUP1 DUP4 SUB DUP2 PUSH1 0x0 DUP8 GAS CALL ISZERO DUP1 ISZERO PUSH2 0x746 JUMPI RETURNDATASIZE PUSH1 0x0 DUP1 RETURNDATACOPY RETURNDATASIZE PUSH1 0x0 REVERT JUMPDEST POP POP POP POP PUSH1 0x40 MLOAD RETURNDATASIZE PUSH1 0x1F NOT PUSH1 0x1F DUP3 ADD AND DUP3 ADD DUP1 PUSH1 0x40 MSTORE POP DUP2 ADD SWAP1 PUSH2 0x76A SWAP2 SWAP1 PUSH2 0x152D JUMP JUMPDEST POP PUSH2 0xA32 JUMP JUMPDEST DUP8 PUSH20 0xFFFFFFFFFFFFFFFFFFFFFFFFFFFFFFFFFFFFFFFF AND PUSH4 0x23B872DD CALLER ADDRESS DUP11 PUSH1 0x40 MLOAD DUP5 PUSH4 0xFFFFFFFF AND PUSH1 0xE0 SHL DUP2 MSTORE PUSH1 0x4 ADD PUSH2 0x7AD SWAP4 SWAP3 SWAP2 SWAP1 PUSH2 0x155A JUMP JUMPDEST PUSH1 0x20 PUSH1 0x40 MLOAD DUP1 DUP4 SUB DUP2 PUSH1 0x0 DUP8 GAS CALL ISZERO DUP1 ISZERO PUSH2 0x7CC JUMPI RETURNDATASIZE PUSH1 0x0 DUP1 RETURNDATACOPY RETURNDATASIZE PUSH1 0x0 REVERT JUMPDEST POP POP POP POP PUSH1 0x40 MLOAD RETURNDATASIZE PUSH1 0x1F NOT PUSH1 0x1F DUP3 ADD AND DUP3 ADD DUP1 PUSH1 0x40 MSTORE POP DUP2 ADD SWAP1 PUSH2 0x7F0 SWAP2 SWAP1 PUSH2 0x152D JUMP JUMPDEST POP DUP8 PUSH20 0xFFFFFFFFFFFFFFFFFFFFFFFFFFFFFFFFFFFFFFFF AND PUSH4 0x95EA7B3 PUSH32 0x0 DUP10 PUSH1 0x40 MLOAD DUP4 PUSH4 0xFFFFFFFF AND PUSH1 0xE0 SHL DUP2 MSTORE PUSH1 0x4 ADD PUSH2 0x84C SWAP3 SWAP2 SWAP1 PUSH2 0x14CC JUMP JUMPDEST PUSH1 0x20 PUSH1 0x40 MLOAD DUP1 DUP4 SUB DUP2 PUSH1 0x0 DUP8 GAS CALL ISZERO DUP1 ISZERO PUSH2 0x86B JUMPI RETURNDATASIZE PUSH1 0x0 DUP1 RETURNDATACOPY RETURNDATASIZE PUSH1 0x0 REVERT JUMPDEST POP POP POP POP PUSH1 0x40 MLOAD RETURNDATASIZE PUSH1 0x1F NOT PUSH1 0x1F DUP3 ADD AND DUP3 ADD DUP1 PUSH1 0x40 MSTORE POP DUP2 ADD SWAP1 PUSH2 0x88F SWAP2 SWAP1 PUSH2 0x152D JUMP JUMPDEST POP PUSH1 0x0 PUSH2 0x8BD DUP10 PUSH32 0x0 DUP11 PUSH2 0xA42 JUMP JUMPDEST SWAP1 POP PUSH32 0x0 PUSH20 0xFFFFFFFFFFFFFFFFFFFFFFFFFFFFFFFFFFFFFFFF AND PUSH4 0x95EA7B3 PUSH32 0x0 DUP4 PUSH1 0x40 MLOAD DUP4 PUSH4 0xFFFFFFFF AND PUSH1 0xE0 SHL DUP2 MSTORE PUSH1 0x4 ADD PUSH2 0x93A SWAP3 SWAP2 SWAP1 PUSH2 0x14CC JUMP JUMPDEST PUSH1 0x20 PUSH1 0x40 MLOAD DUP1 DUP4 SUB DUP2 PUSH1 0x0 DUP8 GAS CALL ISZERO DUP1 ISZERO PUSH2 0x959 JUMPI RETURNDATASIZE PUSH1 0x0 DUP1 RETURNDATACOPY RETURNDATASIZE PUSH1 0x0 REVERT JUMPDEST POP POP POP POP PUSH1 0x40 MLOAD RETURNDATASIZE PUSH1 0x1F NOT PUSH1 0x1F DUP3 ADD AND DUP3 ADD DUP1 PUSH1 0x40 MSTORE POP DUP2 ADD SWAP1 PUSH2 0x97D SWAP2 SWAP1 PUSH2 0x152D JUMP JUMPDEST POP PUSH2 0x98F DUP3 DUP5 PUSH1 0x0 DUP1 DUP6 PUSH1 0x0 TIMESTAMP PUSH2 0xC13 JUMP JUMPDEST SWAP4 POP DUP5 PUSH20 0xFFFFFFFFFFFFFFFFFFFFFFFFFFFFFFFFFFFFFFFF AND PUSH4 0x95EA7B3 PUSH32 0x0 DUP7 PUSH1 0x40 MLOAD DUP4 PUSH4 0xFFFFFFFF AND PUSH1 0xE0 SHL DUP2 MSTORE PUSH1 0x4 ADD PUSH2 0x9EC SWAP3 SWAP2 SWAP1 PUSH2 0x14CC JUMP JUMPDEST PUSH1 0x20 PUSH1 0x40 MLOAD DUP1 DUP4 SUB DUP2 PUSH1 0x0 DUP8 GAS CALL ISZERO DUP1 ISZERO PUSH2 0xA0B JUMPI RETURNDATASIZE PUSH1 0x0 DUP1 RETURNDATACOPY RETURNDATASIZE PUSH1 0x0 REVERT JUMPDEST POP POP POP POP PUSH1 0x40 MLOAD RETURNDATASIZE PUSH1 0x1F NOT PUSH1 0x1F DUP3 ADD AND DUP3 ADD DUP1 PUSH1 0x40 MSTORE POP DUP2 ADD SWAP1 PUSH2 0xA2F SWAP2 SWAP1 PUSH2 0x152D JUMP JUMPDEST POP POP JUMPDEST JUMPDEST JUMPDEST DUP3 SWAP5 POP POP POP POP POP SWAP4 SWAP3 POP POP POP JUMP JUMPDEST PUSH1 0x0 DUP1 PUSH2 0xA4F DUP6 DUP6 PUSH2 0xCCF JUMP JUMPDEST SWAP1 POP PUSH1 0x0 PUSH2 0xA5E DUP7 DUP7 DUP7 PUSH2 0xFCF JUMP JUMPDEST SWAP1 POP PUSH1 0x60 PUSH1 0x2 DUP4 MLOAD GT ISZERO PUSH2 0xB28 JUMPI PUSH32 0x0 PUSH20 0xFFFFFFFFFFFFFFFFFFFFFFFFFFFFFFFFFFFFFFFF AND PUSH4 0x38ED1739 DUP7 DUP5 DUP7 ADDRESS PUSH1 0xF TIMESTAMP PUSH2 0xAB9 SWAP2 SWAP1 PUSH2 0x1591 JUMP JUMPDEST PUSH1 0x40 MLOAD DUP7 PUSH4 0xFFFFFFFF AND PUSH1 0xE0 SHL DUP2 MSTORE PUSH1 0x4 ADD PUSH2 0xAD9 SWAP6 SWAP5 SWAP4 SWAP3 SWAP2 SWAP1 PUSH2 0x1683 JUMP JUMPDEST PUSH1 0x0 PUSH1 0x40 MLOAD DUP1 DUP4 SUB DUP2 PUSH1 0x0 DUP8 GAS CALL ISZERO DUP1 ISZERO PUSH2 0xAF8 JUMPI RETURNDATASIZE PUSH1 0x0 DUP1 RETURNDATACOPY RETURNDATASIZE PUSH1 0x0 REVERT JUMPDEST POP POP POP POP PUSH1 0x40 MLOAD RETURNDATASIZE PUSH1 0x0 DUP3 RETURNDATACOPY RETURNDATASIZE PUSH1 0x1F NOT PUSH1 0x1F DUP3 ADD AND DUP3 ADD DUP1 PUSH1 0x40 MSTORE POP DUP2 ADD SWAP1 PUSH2 0xB21 SWAP2 SWAP1 PUSH2 0x182C JUMP JUMPDEST SWAP1 POP PUSH2 0xBDF JUMP JUMPDEST PUSH32 0x0 PUSH20 0xFFFFFFFFFFFFFFFFFFFFFFFFFFFFFFFFFFFFFFFF AND PUSH4 0x7FF36AB5 DUP7 DUP5 DUP7 ADDRESS PUSH1 0xF TIMESTAMP PUSH2 0xB75 SWAP2 SWAP1 PUSH2 0x1591 JUMP JUMPDEST PUSH1 0x40 MLOAD DUP7 PUSH4 0xFFFFFFFF AND PUSH1 0xE0 SHL DUP2 MSTORE PUSH1 0x4 ADD PUSH2 0xB94 SWAP5 SWAP4 SWAP3 SWAP2 SWAP1 PUSH2 0x1875 JUMP JUMPDEST PUSH1 0x0 PUSH1 0x40 MLOAD DUP1 DUP4 SUB DUP2 DUP6 DUP9 GAS CALL ISZERO DUP1 ISZERO PUSH2 0xBB2 JUMPI RETURNDATASIZE PUSH1 0x0 DUP1 RETURNDATACOPY RETURNDATASIZE PUSH1 0x0 REVERT JUMPDEST POP POP POP POP POP PUSH1 0x40 MLOAD RETURNDATASIZE PUSH1 0x0 DUP3 RETURNDATACOPY RETURNDATASIZE PUSH1 0x1F NOT PUSH1 0x1F DUP3 ADD AND DUP3 ADD DUP1 PUSH1 0x40 MSTORE POP DUP2 ADD SWAP1 PUSH2 0xBDC SWAP2 SWAP1 PUSH2 0x182C JUMP JUMPDEST SWAP1 POP JUMPDEST DUP1 PUSH1 0x1 DUP5 MLOAD PUSH2 0xBEE SWAP2 SWAP1 PUSH2 0x1498 JUMP JUMPDEST DUP2 MLOAD DUP2 LT PUSH2 0xBFF JUMPI PUSH2 0xBFE PUSH2 0x18C1 JUMP JUMPDEST JUMPDEST PUSH1 0x20 MUL PUSH1 0x20 ADD ADD MLOAD SWAP4 POP POP POP POP SWAP4 SWAP3 POP POP POP JUMP JUMPDEST PUSH1 0x0 DUP1 PUSH32 0x0 PUSH20 0xFFFFFFFFFFFFFFFFFFFFFFFFFFFFFFFFFFFFFFFF AND PUSH4 0x38C78973 DUP11 DUP11 DUP11 DUP11 DUP11 DUP11 DUP11 PUSH1 0x40 MLOAD DUP9 PUSH4 0xFFFFFFFF AND PUSH1 0xE0 SHL DUP2 MSTORE PUSH1 0x4 ADD PUSH2 0xC7B SWAP8 SWAP7 SWAP6 SWAP5 SWAP4 SWAP3 SWAP2 SWAP1 PUSH2 0x190C JUMP JUMPDEST PUSH1 0x20 PUSH1 0x40 MLOAD DUP1 DUP4 SUB DUP2 PUSH1 0x0 DUP8 GAS CALL ISZERO DUP1 ISZERO PUSH2 0xC9A JUMPI RETURNDATASIZE PUSH1 0x0 DUP1 RETURNDATACOPY RETURNDATASIZE PUSH1 0x0 REVERT JUMPDEST POP POP POP POP PUSH1 0x40 MLOAD RETURNDATASIZE PUSH1 0x1F NOT PUSH1 0x1F DUP3 ADD AND DUP3 ADD DUP1 PUSH1 0x40 MSTORE POP DUP2 ADD SWAP1 PUSH2 0xCBE SWAP2 SWAP1 PUSH2 0x137D JUMP JUMPDEST SWAP1 POP DUP1 SWAP2 POP POP SWAP8 SWAP7 POP POP POP POP POP POP POP JUMP JUMPDEST PUSH1 0x60 DUP1 PUSH32 0x0 PUSH20 0xFFFFFFFFFFFFFFFFFFFFFFFFFFFFFFFFFFFFFFFF AND DUP5 PUSH20 0xFFFFFFFFFFFFFFFFFFFFFFFFFFFFFFFFFFFFFFFF AND EQ DUP1 PUSH2 0xD77 JUMPI POP PUSH32 0x0 PUSH20 0xFFFFFFFFFFFFFFFFFFFFFFFFFFFFFFFFFFFFFFFF AND DUP4 PUSH20 0xFFFFFFFFFFFFFFFFFFFFFFFFFFFFFFFFFFFFFFFF AND EQ JUMPDEST ISZERO PUSH2 0xE6B JUMPI PUSH1 0x2 PUSH8 0xFFFFFFFFFFFFFFFF DUP2 GT ISZERO PUSH2 0xD97 JUMPI PUSH2 0xD96 PUSH2 0x16EE JUMP JUMPDEST JUMPDEST PUSH1 0x40 MLOAD SWAP1 DUP1 DUP3 MSTORE DUP1 PUSH1 0x20 MUL PUSH1 0x20 ADD DUP3 ADD PUSH1 0x40 MSTORE DUP1 ISZERO PUSH2 0xDC5 JUMPI DUP2 PUSH1 0x20 ADD PUSH1 0x20 DUP3 MUL DUP1 CALLDATASIZE DUP4 CALLDATACOPY DUP1 DUP3 ADD SWAP2 POP POP SWAP1 POP JUMPDEST POP SWAP1 POP DUP4 DUP2 PUSH1 0x0 DUP2 MLOAD DUP2 LT PUSH2 0xDDD JUMPI PUSH2 0xDDC PUSH2 0x18C1 JUMP JUMPDEST JUMPDEST PUSH1 0x20 MUL PUSH1 0x20 ADD ADD SWAP1 PUSH20 0xFFFFFFFFFFFFFFFFFFFFFFFFFFFFFFFFFFFFFFFF AND SWAP1 DUP2 PUSH20 0xFFFFFFFFFFFFFFFFFFFFFFFFFFFFFFFFFFFFFFFF AND DUP2 MSTORE POP POP DUP3 DUP2 PUSH1 0x1 DUP2 MLOAD DUP2 LT PUSH2 0xE2C JUMPI PUSH2 0xE2B PUSH2 0x18C1 JUMP JUMPDEST JUMPDEST PUSH1 0x20 MUL PUSH1 0x20 ADD ADD SWAP1 PUSH20 0xFFFFFFFFFFFFFFFFFFFFFFFFFFFFFFFFFFFFFFFF AND SWAP1 DUP2 PUSH20 0xFFFFFFFFFFFFFFFFFFFFFFFFFFFFFFFFFFFFFFFF AND DUP2 MSTORE POP POP PUSH2 0xFC5 JUMP JUMPDEST PUSH1 0x3 PUSH8 0xFFFFFFFFFFFFFFFF DUP2 GT ISZERO PUSH2 0xE86 JUMPI PUSH2 0xE85 PUSH2 0x16EE JUMP JUMPDEST JUMPDEST PUSH1 0x40 MLOAD SWAP1 DUP1 DUP3 MSTORE DUP1 PUSH1 0x20 MUL PUSH1 0x20 ADD DUP3 ADD PUSH1 0x40 MSTORE DUP1 ISZERO PUSH2 0xEB4 JUMPI DUP2 PUSH1 0x20 ADD PUSH1 0x20 DUP3 MUL DUP1 CALLDATASIZE DUP4 CALLDATACOPY DUP1 DUP3 ADD SWAP2 POP POP SWAP1 POP JUMPDEST POP SWAP1 POP DUP4 DUP2 PUSH1 0x0 DUP2 MLOAD DUP2 LT PUSH2 0xECC JUMPI PUSH2 0xECB PUSH2 0x18C1 JUMP JUMPDEST JUMPDEST PUSH1 0x20 MUL PUSH1 0x20 ADD ADD SWAP1 PUSH20 0xFFFFFFFFFFFFFFFFFFFFFFFFFFFFFFFFFFFFFFFF AND SWAP1 DUP2 PUSH20 0xFFFFFFFFFFFFFFFFFFFFFFFFFFFFFFFFFFFFFFFF AND DUP2 MSTORE POP POP PUSH32 0x0 DUP2 PUSH1 0x1 DUP2 MLOAD DUP2 LT PUSH2 0xF3B JUMPI PUSH2 0xF3A PUSH2 0x18C1 JUMP JUMPDEST JUMPDEST PUSH1 0x20 MUL PUSH1 0x20 ADD ADD SWAP1 PUSH20 0xFFFFFFFFFFFFFFFFFFFFFFFFFFFFFFFFFFFFFFFF AND SWAP1 DUP2 PUSH20 0xFFFFFFFFFFFFFFFFFFFFFFFFFFFFFFFFFFFFFFFF AND DUP2 MSTORE POP POP DUP3 DUP2 PUSH1 0x2 DUP2 MLOAD DUP2 LT PUSH2 0xF8A JUMPI PUSH2 0xF89 PUSH2 0x18C1 JUMP JUMPDEST JUMPDEST PUSH1 0x20 MUL PUSH1 0x20 ADD ADD SWAP1 PUSH20 0xFFFFFFFFFFFFFFFFFFFFFFFFFFFFFFFFFFFFFFFF AND SWAP1 DUP2 PUSH20 0xFFFFFFFFFFFFFFFFFFFFFFFFFFFFFFFFFFFFFFFF AND DUP2 MSTORE POP POP JUMPDEST DUP1 SWAP2 POP POP SWAP3 SWAP2 POP POP JUMP JUMPDEST PUSH1 0x0 DUP1 PUSH2 0xFDC DUP6 DUP6 PUSH2 0xCCF JUMP JUMPDEST SWAP1 POP PUSH1 0x0 PUSH32 0x0 PUSH20 0xFFFFFFFFFFFFFFFFFFFFFFFFFFFFFFFFFFFFFFFF AND PUSH4 0xD06CA61F DUP6 DUP5 PUSH1 0x40 MLOAD DUP4 PUSH4 0xFFFFFFFF AND PUSH1 0xE0 SHL DUP2 MSTORE PUSH1 0x4 ADD PUSH2 0x103B SWAP3 SWAP2 SWAP1 PUSH2 0x197B JUMP JUMPDEST PUSH1 0x0 PUSH1 0x40 MLOAD DUP1 DUP4 SUB DUP2 DUP7 GAS STATICCALL ISZERO DUP1 ISZERO PUSH2 0x1058 JUMPI RETURNDATASIZE PUSH1 0x0 DUP1 RETURNDATACOPY RETURNDATASIZE PUSH1 0x0 REVERT JUMPDEST POP POP POP POP PUSH1 0x40 MLOAD RETURNDATASIZE PUSH1 0x0 DUP3 RETURNDATACOPY RETURNDATASIZE PUSH1 0x1F NOT PUSH1 0x1F DUP3 ADD AND DUP3 ADD DUP1 PUSH1 0x40 MSTORE POP DUP2 ADD SWAP1 PUSH2 0x1081 SWAP2 SWAP1 PUSH2 0x182C JUMP JUMPDEST SWAP1 POP DUP1 PUSH1 0x1 DUP4 MLOAD PUSH2 0x1092 SWAP2 SWAP1 PUSH2 0x1498 JUMP JUMPDEST DUP2 MLOAD DUP2 LT PUSH2 0x10A3 JUMPI PUSH2 0x10A2 PUSH2 0x18C1 JUMP JUMPDEST JUMPDEST PUSH1 0x20 MUL PUSH1 0x20 ADD ADD MLOAD SWAP3 POP POP POP SWAP4 SWAP3 POP POP POP JUMP JUMPDEST PUSH1 0x0 PUSH1 0x40 MLOAD SWAP1 POP SWAP1 JUMP JUMPDEST PUSH1 0x0 DUP1 REVERT JUMPDEST PUSH1 0x0 DUP1 REVERT JUMPDEST PUSH1 0x0 DUP1 REVERT JUMPDEST PUSH1 0x0 DUP1 REVERT JUMPDEST PUSH1 0x0 DUP1 REVERT JUMPDEST PUSH1 0x0 DUP1 DUP4 PUSH1 0x1F DUP5 ADD SLT PUSH2 0x10EF JUMPI PUSH2 0x10EE PUSH2 0x10CA JUMP JUMPDEST JUMPDEST DUP3 CALLDATALOAD SWAP1 POP PUSH8 0xFFFFFFFFFFFFFFFF DUP2 GT ISZERO PUSH2 0x110C JUMPI PUSH2 0x110B PUSH2 0x10CF JUMP JUMPDEST JUMPDEST PUSH1 0x20 DUP4 ADD SWAP2 POP DUP4 PUSH1 0x1 DUP3 MUL DUP4 ADD GT ISZERO PUSH2 0x1128 JUMPI PUSH2 0x1127 PUSH2 0x10D4 JUMP JUMPDEST JUMPDEST SWAP3 POP SWAP3 SWAP1 POP JUMP JUMPDEST PUSH1 0x0 PUSH20 0xFFFFFFFFFFFFFFFFFFFFFFFFFFFFFFFFFFFFFFFF DUP3 AND SWAP1 POP SWAP2 SWAP1 POP JUMP JUMPDEST PUSH1 0x0 PUSH2 0x115A DUP3 PUSH2 0x112F JUMP JUMPDEST SWAP1 POP SWAP2 SWAP1 POP JUMP JUMPDEST PUSH2 0x116A DUP2 PUSH2 0x114F JUMP JUMPDEST DUP2 EQ PUSH2 0x1175 JUMPI PUSH1 0x0 DUP1 REVERT JUMPDEST POP JUMP JUMPDEST PUSH1 0x0 DUP2 CALLDATALOAD SWAP1 POP PUSH2 0x1187 DUP2 PUSH2 0x1161 JUMP JUMPDEST SWAP3 SWAP2 POP POP JUMP JUMPDEST PUSH1 0x0 DUP2 SWAP1 POP SWAP2 SWAP1 POP JUMP JUMPDEST PUSH2 0x11A0 DUP2 PUSH2 0x118D JUMP JUMPDEST DUP2 EQ PUSH2 0x11AB JUMPI PUSH1 0x0 DUP1 REVERT JUMPDEST POP JUMP JUMPDEST PUSH1 0x0 DUP2 CALLDATALOAD SWAP1 POP PUSH2 0x11BD DUP2 PUSH2 0x1197 JUMP JUMPDEST SWAP3 SWAP2 POP POP JUMP JUMPDEST PUSH1 0x0 DUP1 PUSH1 0x0 DUP1 PUSH1 0x0 DUP1 PUSH1 0x0 DUP1 PUSH1 0x0 PUSH1 0xE0 DUP11 DUP13 SUB SLT ISZERO PUSH2 0x11E5 JUMPI PUSH2 0x11E4 PUSH2 0x10C0 JUMP JUMPDEST JUMPDEST PUSH1 0x0 DUP11 ADD CALLDATALOAD PUSH8 0xFFFFFFFFFFFFFFFF DUP2 GT ISZERO PUSH2 0x1203 JUMPI PUSH2 0x1202 PUSH2 0x10C5 JUMP JUMPDEST JUMPDEST PUSH2 0x120F DUP13 DUP3 DUP14 ADD PUSH2 0x10D9 JUMP JUMPDEST SWAP10 POP SWAP10 POP POP PUSH1 0x20 DUP11 ADD CALLDATALOAD PUSH8 0xFFFFFFFFFFFFFFFF DUP2 GT ISZERO PUSH2 0x1232 JUMPI PUSH2 0x1231 PUSH2 0x10C5 JUMP JUMPDEST JUMPDEST PUSH2 0x123E DUP13 DUP3 DUP14 ADD PUSH2 0x10D9 JUMP JUMPDEST SWAP8 POP SWAP8 POP POP PUSH1 0x40 PUSH2 0x1251 DUP13 DUP3 DUP14 ADD PUSH2 0x1178 JUMP JUMPDEST SWAP6 POP POP PUSH1 0x60 PUSH2 0x1262 DUP13 DUP3 DUP14 ADD PUSH2 0x1178 JUMP JUMPDEST SWAP5 POP POP PUSH1 0x80 PUSH2 0x1273 DUP13 DUP3 DUP14 ADD PUSH2 0x11AE JUMP JUMPDEST SWAP4 POP POP PUSH1 0xA0 PUSH2 0x1284 DUP13 DUP3 DUP14 ADD PUSH2 0x11AE JUMP JUMPDEST SWAP3 POP POP PUSH1 0xC0 PUSH2 0x1295 DUP13 DUP3 DUP14 ADD PUSH2 0x11AE JUMP JUMPDEST SWAP2 POP POP SWAP3 SWAP6 SWAP9 POP SWAP3 SWAP6 SWAP9 POP SWAP3 SWAP6 SWAP9 JUMP JUMPDEST PUSH1 0x0 DUP1 PUSH1 0x0 PUSH1 0x60 DUP5 DUP7 SUB SLT ISZERO PUSH2 0x12BE JUMPI PUSH2 0x12BD PUSH2 0x10C0 JUMP JUMPDEST JUMPDEST PUSH1 0x0 PUSH2 0x12CC DUP7 DUP3 DUP8 ADD PUSH2 0x1178 JUMP JUMPDEST SWAP4 POP POP PUSH1 0x20 PUSH2 0x12DD DUP7 DUP3 DUP8 ADD PUSH2 0x11AE JUMP JUMPDEST SWAP3 POP POP PUSH1 0x40 PUSH2 0x12EE DUP7 DUP3 DUP8 ADD PUSH2 0x11AE JUMP JUMPDEST SWAP2 POP POP SWAP3 POP SWAP3 POP SWAP3 JUMP JUMPDEST PUSH2 0x1301 DUP2 PUSH2 0x118D JUMP JUMPDEST DUP3 MSTORE POP POP JUMP JUMPDEST PUSH1 0x0 PUSH1 0x20 DUP3 ADD SWAP1 POP PUSH2 0x131C PUSH1 0x0 DUP4 ADD DUP5 PUSH2 0x12F8 JUMP JUMPDEST SWAP3 SWAP2 POP POP JUMP JUMPDEST PUSH2 0x132B DUP2 PUSH2 0x114F JUMP JUMPDEST DUP3 MSTORE POP POP JUMP JUMPDEST PUSH1 0x0 PUSH1 0x60 DUP3 ADD SWAP1 POP PUSH2 0x1346 PUSH1 0x0 DUP4 ADD DUP7 PUSH2 0x1322 JUMP JUMPDEST PUSH2 0x1353 PUSH1 0x20 DUP4 ADD DUP6 PUSH2 0x12F8 JUMP JUMPDEST PUSH2 0x1360 PUSH1 0x40 DUP4 ADD DUP5 PUSH2 0x12F8 JUMP JUMPDEST SWAP5 SWAP4 POP POP POP POP JUMP JUMPDEST PUSH1 0x0 DUP2 MLOAD SWAP1 POP PUSH2 0x1377 DUP2 PUSH2 0x1197 JUMP JUMPDEST SWAP3 SWAP2 POP POP JUMP JUMPDEST PUSH1 0x0 PUSH1 0x20 DUP3 DUP5 SUB SLT ISZERO PUSH2 0x1393 JUMPI PUSH2 0x1392 PUSH2 0x10C0 JUMP JUMPDEST JUMPDEST PUSH1 0x0 PUSH2 0x13A1 DUP5 DUP3 DUP6 ADD PUSH2 0x1368 JUMP JUMPDEST SWAP2 POP POP SWAP3 SWAP2 POP POP JUMP JUMPDEST PUSH1 0x0 DUP3 DUP3 MSTORE PUSH1 0x20 DUP3 ADD SWAP1 POP SWAP3 SWAP2 POP POP JUMP JUMPDEST PUSH32 0x61786C5553444300000000000000000000000000000000000000000000000000 PUSH1 0x0 DUP3 ADD MSTORE POP JUMP JUMPDEST PUSH1 0x0 PUSH2 0x13F1 PUSH1 0x7 DUP4 PUSH2 0x13AA JUMP JUMPDEST SWAP2 POP PUSH2 0x13FC DUP3 PUSH2 0x13BB JUMP JUMPDEST PUSH1 0x20 DUP3 ADD SWAP1 POP SWAP2 SWAP1 POP JUMP JUMPDEST PUSH1 0x0 PUSH1 0x20 DUP3 ADD SWAP1 POP DUP2 DUP2 SUB PUSH1 0x0 DUP4 ADD MSTORE PUSH2 0x1420 DUP2 PUSH2 0x13E4 JUMP JUMPDEST SWAP1 POP SWAP2 SWAP1 POP JUMP JUMPDEST PUSH1 0x0 DUP2 MLOAD SWAP1 POP PUSH2 0x1436 DUP2 PUSH2 0x1161 JUMP JUMPDEST SWAP3 SWAP2 POP POP JUMP JUMPDEST PUSH1 0x0 PUSH1 0x20 DUP3 DUP5 SUB SLT ISZERO PUSH2 0x1452 JUMPI PUSH2 0x1451 PUSH2 0x10C0 JUMP JUMPDEST JUMPDEST PUSH1 0x0 PUSH2 0x1460 DUP5 DUP3 DUP6 ADD PUSH2 0x1427 JUMP JUMPDEST SWAP2 POP POP SWAP3 SWAP2 POP POP JUMP JUMPDEST PUSH32 0x4E487B7100000000000000000000000000000000000000000000000000000000 PUSH1 0x0 MSTORE PUSH1 0x11 PUSH1 0x4 MSTORE PUSH1 0x24 PUSH1 0x0 REVERT JUMPDEST PUSH1 0x0 PUSH2 0x14A3 DUP3 PUSH2 0x118D JUMP JUMPDEST SWAP2 POP PUSH2 0x14AE DUP4 PUSH2 0x118D JUMP JUMPDEST SWAP3 POP DUP3 DUP3 SUB SWAP1 POP DUP2 DUP2 GT ISZERO PUSH2 0x14C6 JUMPI PUSH2 0x14C5 PUSH2 0x1469 JUMP JUMPDEST JUMPDEST SWAP3 SWAP2 POP POP JUMP JUMPDEST PUSH1 0x0 PUSH1 0x40 DUP3 ADD SWAP1 POP PUSH2 0x14E1 PUSH1 0x0 DUP4 ADD DUP6 PUSH2 0x1322 JUMP JUMPDEST PUSH2 0x14EE PUSH1 0x20 DUP4 ADD DUP5 PUSH2 0x12F8 JUMP JUMPDEST SWAP4 SWAP3 POP POP POP JUMP JUMPDEST PUSH1 0x0 DUP2 ISZERO ISZERO SWAP1 POP SWAP2 SWAP1 POP JUMP JUMPDEST PUSH2 0x150A DUP2 PUSH2 0x14F5 JUMP JUMPDEST DUP2 EQ PUSH2 0x1515 JUMPI PUSH1 0x0 DUP1 REVERT JUMPDEST POP JUMP JUMPDEST PUSH1 0x0 DUP2 MLOAD SWAP1 POP PUSH2 0x1527 DUP2 PUSH2 0x1501 JUMP JUMPDEST SWAP3 SWAP2 POP POP JUMP JUMPDEST PUSH1 0x0 PUSH1 0x20 DUP3 DUP5 SUB SLT ISZERO PUSH2 0x1543 JUMPI PUSH2 0x1542 PUSH2 0x10C0 JUMP JUMPDEST JUMPDEST PUSH1 0x0 PUSH2 0x1551 DUP5 DUP3 DUP6 ADD PUSH2 0x1518 JUMP JUMPDEST SWAP2 POP POP SWAP3 SWAP2 POP POP JUMP JUMPDEST PUSH1 0x0 PUSH1 0x60 DUP3 ADD SWAP1 POP PUSH2 0x156F PUSH1 0x0 DUP4 ADD DUP7 PUSH2 0x1322 JUMP JUMPDEST PUSH2 0x157C PUSH1 0x20 DUP4 ADD DUP6 PUSH2 0x1322 JUMP JUMPDEST PUSH2 0x1589 PUSH1 0x40 DUP4 ADD DUP5 PUSH2 0x12F8 JUMP JUMPDEST SWAP5 SWAP4 POP POP POP POP JUMP JUMPDEST PUSH1 0x0 PUSH2 0x159C DUP3 PUSH2 0x118D JUMP JUMPDEST SWAP2 POP PUSH2 0x15A7 DUP4 PUSH2 0x118D JUMP JUMPDEST SWAP3 POP DUP3 DUP3 ADD SWAP1 POP DUP1 DUP3 GT ISZERO PUSH2 0x15BF JUMPI PUSH2 0x15BE PUSH2 0x1469 JUMP JUMPDEST JUMPDEST SWAP3 SWAP2 POP POP JUMP JUMPDEST PUSH1 0x0 DUP2 MLOAD SWAP1 POP SWAP2 SWAP1 POP JUMP JUMPDEST PUSH1 0x0 DUP3 DUP3 MSTORE PUSH1 0x20 DUP3 ADD SWAP1 POP SWAP3 SWAP2 POP POP JUMP JUMPDEST PUSH1 0x0 DUP2 SWAP1 POP PUSH1 0x20 DUP3 ADD SWAP1 POP SWAP2 SWAP1 POP JUMP JUMPDEST PUSH2 0x15FA DUP2 PUSH2 0x114F JUMP JUMPDEST DUP3 MSTORE POP POP JUMP JUMPDEST PUSH1 0x0 PUSH2 0x160C DUP4 DUP4 PUSH2 0x15F1 JUMP JUMPDEST PUSH1 0x20 DUP4 ADD SWAP1 POP SWAP3 SWAP2 POP POP JUMP JUMPDEST PUSH1 0x0 PUSH1 0x20 DUP3 ADD SWAP1 POP SWAP2 SWAP1 POP JUMP JUMPDEST PUSH1 0x0 PUSH2 0x1630 DUP3 PUSH2 0x15C5 JUMP JUMPDEST PUSH2 0x163A DUP2 DUP6 PUSH2 0x15D0 JUMP JUMPDEST SWAP4 POP PUSH2 0x1645 DUP4 PUSH2 0x15E1 JUMP JUMPDEST DUP1 PUSH1 0x0 JUMPDEST DUP4 DUP2 LT ISZERO PUSH2 0x1676 JUMPI DUP2 MLOAD PUSH2 0x165D DUP9 DUP3 PUSH2 0x1600 JUMP JUMPDEST SWAP8 POP PUSH2 0x1668 DUP4 PUSH2 0x1618 JUMP JUMPDEST SWAP3 POP POP PUSH1 0x1 DUP2 ADD SWAP1 POP PUSH2 0x1649 JUMP JUMPDEST POP DUP6 SWAP4 POP POP POP POP SWAP3 SWAP2 POP POP JUMP JUMPDEST PUSH1 0x0 PUSH1 0xA0 DUP3 ADD SWAP1 POP PUSH2 0x1698 PUSH1 0x0 DUP4 ADD DUP9 PUSH2 0x12F8 JUMP JUMPDEST PUSH2 0x16A5 PUSH1 0x20 DUP4 ADD DUP8 PUSH2 0x12F8 JUMP JUMPDEST DUP2 DUP2 SUB PUSH1 0x40 DUP4 ADD MSTORE PUSH2 0x16B7 DUP2 DUP7 PUSH2 0x1625 JUMP JUMPDEST SWAP1 POP PUSH2 0x16C6 PUSH1 0x60 DUP4 ADD DUP6 PUSH2 0x1322 JUMP JUMPDEST PUSH2 0x16D3 PUSH1 0x80 DUP4 ADD DUP5 PUSH2 0x12F8 JUMP JUMPDEST SWAP7 SWAP6 POP POP POP POP POP POP JUMP JUMPDEST PUSH1 0x0 PUSH1 0x1F NOT PUSH1 0x1F DUP4 ADD AND SWAP1 POP SWAP2 SWAP1 POP JUMP JUMPDEST PUSH32 0x4E487B7100000000000000000000000000000000000000000000000000000000 PUSH1 0x0 MSTORE PUSH1 0x41 PUSH1 0x4 MSTORE PUSH1 0x24 PUSH1 0x0 REVERT JUMPDEST PUSH2 0x1726 DUP3 PUSH2 0x16DD JUMP JUMPDEST DUP2 ADD DUP2 DUP2 LT PUSH8 0xFFFFFFFFFFFFFFFF DUP3 GT OR ISZERO PUSH2 0x1745 JUMPI PUSH2 0x1744 PUSH2 0x16EE JUMP JUMPDEST JUMPDEST DUP1 PUSH1 0x40 MSTORE POP POP POP JUMP JUMPDEST PUSH1 0x0 PUSH2 0x1758 PUSH2 0x10B6 JUMP JUMPDEST SWAP1 POP PUSH2 0x1764 DUP3 DUP3 PUSH2 0x171D JUMP JUMPDEST SWAP2 SWAP1 POP JUMP JUMPDEST PUSH1 0x0 PUSH8 0xFFFFFFFFFFFFFFFF DUP3 GT ISZERO PUSH2 0x1784 JUMPI PUSH2 0x1783 PUSH2 0x16EE JUMP JUMPDEST JUMPDEST PUSH1 0x20 DUP3 MUL SWAP1 POP PUSH1 0x20 DUP2 ADD SWAP1 POP SWAP2 SWAP1 POP JUMP JUMPDEST PUSH1 0x0 PUSH2 0x17A8 PUSH2 0x17A3 DUP5 PUSH2 0x1769 JUMP JUMPDEST PUSH2 0x174E JUMP JUMPDEST SWAP1 POP DUP1 DUP4 DUP3 MSTORE PUSH1 0x20 DUP3 ADD SWAP1 POP PUSH1 0x20 DUP5 MUL DUP4 ADD DUP6 DUP2 GT ISZERO PUSH2 0x17CB JUMPI PUSH2 0x17CA PUSH2 0x10D4 JUMP JUMPDEST JUMPDEST DUP4 JUMPDEST DUP2 DUP2 LT ISZERO PUSH2 0x17F4 JUMPI DUP1 PUSH2 0x17E0 DUP9 DUP3 PUSH2 0x1368 JUMP JUMPDEST DUP5 MSTORE PUSH1 0x20 DUP5 ADD SWAP4 POP POP PUSH1 0x20 DUP2 ADD SWAP1 POP PUSH2 0x17CD JUMP JUMPDEST POP POP POP SWAP4 SWAP3 POP POP POP JUMP JUMPDEST PUSH1 0x0 DUP3 PUSH1 0x1F DUP4 ADD SLT PUSH2 0x1813 JUMPI PUSH2 0x1812 PUSH2 0x10CA JUMP JUMPDEST JUMPDEST DUP2 MLOAD PUSH2 0x1823 DUP5 DUP3 PUSH1 0x20 DUP7 ADD PUSH2 0x1795 JUMP JUMPDEST SWAP2 POP POP SWAP3 SWAP2 POP POP JUMP JUMPDEST PUSH1 0x0 PUSH1 0x20 DUP3 DUP5 SUB SLT ISZERO PUSH2 0x1842 JUMPI PUSH2 0x1841 PUSH2 0x10C0 JUMP JUMPDEST JUMPDEST PUSH1 0x0 DUP3 ADD MLOAD PUSH8 0xFFFFFFFFFFFFFFFF DUP2 GT ISZERO PUSH2 0x1860 JUMPI PUSH2 0x185F PUSH2 0x10C5 JUMP JUMPDEST JUMPDEST PUSH2 0x186C DUP5 DUP3 DUP6 ADD PUSH2 0x17FE JUMP JUMPDEST SWAP2 POP POP SWAP3 SWAP2 POP POP JUMP JUMPDEST PUSH1 0x0 PUSH1 0x80 DUP3 ADD SWAP1 POP PUSH2 0x188A PUSH1 0x0 DUP4 ADD DUP8 PUSH2 0x12F8 JUMP JUMPDEST DUP2 DUP2 SUB PUSH1 0x20 DUP4 ADD MSTORE PUSH2 0x189C DUP2 DUP7 PUSH2 0x1625 JUMP JUMPDEST SWAP1 POP PUSH2 0x18AB PUSH1 0x40 DUP4 ADD DUP6 PUSH2 0x1322 JUMP JUMPDEST PUSH2 0x18B8 PUSH1 0x60 DUP4 ADD DUP5 PUSH2 0x12F8 JUMP JUMPDEST SWAP6 SWAP5 POP POP POP POP POP JUMP JUMPDEST PUSH32 0x4E487B7100000000000000000000000000000000000000000000000000000000 PUSH1 0x0 MSTORE PUSH1 0x32 PUSH1 0x4 MSTORE PUSH1 0x24 PUSH1 0x0 REVERT JUMPDEST PUSH1 0x0 PUSH1 0xFF DUP3 AND SWAP1 POP SWAP2 SWAP1 POP JUMP JUMPDEST PUSH2 0x1906 DUP2 PUSH2 0x18F0 JUMP JUMPDEST DUP3 MSTORE POP POP JUMP JUMPDEST PUSH1 0x0 PUSH1 0xE0 DUP3 ADD SWAP1 POP PUSH2 0x1921 PUSH1 0x0 DUP4 ADD DUP11 PUSH2 0x1322 JUMP JUMPDEST PUSH2 0x192E PUSH1 0x20 DUP4 ADD DUP10 PUSH2 0x1322 JUMP JUMPDEST PUSH2 0x193B PUSH1 0x40 DUP4 ADD DUP9 PUSH2 0x18FD JUMP JUMPDEST PUSH2 0x1948 PUSH1 0x60 DUP4 ADD DUP8 PUSH2 0x18FD JUMP JUMPDEST PUSH2 0x1955 PUSH1 0x80 DUP4 ADD DUP7 PUSH2 0x12F8 JUMP JUMPDEST PUSH2 0x1962 PUSH1 0xA0 DUP4 ADD DUP6 PUSH2 0x12F8 JUMP JUMPDEST PUSH2 0x196F PUSH1 0xC0 DUP4 ADD DUP5 PUSH2 0x12F8 JUMP JUMPDEST SWAP9 SWAP8 POP POP POP POP POP POP POP POP JUMP JUMPDEST PUSH1 0x0 PUSH1 0x40 DUP3 ADD SWAP1 POP PUSH2 0x1990 PUSH1 0x0 DUP4 ADD DUP6 PUSH2 0x12F8 JUMP JUMPDEST DUP2 DUP2 SUB PUSH1 0x20 DUP4 ADD MSTORE PUSH2 0x19A2 DUP2 DUP5 PUSH2 0x1625 JUMP JUMPDEST SWAP1 POP SWAP4 SWAP3 POP POP POP JUMP INVALID LOG2 PUSH5 0x6970667358 0x22 SLT KECCAK256 DUP5 PUSH16 0x7F185ECACE0E8059D654372384725B6A SWAP10 RETURN PUSH15 0x5C2CCD9BD26ECB67FDC4D64736F6C PUSH4 0x43000811 STOP CALLER "},"methodIdentifiers":{"SwapAndTransfer(address,uint256,uint256)":"5fb79c3e","requestTransfersOut(string,string,address,address,uint256,uint256,uint256)":"1b112997"}}}}}