{
  "_format": "hh-sol-artifact-1",
  "contractName": "MessageSender",
  "sourceName": "contracts/MessageSenderMoonbeam.sol",
  "abi": [
    {
      "inputs": [
        {
          "internalType": "address",
          "name": "_gateway",
          "type": "address"
        },
        {
          "internalType": "address",
          "name": "_gasReceiver",
          "type": "address"
        },
        {
          "internalType": "address",
          "name": "_curvePools",
          "type": "address"
        },
        {
          "internalType": "address",
          "name": "_router",
          "type": "address"
        },
        {
          "internalType": "address",
          "name": "_weth",
          "type": "address"
        },
        {
          "internalType": "address",
          "name": "_ausdc",
          "type": "address"
        }
      ],
      "stateMutability": "nonpayable",
      "type": "constructor"
    },
    {
      "inputs": [
        {
          "internalType": "address",
          "name": "tokenIn",
          "type": "address"
        },
        {
          "internalType": "uint256",
          "name": "amount",
          "type": "uint256"
        },
        {
          "internalType": "uint256",
          "name": "amountGas",
          "type": "uint256"
        }
      ],
      "name": "SwapAndTransfer",
      "outputs": [
        {
          "internalType": "uint256",
          "name": "",
          "type": "uint256"
        }
      ],
      "stateMutability": "nonpayable",
      "type": "function"
    },
    {
      "inputs": [
        {
          "internalType": "string",
          "name": "destinationChain",
          "type": "string"
        },
        {
          "internalType": "string",
          "name": "destinationAddress",
          "type": "string"
        },
        {
          "internalType": "address",
          "name": "tokenIn",
          "type": "address"
        },
        {
          "internalType": "address",
          "name": "tokenOut",
          "type": "address"
        },
        {
          "internalType": "uint256",
          "name": "amount",
          "type": "uint256"
        },
        {
          "internalType": "uint256",
          "name": "amountGas",
          "type": "uint256"
        },
        {
          "internalType": "uint256",
          "name": "minAmount",
          "type": "uint256"
        }
      ],
      "name": "requestTransfersOut",
      "outputs": [],
      "stateMutability": "payable",
      "type": "function"
    }
  ],
  "bytecode": "0x6101406040523480156200001257600080fd5b5060405162001d2938038062001d298339818101604052810190620000389190620001e8565b8573ffffffffffffffffffffffffffffffffffffffff1660a08173ffffffffffffffffffffffffffffffffffffffff16815250508473ffffffffffffffffffffffffffffffffffffffff1660808173ffffffffffffffffffffffffffffffffffffffff16815250508373ffffffffffffffffffffffffffffffffffffffff1660c08173ffffffffffffffffffffffffffffffffffffffff16815250508273ffffffffffffffffffffffffffffffffffffffff1660e08173ffffffffffffffffffffffffffffffffffffffff16815250508173ffffffffffffffffffffffffffffffffffffffff166101008173ffffffffffffffffffffffffffffffffffffffff16815250508073ffffffffffffffffffffffffffffffffffffffff166101208173ffffffffffffffffffffffffffffffffffffffff168152505050505050505062000284565b600080fd5b600073ffffffffffffffffffffffffffffffffffffffff82169050919050565b6000620001b08262000183565b9050919050565b620001c281620001a3565b8114620001ce57600080fd5b50565b600081519050620001e281620001b7565b92915050565b60008060008060008060c087890312156200020857620002076200017e565b5b60006200021889828a01620001d1565b96505060206200022b89828a01620001d1565b95505060406200023e89828a01620001d1565b94505060606200025189828a01620001d1565b93505060806200026489828a01620001d1565b92505060a06200027789828a01620001d1565b9150509295509295509295565b60805160a05160c05160e05161010051610120516119e1620003486000396000818161024201528181610276015281816105480152818161089801526108c10152600081816101e901528181610cd401528181610d290152610f0801526000818161080f01528181610a6e01528181610b2a0152610fe20152600081816102b201528181610638015281816108fd0152610c1801526000818161011c01528181610364015281816104c0015281816106ea01526109af0152600050506119e16000f3fe6080604052600436106100295760003560e01c80631b1129971461002e5780635fb79c3e1461004a575b600080fd5b610048600480360381019061004391906111c3565b610087565b005b34801561005657600080fd5b50610071600480360381019061006c91906112a5565b610117565b60405161007e9190611307565b60405180910390f35b60003073ffffffffffffffffffffffffffffffffffffffff16635fb79c3e8786866040518463ffffffff1660e01b81526004016100c693929190611331565b6020604051808303816000875af11580156100e5573d6000803e3d6000fd5b505050506040513d601f19601f82011682018060405250810190610109919061137d565b905050505050505050505050565b6000807f000000000000000000000000000000000000000000000000000000000000000073ffffffffffffffffffffffffffffffffffffffff1663935b13f66040518163ffffffff1660e01b815260040161017190611407565b602060405180830381865afa15801561018e573d6000803e3d6000fd5b505050506040513d601f19601f820116820180604052508101906101b2919061143c565b905060008073b1bc9f56103175193519ae1540a0a4572b1566f69050600073a1ffdc79f998e7fa91ba3a6f098b84c9275b048390507f000000000000000000000000000000000000000000000000000000000000000073ffffffffffffffffffffffffffffffffffffffff168873ffffffffffffffffffffffffffffffffffffffff16036103eb576000610272897f0000000000000000000000000000000000000000000000000000000000000000898b61026d9190611498565b610a42565b90507f000000000000000000000000000000000000000000000000000000000000000073ffffffffffffffffffffffffffffffffffffffff1663095ea7b37f0000000000000000000000000000000000000000000000000000000000000000836040518363ffffffff1660e01b81526004016102ef9291906114cc565b6020604051808303816000875af115801561030e573d6000803e3d6000fd5b505050506040513d601f19601f82011682018060405250810190610332919061152d565b50610344828460008085600042610c13565b93508473ffffffffffffffffffffffffffffffffffffffff1663095ea7b37f0000000000000000000000000000000000000000000000000000000000000000866040518363ffffffff1660e01b81526004016103a19291906114cc565b6020604051808303816000875af11580156103c0573d6000803e3d6000fd5b505050506040513d601f19601f820116820180604052508101906103e4919061152d565b5050610a34565b8373ffffffffffffffffffffffffffffffffffffffff168873ffffffffffffffffffffffffffffffffffffffff1603610546578773ffffffffffffffffffffffffffffffffffffffff166323b872dd33308a6040518463ffffffff1660e01b815260040161045b9392919061155a565b6020604051808303816000875af115801561047a573d6000803e3d6000fd5b505050506040513d601f19601f8201168201806040525081019061049e919061152d565b508692508373ffffffffffffffffffffffffffffffffffffffff1663095ea7b37f0000000000000000000000000000000000000000000000000000000000000000856040518363ffffffff1660e01b81526004016104fd9291906114cc565b6020604051808303816000875af115801561051c573d6000803e3d6000fd5b505050506040513d601f19601f82011682018060405250810190610540919061152d565b50610a33565b7f000000000000000000000000000000000000000000000000000000000000000073ffffffffffffffffffffffffffffffffffffffff168873ffffffffffffffffffffffffffffffffffffffff1603610770578773ffffffffffffffffffffffffffffffffffffffff166323b872dd33308a6040518463ffffffff1660e01b81526004016105d69392919061155a565b6020604051808303816000875af11580156105f5573d6000803e3d6000fd5b505050506040513d601f19601f82011682018060405250810190610619919061152d565b508773ffffffffffffffffffffffffffffffffffffffff1663095ea7b37f0000000000000000000000000000000000000000000000000000000000000000896040518363ffffffff1660e01b81526004016106759291906114cc565b6020604051808303816000875af1158015610694573d6000803e3d6000fd5b505050506040513d601f19601f820116820180604052508101906106b8919061152d565b506106ca81836000808b600042610c13565b92508373ffffffffffffffffffffffffffffffffffffffff1663095ea7b37f0000000000000000000000000000000000000000000000000000000000000000856040518363ffffffff1660e01b81526004016107279291906114cc565b6020604051808303816000875af1158015610746573d6000803e3d6000fd5b505050506040513d601f19601f8201168201806040525081019061076a919061152d565b50610a32565b8773ffffffffffffffffffffffffffffffffffffffff166323b872dd33308a6040518463ffffffff1660e01b81526004016107ad9392919061155a565b6020604051808303816000875af11580156107cc573d6000803e3d6000fd5b505050506040513d601f19601f820116820180604052508101906107f0919061152d565b508773ffffffffffffffffffffffffffffffffffffffff1663095ea7b37f0000000000000000000000000000000000000000000000000000000000000000896040518363ffffffff1660e01b815260040161084c9291906114cc565b6020604051808303816000875af115801561086b573d6000803e3d6000fd5b505050506040513d601f19601f8201168201806040525081019061088f919061152d565b5060006108bd897f00000000000000000000000000000000000000000000000000000000000000008a610a42565b90507f000000000000000000000000000000000000000000000000000000000000000073ffffffffffffffffffffffffffffffffffffffff1663095ea7b37f0000000000000000000000000000000000000000000000000000000000000000836040518363ffffffff1660e01b815260040161093a9291906114cc565b6020604051808303816000875af1158015610959573d6000803e3d6000fd5b505050506040513d601f19601f8201168201806040525081019061097d919061152d565b5061098f828460008085600042610c13565b93508473ffffffffffffffffffffffffffffffffffffffff1663095ea7b37f0000000000000000000000000000000000000000000000000000000000000000866040518363ffffffff1660e01b81526004016109ec9291906114cc565b6020604051808303816000875af1158015610a0b573d6000803e3d6000fd5b505050506040513d601f19601f82011682018060405250810190610a2f919061152d565b50505b5b5b829450505050509392505050565b600080610a4f8585610ccf565b90506000610a5e868686610fcf565b90506060600283511115610b28577f000000000000000000000000000000000000000000000000000000000000000073ffffffffffffffffffffffffffffffffffffffff166338ed173986848630600f42610ab99190611591565b6040518663ffffffff1660e01b8152600401610ad9959493929190611683565b6000604051808303816000875af1158015610af8573d6000803e3d6000fd5b505050506040513d6000823e3d601f19601f82011682018060405250810190610b21919061182c565b9050610bdf565b7f000000000000000000000000000000000000000000000000000000000000000073ffffffffffffffffffffffffffffffffffffffff16637ff36ab586848630600f42610b759190611591565b6040518663ffffffff1660e01b8152600401610b949493929190611875565b60006040518083038185885af1158015610bb2573d6000803e3d6000fd5b50505050506040513d6000823e3d601f19601f82011682018060405250810190610bdc919061182c565b90505b8060018451610bee9190611498565b81518110610bff57610bfe6118c1565b5b602002602001015193505050509392505050565b6000807f000000000000000000000000000000000000000000000000000000000000000073ffffffffffffffffffffffffffffffffffffffff166338c789738a8a8a8a8a8a8a6040518863ffffffff1660e01b8152600401610c7b979695949392919061190c565b6020604051808303816000875af1158015610c9a573d6000803e3d6000fd5b505050506040513d601f19601f82011682018060405250810190610cbe919061137d565b905080915050979650505050505050565b6060807f000000000000000000000000000000000000000000000000000000000000000073ffffffffffffffffffffffffffffffffffffffff168473ffffffffffffffffffffffffffffffffffffffff161480610d7757507f000000000000000000000000000000000000000000000000000000000000000073ffffffffffffffffffffffffffffffffffffffff168373ffffffffffffffffffffffffffffffffffffffff16145b15610e6b57600267ffffffffffffffff811115610d9757610d966116ee565b5b604051908082528060200260200182016040528015610dc55781602001602082028036833780820191505090505b5090508381600081518110610ddd57610ddc6118c1565b5b602002602001019073ffffffffffffffffffffffffffffffffffffffff16908173ffffffffffffffffffffffffffffffffffffffff16815250508281600181518110610e2c57610e2b6118c1565b5b602002602001019073ffffffffffffffffffffffffffffffffffffffff16908173ffffffffffffffffffffffffffffffffffffffff1681525050610fc5565b600367ffffffffffffffff811115610e8657610e856116ee565b5b604051908082528060200260200182016040528015610eb45781602001602082028036833780820191505090505b5090508381600081518110610ecc57610ecb6118c1565b5b602002602001019073ffffffffffffffffffffffffffffffffffffffff16908173ffffffffffffffffffffffffffffffffffffffff16815250507f000000000000000000000000000000000000000000000000000000000000000081600181518110610f3b57610f3a6118c1565b5b602002602001019073ffffffffffffffffffffffffffffffffffffffff16908173ffffffffffffffffffffffffffffffffffffffff16815250508281600281518110610f8a57610f896118c1565b5b602002602001019073ffffffffffffffffffffffffffffffffffffffff16908173ffffffffffffffffffffffffffffffffffffffff16815250505b8091505092915050565b600080610fdc8585610ccf565b905060007f000000000000000000000000000000000000000000000000000000000000000073ffffffffffffffffffffffffffffffffffffffff1663d06ca61f85846040518363ffffffff1660e01b815260040161103b92919061197b565b600060405180830381865afa158015611058573d6000803e3d6000fd5b505050506040513d6000823e3d601f19601f82011682018060405250810190611081919061182c565b905080600183516110929190611498565b815181106110a3576110a26118c1565b5b6020026020010151925050509392505050565b6000604051905090565b600080fd5b600080fd5b600080fd5b600080fd5b600080fd5b60008083601f8401126110ef576110ee6110ca565b5b8235905067ffffffffffffffff81111561110c5761110b6110cf565b5b602083019150836001820283011115611128576111276110d4565b5b9250929050565b600073ffffffffffffffffffffffffffffffffffffffff82169050919050565b600061115a8261112f565b9050919050565b61116a8161114f565b811461117557600080fd5b50565b60008135905061118781611161565b92915050565b6000819050919050565b6111a08161118d565b81146111ab57600080fd5b50565b6000813590506111bd81611197565b92915050565b600080600080600080600080600060e08a8c0312156111e5576111e46110c0565b5b60008a013567ffffffffffffffff811115611203576112026110c5565b5b61120f8c828d016110d9565b995099505060208a013567ffffffffffffffff811115611232576112316110c5565b5b61123e8c828d016110d9565b975097505060406112518c828d01611178565b95505060606112628c828d01611178565b94505060806112738c828d016111ae565b93505060a06112848c828d016111ae565b92505060c06112958c828d016111ae565b9150509295985092959850929598565b6000806000606084860312156112be576112bd6110c0565b5b60006112cc86828701611178565b93505060206112dd868287016111ae565b92505060406112ee868287016111ae565b9150509250925092565b6113018161118d565b82525050565b600060208201905061131c60008301846112f8565b92915050565b61132b8161114f565b82525050565b60006060820190506113466000830186611322565b61135360208301856112f8565b61136060408301846112f8565b949350505050565b60008151905061137781611197565b92915050565b600060208284031215611393576113926110c0565b5b60006113a184828501611368565b91505092915050565b600082825260208201905092915050565b7f61786c5553444300000000000000000000000000000000000000000000000000600082015250565b60006113f16007836113aa565b91506113fc826113bb565b602082019050919050565b60006020820190508181036000830152611420816113e4565b9050919050565b60008151905061143681611161565b92915050565b600060208284031215611452576114516110c0565b5b600061146084828501611427565b91505092915050565b7f4e487b7100000000000000000000000000000000000000000000000000000000600052601160045260246000fd5b60006114a38261118d565b91506114ae8361118d565b92508282039050818111156114c6576114c5611469565b5b92915050565b60006040820190506114e16000830185611322565b6114ee60208301846112f8565b9392505050565b60008115159050919050565b61150a816114f5565b811461151557600080fd5b50565b60008151905061152781611501565b92915050565b600060208284031215611543576115426110c0565b5b600061155184828501611518565b91505092915050565b600060608201905061156f6000830186611322565b61157c6020830185611322565b61158960408301846112f8565b949350505050565b600061159c8261118d565b91506115a78361118d565b92508282019050808211156115bf576115be611469565b5b92915050565b600081519050919050565b600082825260208201905092915050565b6000819050602082019050919050565b6115fa8161114f565b82525050565b600061160c83836115f1565b60208301905092915050565b6000602082019050919050565b6000611630826115c5565b61163a81856115d0565b9350611645836115e1565b8060005b8381101561167657815161165d8882611600565b975061166883611618565b925050600181019050611649565b5085935050505092915050565b600060a08201905061169860008301886112f8565b6116a560208301876112f8565b81810360408301526116b78186611625565b90506116c66060830185611322565b6116d360808301846112f8565b9695505050505050565b6000601f19601f8301169050919050565b7f4e487b7100000000000000000000000000000000000000000000000000000000600052604160045260246000fd5b611726826116dd565b810181811067ffffffffffffffff82111715611745576117446116ee565b5b80604052505050565b60006117586110b6565b9050611764828261171d565b919050565b600067ffffffffffffffff821115611784576117836116ee565b5b602082029050602081019050919050565b60006117a86117a384611769565b61174e565b905080838252602082019050602084028301858111156117cb576117ca6110d4565b5b835b818110156117f457806117e08882611368565b8452602084019350506020810190506117cd565b5050509392505050565b600082601f830112611813576118126110ca565b5b8151611823848260208601611795565b91505092915050565b600060208284031215611842576118416110c0565b5b600082015167ffffffffffffffff8111156118605761185f6110c5565b5b61186c848285016117fe565b91505092915050565b600060808201905061188a60008301876112f8565b818103602083015261189c8186611625565b90506118ab6040830185611322565b6118b860608301846112f8565b95945050505050565b7f4e487b7100000000000000000000000000000000000000000000000000000000600052603260045260246000fd5b600060ff82169050919050565b611906816118f0565b82525050565b600060e082019050611921600083018a611322565b61192e6020830189611322565b61193b60408301886118fd565b61194860608301876118fd565b61195560808301866112f8565b61196260a08301856112f8565b61196f60c08301846112f8565b98975050505050505050565b600060408201905061199060008301856112f8565b81810360208301526119a28184611625565b9050939250505056fea2646970667358221220846f7f185ecace0e8059d654372384725b6a99f36e05c2ccd9bd26ecb67fdc4d64736f6c63430008110033",
  "linkReferences": {},
  "deployedLinkReferences": {}
}