{
  "_format": "hh-sol-artifact-1",
  "contractName": "MessageSender",
  "sourceName": "contracts/MessageSenderMoonbeam.sol",
  "abi": [
    {
      "inputs": [
        {
          "internalType": "address",
          "name": "_gateway",
          "type": "address"
        },
        {
          "internalType": "address",
          "name": "_gasReceiver",
          "type": "address"
        },
        {
          "internalType": "address",
          "name": "_curvePools",
          "type": "address"
        },
        {
          "internalType": "address",
          "name": "_router",
          "type": "address"
        },
        {
          "internalType": "address",
          "name": "_weth",
          "type": "address"
        },
        {
          "internalType": "address",
          "name": "_ausdc",
          "type": "address"
        }
      ],
      "stateMutability": "nonpayable",
      "type": "constructor"
    },
    {
      "inputs": [
        {
          "internalType": "address",
          "name": "tokenIn",
          "type": "address"
        },
        {
          "internalType": "uint256",
          "name": "amount",
          "type": "uint256"
        },
        {
          "internalType": "uint256",
          "name": "amountGas",
          "type": "uint256"
        }
      ],
      "name": "SwapAndTransfer",
      "outputs": [
        {
          "internalType": "uint256",
          "name": "",
          "type": "uint256"
        }
      ],
      "stateMutability": "nonpayable",
      "type": "function"
    },
    {
      "inputs": [
        {
          "internalType": "string",
          "name": "destinationChain",
          "type": "string"
        },
        {
          "internalType": "string",
          "name": "destinationAddress",
          "type": "string"
        },
        {
          "internalType": "address",
          "name": "tokenIn",
          "type": "address"
        },
        {
          "internalType": "address",
          "name": "tokenOut",
          "type": "address"
        },
        {
          "internalType": "uint256",
          "name": "amount",
          "type": "uint256"
        },
        {
          "internalType": "uint256",
          "name": "amountGas",
          "type": "uint256"
        },
        {
          "internalType": "uint256",
          "name": "minAmount",
          "type": "uint256"
        }
      ],
      "name": "requestTransfersOut",
      "outputs": [],
      "stateMutability": "payable",
      "type": "function"
    }
  ],
  "bytecode": "0x6101406040523480156200001257600080fd5b5060405162002172380380620021728339818101604052810190620000389190620001e8565b8573ffffffffffffffffffffffffffffffffffffffff1660a08173ffffffffffffffffffffffffffffffffffffffff16815250508473ffffffffffffffffffffffffffffffffffffffff1660808173ffffffffffffffffffffffffffffffffffffffff16815250508373ffffffffffffffffffffffffffffffffffffffff1660c08173ffffffffffffffffffffffffffffffffffffffff16815250508273ffffffffffffffffffffffffffffffffffffffff1660e08173ffffffffffffffffffffffffffffffffffffffff16815250508173ffffffffffffffffffffffffffffffffffffffff166101008173ffffffffffffffffffffffffffffffffffffffff16815250508073ffffffffffffffffffffffffffffffffffffffff166101208173ffffffffffffffffffffffffffffffffffffffff168152505050505050505062000284565b600080fd5b600073ffffffffffffffffffffffffffffffffffffffff82169050919050565b6000620001b08262000183565b9050919050565b620001c281620001a3565b8114620001ce57600080fd5b50565b600081519050620001e281620001b7565b92915050565b60008060008060008060c087890312156200020857620002076200017e565b5b60006200021889828a01620001d1565b96505060206200022b89828a01620001d1565b95505060406200023e89828a01620001d1565b94505060606200025189828a01620001d1565b93505060806200026489828a01620001d1565b92505060a06200027789828a01620001d1565b9150509295509295509295565b60805160a05160c05160e0516101005161012051611e2062000352600039600081816103a1015281816103d5015281816106a7015281816109f70152610a2001526000818161034801528181610f2a01528181610f7f015261115e01526000818161096e01528181610cc401528181610d8001526112380152600081816104110152818161079701528181610a5c0152610e6e0152600081816101d60152818161027b015281816104c30152818161061f015281816108490152610b0e0152600061013c0152611e206000f3fe6080604052600436106100295760003560e01c80631b1129971461002e5780635fb79c3e1461004a575b600080fd5b61004860048036038101906100439190611419565b610087565b005b34801561005657600080fd5b50610071600480360381019061006c91906114fb565b610276565b60405161007e919061155d565b60405180910390f35b60003073ffffffffffffffffffffffffffffffffffffffff16635fb79c3e8786866040518463ffffffff1660e01b81526004016100c693929190611587565b6020604051808303816000875af11580156100e5573d6000803e3d6000fd5b505050506040513d601f19601f8201168201806040525081019061010991906115d3565b905060006101173387610ba1565b836040516020016101299291906116be565b60405160208183030381529060405290507f000000000000000000000000000000000000000000000000000000000000000073ffffffffffffffffffffffffffffffffffffffff1663c62c200285308e8e8e8e888a336040518a63ffffffff1660e01b81526004016101a2989796959493929190611817565b6000604051808303818588803b1580156101bb57600080fd5b505af11580156101cf573d6000803e3d6000fd5b50505050507f000000000000000000000000000000000000000000000000000000000000000073ffffffffffffffffffffffffffffffffffffffff1663b54170848c8c8c8c86886040518763ffffffff1660e01b8152600401610237969594939291906118a4565b600060405180830381600087803b15801561025157600080fd5b505af1158015610265573d6000803e3d6000fd5b505050505050505050505050505050565b6000807f000000000000000000000000000000000000000000000000000000000000000073ffffffffffffffffffffffffffffffffffffffff1663935b13f66040518163ffffffff1660e01b81526004016102d090611915565b602060405180830381865afa1580156102ed573d6000803e3d6000fd5b505050506040513d601f19601f82011682018060405250810190610311919061194a565b905060008073b1bc9f56103175193519ae1540a0a4572b1566f69050600073a1ffdc79f998e7fa91ba3a6f098b84c9275b048390507f000000000000000000000000000000000000000000000000000000000000000073ffffffffffffffffffffffffffffffffffffffff168873ffffffffffffffffffffffffffffffffffffffff160361054a5760006103d1897f0000000000000000000000000000000000000000000000000000000000000000898b6103cc91906119a6565b610c98565b90507f000000000000000000000000000000000000000000000000000000000000000073ffffffffffffffffffffffffffffffffffffffff1663095ea7b37f0000000000000000000000000000000000000000000000000000000000000000836040518363ffffffff1660e01b815260040161044e9291906119da565b6020604051808303816000875af115801561046d573d6000803e3d6000fd5b505050506040513d601f19601f820116820180604052508101906104919190611a3b565b506104a3828460008085600042610e69565b93508473ffffffffffffffffffffffffffffffffffffffff1663095ea7b37f0000000000000000000000000000000000000000000000000000000000000000866040518363ffffffff1660e01b81526004016105009291906119da565b6020604051808303816000875af115801561051f573d6000803e3d6000fd5b505050506040513d601f19601f820116820180604052508101906105439190611a3b565b5050610b93565b8373ffffffffffffffffffffffffffffffffffffffff168873ffffffffffffffffffffffffffffffffffffffff16036106a5578773ffffffffffffffffffffffffffffffffffffffff166323b872dd33308a6040518463ffffffff1660e01b81526004016105ba93929190611a68565b6020604051808303816000875af11580156105d9573d6000803e3d6000fd5b505050506040513d601f19601f820116820180604052508101906105fd9190611a3b565b508692508373ffffffffffffffffffffffffffffffffffffffff1663095ea7b37f0000000000000000000000000000000000000000000000000000000000000000856040518363ffffffff1660e01b815260040161065c9291906119da565b6020604051808303816000875af115801561067b573d6000803e3d6000fd5b505050506040513d601f19601f8201168201806040525081019061069f9190611a3b565b50610b92565b7f000000000000000000000000000000000000000000000000000000000000000073ffffffffffffffffffffffffffffffffffffffff168873ffffffffffffffffffffffffffffffffffffffff16036108cf578773ffffffffffffffffffffffffffffffffffffffff166323b872dd33308a6040518463ffffffff1660e01b815260040161073593929190611a68565b6020604051808303816000875af1158015610754573d6000803e3d6000fd5b505050506040513d601f19601f820116820180604052508101906107789190611a3b565b508773ffffffffffffffffffffffffffffffffffffffff1663095ea7b37f0000000000000000000000000000000000000000000000000000000000000000896040518363ffffffff1660e01b81526004016107d49291906119da565b6020604051808303816000875af11580156107f3573d6000803e3d6000fd5b505050506040513d601f19601f820116820180604052508101906108179190611a3b565b5061082981836000808b600042610e69565b92508373ffffffffffffffffffffffffffffffffffffffff1663095ea7b37f0000000000000000000000000000000000000000000000000000000000000000856040518363ffffffff1660e01b81526004016108869291906119da565b6020604051808303816000875af11580156108a5573d6000803e3d6000fd5b505050506040513d601f19601f820116820180604052508101906108c99190611a3b565b50610b91565b8773ffffffffffffffffffffffffffffffffffffffff166323b872dd33308a6040518463ffffffff1660e01b815260040161090c93929190611a68565b6020604051808303816000875af115801561092b573d6000803e3d6000fd5b505050506040513d601f19601f8201168201806040525081019061094f9190611a3b565b508773ffffffffffffffffffffffffffffffffffffffff1663095ea7b37f0000000000000000000000000000000000000000000000000000000000000000896040518363ffffffff1660e01b81526004016109ab9291906119da565b6020604051808303816000875af11580156109ca573d6000803e3d6000fd5b505050506040513d601f19601f820116820180604052508101906109ee9190611a3b565b506000610a1c897f00000000000000000000000000000000000000000000000000000000000000008a610c98565b90507f000000000000000000000000000000000000000000000000000000000000000073ffffffffffffffffffffffffffffffffffffffff1663095ea7b37f0000000000000000000000000000000000000000000000000000000000000000836040518363ffffffff1660e01b8152600401610a999291906119da565b6020604051808303816000875af1158015610ab8573d6000803e3d6000fd5b505050506040513d601f19601f82011682018060405250810190610adc9190611a3b565b50610aee828460008085600042610e69565b93508473ffffffffffffffffffffffffffffffffffffffff1663095ea7b37f0000000000000000000000000000000000000000000000000000000000000000866040518363ffffffff1660e01b8152600401610b4b9291906119da565b6020604051808303816000875af1158015610b6a573d6000803e3d6000fd5b505050506040513d601f19601f82011682018060405250810190610b8e9190611a3b565b50505b5b5b829450505050509392505050565b606080600267ffffffffffffffff811115610bbf57610bbe611a9f565b5b604051908082528060200260200182016040528015610bed5781602001602082028036833780820191505090505b5090508381600081518110610c0557610c04611ace565b5b602002602001019073ffffffffffffffffffffffffffffffffffffffff16908173ffffffffffffffffffffffffffffffffffffffff16815250508281600181518110610c5457610c53611ace565b5b602002602001019073ffffffffffffffffffffffffffffffffffffffff16908173ffffffffffffffffffffffffffffffffffffffff16815250508091505092915050565b600080610ca58585610f25565b90506000610cb4868686611225565b90506060600283511115610d7e577f000000000000000000000000000000000000000000000000000000000000000073ffffffffffffffffffffffffffffffffffffffff166338ed173986848630600f42610d0f9190611afd565b6040518663ffffffff1660e01b8152600401610d2f959493929190611b31565b6000604051808303816000875af1158015610d4e573d6000803e3d6000fd5b505050506040513d6000823e3d601f19601f82011682018060405250810190610d779190611c9a565b9050610e35565b7f000000000000000000000000000000000000000000000000000000000000000073ffffffffffffffffffffffffffffffffffffffff16637ff36ab586848630600f42610dcb9190611afd565b6040518663ffffffff1660e01b8152600401610dea9493929190611ce3565b60006040518083038185885af1158015610e08573d6000803e3d6000fd5b50505050506040513d6000823e3d601f19601f82011682018060405250810190610e329190611c9a565b90505b8060018451610e4491906119a6565b81518110610e5557610e54611ace565b5b602002602001015193505050509392505050565b6000807f000000000000000000000000000000000000000000000000000000000000000073ffffffffffffffffffffffffffffffffffffffff166338c789738a8a8a8a8a8a8a6040518863ffffffff1660e01b8152600401610ed19796959493929190611d4b565b6020604051808303816000875af1158015610ef0573d6000803e3d6000fd5b505050506040513d601f19601f82011682018060405250810190610f1491906115d3565b905080915050979650505050505050565b6060807f000000000000000000000000000000000000000000000000000000000000000073ffffffffffffffffffffffffffffffffffffffff168473ffffffffffffffffffffffffffffffffffffffff161480610fcd57507f000000000000000000000000000000000000000000000000000000000000000073ffffffffffffffffffffffffffffffffffffffff168373ffffffffffffffffffffffffffffffffffffffff16145b156110c157600267ffffffffffffffff811115610fed57610fec611a9f565b5b60405190808252806020026020018201604052801561101b5781602001602082028036833780820191505090505b509050838160008151811061103357611032611ace565b5b602002602001019073ffffffffffffffffffffffffffffffffffffffff16908173ffffffffffffffffffffffffffffffffffffffff1681525050828160018151811061108257611081611ace565b5b602002602001019073ffffffffffffffffffffffffffffffffffffffff16908173ffffffffffffffffffffffffffffffffffffffff168152505061121b565b600367ffffffffffffffff8111156110dc576110db611a9f565b5b60405190808252806020026020018201604052801561110a5781602001602082028036833780820191505090505b509050838160008151811061112257611121611ace565b5b602002602001019073ffffffffffffffffffffffffffffffffffffffff16908173ffffffffffffffffffffffffffffffffffffffff16815250507f00000000000000000000000000000000000000000000000000000000000000008160018151811061119157611190611ace565b5b602002602001019073ffffffffffffffffffffffffffffffffffffffff16908173ffffffffffffffffffffffffffffffffffffffff168152505082816002815181106111e0576111df611ace565b5b602002602001019073ffffffffffffffffffffffffffffffffffffffff16908173ffffffffffffffffffffffffffffffffffffffff16815250505b8091505092915050565b6000806112328585610f25565b905060007f000000000000000000000000000000000000000000000000000000000000000073ffffffffffffffffffffffffffffffffffffffff1663d06ca61f85846040518363ffffffff1660e01b8152600401611291929190611dba565b600060405180830381865afa1580156112ae573d6000803e3d6000fd5b505050506040513d6000823e3d601f19601f820116820180604052508101906112d79190611c9a565b905080600183516112e891906119a6565b815181106112f9576112f8611ace565b5b6020026020010151925050509392505050565b6000604051905090565b600080fd5b600080fd5b600080fd5b600080fd5b600080fd5b60008083601f84011261134557611344611320565b5b8235905067ffffffffffffffff81111561136257611361611325565b5b60208301915083600182028301111561137e5761137d61132a565b5b9250929050565b600073ffffffffffffffffffffffffffffffffffffffff82169050919050565b60006113b082611385565b9050919050565b6113c0816113a5565b81146113cb57600080fd5b50565b6000813590506113dd816113b7565b92915050565b6000819050919050565b6113f6816113e3565b811461140157600080fd5b50565b600081359050611413816113ed565b92915050565b600080600080600080600080600060e08a8c03121561143b5761143a611316565b5b60008a013567ffffffffffffffff8111156114595761145861131b565b5b6114658c828d0161132f565b995099505060208a013567ffffffffffffffff8111156114885761148761131b565b5b6114948c828d0161132f565b975097505060406114a78c828d016113ce565b95505060606114b88c828d016113ce565b94505060806114c98c828d01611404565b93505060a06114da8c828d01611404565b92505060c06114eb8c828d01611404565b9150509295985092959850929598565b60008060006060848603121561151457611513611316565b5b6000611522868287016113ce565b935050602061153386828701611404565b925050604061154486828701611404565b9150509250925092565b611557816113e3565b82525050565b6000602082019050611572600083018461154e565b92915050565b611581816113a5565b82525050565b600060608201905061159c6000830186611578565b6115a9602083018561154e565b6115b6604083018461154e565b949350505050565b6000815190506115cd816113ed565b92915050565b6000602082840312156115e9576115e8611316565b5b60006115f7848285016115be565b91505092915050565b600081519050919050565b600082825260208201905092915050565b6000819050602082019050919050565b611635816113a5565b82525050565b6000611647838361162c565b60208301905092915050565b6000602082019050919050565b600061166b82611600565b611675818561160b565b93506116808361161c565b8060005b838110156116b1578151611698888261163b565b97506116a383611653565b925050600181019050611684565b5085935050505092915050565b600060408201905081810360008301526116d88185611660565b90506116e7602083018461154e565b9392505050565b600082825260208201905092915050565b82818337600083830152505050565b6000601f19601f8301169050919050565b600061172b83856116ee565b93506117388385846116ff565b6117418361170e565b840190509392505050565b600081519050919050565b600082825260208201905092915050565b60005b8381101561178657808201518184015260208101905061176b565b60008484015250505050565b600061179d8261174c565b6117a78185611757565b93506117b7818560208601611768565b6117c08161170e565b840191505092915050565b7f61786c5553444300000000000000000000000000000000000000000000000000600082015250565b60006118016007836116ee565b915061180c826117cb565b602082019050919050565b600060e08201905061182c600083018b611578565b818103602083015261183f81898b61171f565b9050818103604083015261185481878961171f565b905081810360608301526118688186611792565b9050818103608083015261187b816117f4565b905061188a60a083018561154e565b61189760c0830184611578565b9998505050505050505050565b600060a08201905081810360008301526118bf81888a61171f565b905081810360208301526118d481868861171f565b905081810360408301526118e88185611792565b905081810360608301526118fb816117f4565b905061190a608083018461154e565b979650505050505050565b6000602082019050818103600083015261192e816117f4565b9050919050565b600081519050611944816113b7565b92915050565b6000602082840312156119605761195f611316565b5b600061196e84828501611935565b91505092915050565b7f4e487b7100000000000000000000000000000000000000000000000000000000600052601160045260246000fd5b60006119b1826113e3565b91506119bc836113e3565b92508282039050818111156119d4576119d3611977565b5b92915050565b60006040820190506119ef6000830185611578565b6119fc602083018461154e565b9392505050565b60008115159050919050565b611a1881611a03565b8114611a2357600080fd5b50565b600081519050611a3581611a0f565b92915050565b600060208284031215611a5157611a50611316565b5b6000611a5f84828501611a26565b91505092915050565b6000606082019050611a7d6000830186611578565b611a8a6020830185611578565b611a97604083018461154e565b949350505050565b7f4e487b7100000000000000000000000000000000000000000000000000000000600052604160045260246000fd5b7f4e487b7100000000000000000000000000000000000000000000000000000000600052603260045260246000fd5b6000611b08826113e3565b9150611b13836113e3565b9250828201905080821115611b2b57611b2a611977565b5b92915050565b600060a082019050611b46600083018861154e565b611b53602083018761154e565b8181036040830152611b658186611660565b9050611b746060830185611578565b611b81608083018461154e565b9695505050505050565b611b948261170e565b810181811067ffffffffffffffff82111715611bb357611bb2611a9f565b5b80604052505050565b6000611bc661130c565b9050611bd28282611b8b565b919050565b600067ffffffffffffffff821115611bf257611bf1611a9f565b5b602082029050602081019050919050565b6000611c16611c1184611bd7565b611bbc565b90508083825260208201905060208402830185811115611c3957611c3861132a565b5b835b81811015611c625780611c4e88826115be565b845260208401935050602081019050611c3b565b5050509392505050565b600082601f830112611c8157611c80611320565b5b8151611c91848260208601611c03565b91505092915050565b600060208284031215611cb057611caf611316565b5b600082015167ffffffffffffffff811115611cce57611ccd61131b565b5b611cda84828501611c6c565b91505092915050565b6000608082019050611cf8600083018761154e565b8181036020830152611d0a8186611660565b9050611d196040830185611578565b611d26606083018461154e565b95945050505050565b600060ff82169050919050565b611d4581611d2f565b82525050565b600060e082019050611d60600083018a611578565b611d6d6020830189611578565b611d7a6040830188611d3c565b611d876060830187611d3c565b611d94608083018661154e565b611da160a083018561154e565b611dae60c083018461154e565b98975050505050505050565b6000604082019050611dcf600083018561154e565b8181036020830152611de18184611660565b9050939250505056fea26469706673582212203b0985065f03a35817bce9fe67cce3c8dcff7259e16c4126bc6eb0918833754964736f6c63430008110033",
  "linkReferences": {},
  "deployedLinkReferences": {}
}