{
  "_format": "hh-sol-artifact-1",
  "contractName": "MessageSender",
  "sourceName": "contracts/MessageSender.sol",
  "abi": [
    {
      "inputs": [
        {
          "internalType": "address",
          "name": "_gateway",
          "type": "address"
        },
        {
          "internalType": "address",
          "name": "_gasReceiver",
          "type": "address"
        },
        {
          "internalType": "address",
          "name": "_curvePools",
          "type": "address"
        },
        {
          "internalType": "address",
          "name": "_router",
          "type": "address"
        },
        {
          "internalType": "address",
          "name": "_weth",
          "type": "address"
        },
        {
          "internalType": "address",
          "name": "_ausdc",
          "type": "address"
        }
      ],
      "stateMutability": "nonpayable",
      "type": "constructor"
    },
    {
      "inputs": [
        {
          "internalType": "string",
          "name": "destinationChain",
          "type": "string"
        },
        {
          "internalType": "string",
          "name": "destinationAddress",
          "type": "string"
        },
        {
          "internalType": "address",
          "name": "tokenIn",
          "type": "address"
        },
        {
          "internalType": "address",
          "name": "tokenOut",
          "type": "address"
        },
        {
          "internalType": "uint256",
          "name": "amount",
          "type": "uint256"
        },
        {
          "internalType": "uint256",
          "name": "amountGas",
          "type": "uint256"
        },
        {
          "internalType": "uint256",
          "name": "minAmount",
          "type": "uint256"
        }
      ],
      "name": "requestTransfersOut",
      "outputs": [],
      "stateMutability": "payable",
      "type": "function"
    }
  ],
  "bytecode": "0x6101406040523480156200001257600080fd5b50604051620020a3380380620020a38339818101604052810190620000389190620001e8565b8573ffffffffffffffffffffffffffffffffffffffff1660a08173ffffffffffffffffffffffffffffffffffffffff16815250508473ffffffffffffffffffffffffffffffffffffffff1660808173ffffffffffffffffffffffffffffffffffffffff16815250508373ffffffffffffffffffffffffffffffffffffffff1660c08173ffffffffffffffffffffffffffffffffffffffff16815250508273ffffffffffffffffffffffffffffffffffffffff1660e08173ffffffffffffffffffffffffffffffffffffffff16815250508173ffffffffffffffffffffffffffffffffffffffff166101008173ffffffffffffffffffffffffffffffffffffffff16815250508073ffffffffffffffffffffffffffffffffffffffff166101208173ffffffffffffffffffffffffffffffffffffffff168152505050505050505062000284565b600080fd5b600073ffffffffffffffffffffffffffffffffffffffff82169050919050565b6000620001b08262000183565b9050919050565b620001c281620001a3565b8114620001ce57600080fd5b50565b600081519050620001e281620001b7565b92915050565b60008060008060008060c087890312156200020857620002076200017e565b5b60006200021889828a01620001d1565b96505060206200022b89828a01620001d1565b95505060406200023e89828a01620001d1565b94505060606200025189828a01620001d1565b93505060806200026489828a01620001d1565b92505060a06200027789828a01620001d1565b9150509295509295509295565b60805160a05160c05160e0516101005161012051611d4c62000357600039600081816101380152818161016c01528181610448015281816107a201526107cb01526000818160df01528181610ee001528181610f35015261111401526000818161071901528181610ae001528181610b9c01526111ee0152600081816101a8015281816105380152818161080701528181610c890152610d33015260008181604301528181610264015281816103c0015281816105f4015281816108c30152610a13015260006109790152611d4c6000f3fe60806040526004361061001e5760003560e01c80631b11299714610023575b600080fd5b61003d600480360381019061003891906113cf565b61003f565b005b60007f000000000000000000000000000000000000000000000000000000000000000073ffffffffffffffffffffffffffffffffffffffff1663935b13f66040518163ffffffff1660e01b81526004016100989061150e565b602060405180830381865afa1580156100b5573d6000803e3d6000fd5b505050506040513d601f19601f820116820180604052508101906100d99190611543565b905060007f000000000000000000000000000000000000000000000000000000000000000073ffffffffffffffffffffffffffffffffffffffff168773ffffffffffffffffffffffffffffffffffffffff16036102eb576000610168887f00000000000000000000000000000000000000000000000000000000000000008789610163919061159f565b610ab4565b90507f000000000000000000000000000000000000000000000000000000000000000073ffffffffffffffffffffffffffffffffffffffff1663095ea7b37f0000000000000000000000000000000000000000000000000000000000000000836040518363ffffffff1660e01b81526004016101e59291906115f1565b6020604051808303816000875af1158015610204573d6000803e3d6000fd5b505050506040513d601f19601f820116820180604052508101906102289190611652565b50610244600160008361023e6001600087610c85565b30610d2e565b91508273ffffffffffffffffffffffffffffffffffffffff1663095ea7b37f0000000000000000000000000000000000000000000000000000000000000000846040518363ffffffff1660e01b81526004016102a19291906115f1565b6020604051808303816000875af11580156102c0573d6000803e3d6000fd5b505050506040513d601f19601f820116820180604052508101906102e49190611652565b5050610948565b8173ffffffffffffffffffffffffffffffffffffffff168773ffffffffffffffffffffffffffffffffffffffff1603610446578673ffffffffffffffffffffffffffffffffffffffff166323b872dd3330886040518463ffffffff1660e01b815260040161035b9392919061167f565b6020604051808303816000875af115801561037a573d6000803e3d6000fd5b505050506040513d601f19601f8201168201806040525081019061039e9190611652565b508490508173ffffffffffffffffffffffffffffffffffffffff1663095ea7b37f0000000000000000000000000000000000000000000000000000000000000000836040518363ffffffff1660e01b81526004016103fd9291906115f1565b6020604051808303816000875af115801561041c573d6000803e3d6000fd5b505050506040513d601f19601f820116820180604052508101906104409190611652565b50610947565b7f000000000000000000000000000000000000000000000000000000000000000073ffffffffffffffffffffffffffffffffffffffff168773ffffffffffffffffffffffffffffffffffffffff160361067a578673ffffffffffffffffffffffffffffffffffffffff166323b872dd3330886040518463ffffffff1660e01b81526004016104d69392919061167f565b6020604051808303816000875af11580156104f5573d6000803e3d6000fd5b505050506040513d601f19601f820116820180604052508101906105199190611652565b508673ffffffffffffffffffffffffffffffffffffffff1663095ea7b37f0000000000000000000000000000000000000000000000000000000000000000876040518363ffffffff1660e01b81526004016105759291906115f1565b6020604051808303816000875af1158015610594573d6000803e3d6000fd5b505050506040513d601f19601f820116820180604052508101906105b89190611652565b506105d460016000876105ce600160008b610c85565b30610d2e565b90508173ffffffffffffffffffffffffffffffffffffffff1663095ea7b37f0000000000000000000000000000000000000000000000000000000000000000836040518363ffffffff1660e01b81526004016106319291906115f1565b6020604051808303816000875af1158015610650573d6000803e3d6000fd5b505050506040513d601f19601f820116820180604052508101906106749190611652565b50610946565b8673ffffffffffffffffffffffffffffffffffffffff166323b872dd3330886040518463ffffffff1660e01b81526004016106b79392919061167f565b6020604051808303816000875af11580156106d6573d6000803e3d6000fd5b505050506040513d601f19601f820116820180604052508101906106fa9190611652565b508673ffffffffffffffffffffffffffffffffffffffff1663095ea7b37f0000000000000000000000000000000000000000000000000000000000000000876040518363ffffffff1660e01b81526004016107569291906115f1565b6020604051808303816000875af1158015610775573d6000803e3d6000fd5b505050506040513d601f19601f820116820180604052508101906107999190611652565b5060006107c7887f000000000000000000000000000000000000000000000000000000000000000088610ab4565b90507f000000000000000000000000000000000000000000000000000000000000000073ffffffffffffffffffffffffffffffffffffffff1663095ea7b37f0000000000000000000000000000000000000000000000000000000000000000836040518363ffffffff1660e01b81526004016108449291906115f1565b6020604051808303816000875af1158015610863573d6000803e3d6000fd5b505050506040513d601f19601f820116820180604052508101906108879190611652565b506108a3600160008361089d6001600087610c85565b30610d2e565b91508273ffffffffffffffffffffffffffffffffffffffff1663095ea7b37f0000000000000000000000000000000000000000000000000000000000000000846040518363ffffffff1660e01b81526004016109009291906115f1565b6020604051808303816000875af115801561091f573d6000803e3d6000fd5b505050506040513d601f19601f820116820180604052508101906109439190611652565b50505b5b5b60006109543388610de4565b84604051602001610966929190611774565b60405160208183030381529060405290507f000000000000000000000000000000000000000000000000000000000000000073ffffffffffffffffffffffffffffffffffffffff1663c62c200286308f8f8f8f888a336040518a63ffffffff1660e01b81526004016109df989796959493929190611870565b6000604051808303818588803b1580156109f857600080fd5b505af1158015610a0c573d6000803e3d6000fd5b50505050507f000000000000000000000000000000000000000000000000000000000000000073ffffffffffffffffffffffffffffffffffffffff1663b54170848d8d8d8d86886040518763ffffffff1660e01b8152600401610a74969594939291906118fd565b600060405180830381600087803b158015610a8e57600080fd5b505af1158015610aa2573d6000803e3d6000fd5b50505050505050505050505050505050565b600080610ac18585610edb565b90506000610ad08686866111db565b90506060600283511115610b9a577f000000000000000000000000000000000000000000000000000000000000000073ffffffffffffffffffffffffffffffffffffffff166338ed173986848630600f42610b2b919061196e565b6040518663ffffffff1660e01b8152600401610b4b9594939291906119a2565b6000604051808303816000875af1158015610b6a573d6000803e3d6000fd5b505050506040513d6000823e3d601f19601f82011682018060405250810190610b939190611b4f565b9050610c51565b7f000000000000000000000000000000000000000000000000000000000000000073ffffffffffffffffffffffffffffffffffffffff16637ff36ab586848630600f42610be7919061196e565b6040518663ffffffff1660e01b8152600401610c069493929190611b98565b60006040518083038185885af1158015610c24573d6000803e3d6000fd5b50505050506040513d6000823e3d601f19601f82011682018060405250810190610c4e9190611b4f565b90505b8060018451610c60919061159f565b81518110610c7157610c70611be4565b5b602002602001015193505050509392505050565b60007f000000000000000000000000000000000000000000000000000000000000000073ffffffffffffffffffffffffffffffffffffffff16635e0d443f8585856040518463ffffffff1660e01b8152600401610ce493929190611c2f565b602060405180830381865afa158015610d01573d6000803e3d6000fd5b505050506040513d601f19601f82011682018060405250810190610d259190611c66565b90509392505050565b6000807f000000000000000000000000000000000000000000000000000000000000000073ffffffffffffffffffffffffffffffffffffffff1663ddc1f59d88888888886040518663ffffffff1660e01b8152600401610d92959493929190611c93565b6020604051808303816000875af1158015610db1573d6000803e3d6000fd5b505050506040513d601f19601f82011682018060405250810190610dd59190611c66565b90508091505095945050505050565b606080600267ffffffffffffffff811115610e0257610e016119fc565b5b604051908082528060200260200182016040528015610e305781602001602082028036833780820191505090505b5090508381600081518110610e4857610e47611be4565b5b602002602001019073ffffffffffffffffffffffffffffffffffffffff16908173ffffffffffffffffffffffffffffffffffffffff16815250508281600181518110610e9757610e96611be4565b5b602002602001019073ffffffffffffffffffffffffffffffffffffffff16908173ffffffffffffffffffffffffffffffffffffffff16815250508091505092915050565b6060807f000000000000000000000000000000000000000000000000000000000000000073ffffffffffffffffffffffffffffffffffffffff168473ffffffffffffffffffffffffffffffffffffffff161480610f8357507f000000000000000000000000000000000000000000000000000000000000000073ffffffffffffffffffffffffffffffffffffffff168373ffffffffffffffffffffffffffffffffffffffff16145b1561107757600267ffffffffffffffff811115610fa357610fa26119fc565b5b604051908082528060200260200182016040528015610fd15781602001602082028036833780820191505090505b5090508381600081518110610fe957610fe8611be4565b5b602002602001019073ffffffffffffffffffffffffffffffffffffffff16908173ffffffffffffffffffffffffffffffffffffffff1681525050828160018151811061103857611037611be4565b5b602002602001019073ffffffffffffffffffffffffffffffffffffffff16908173ffffffffffffffffffffffffffffffffffffffff16815250506111d1565b600367ffffffffffffffff811115611092576110916119fc565b5b6040519080825280602002602001820160405280156110c05781602001602082028036833780820191505090505b50905083816000815181106110d8576110d7611be4565b5b602002602001019073ffffffffffffffffffffffffffffffffffffffff16908173ffffffffffffffffffffffffffffffffffffffff16815250507f00000000000000000000000000000000000000000000000000000000000000008160018151811061114757611146611be4565b5b602002602001019073ffffffffffffffffffffffffffffffffffffffff16908173ffffffffffffffffffffffffffffffffffffffff1681525050828160028151811061119657611195611be4565b5b602002602001019073ffffffffffffffffffffffffffffffffffffffff16908173ffffffffffffffffffffffffffffffffffffffff16815250505b8091505092915050565b6000806111e88585610edb565b905060007f000000000000000000000000000000000000000000000000000000000000000073ffffffffffffffffffffffffffffffffffffffff1663d06ca61f85846040518363ffffffff1660e01b8152600401611247929190611ce6565b600060405180830381865afa158015611264573d6000803e3d6000fd5b505050506040513d6000823e3d601f19601f8201168201806040525081019061128d9190611b4f565b9050806001835161129e919061159f565b815181106112af576112ae611be4565b5b6020026020010151925050509392505050565b6000604051905090565b600080fd5b600080fd5b600080fd5b600080fd5b600080fd5b60008083601f8401126112fb576112fa6112d6565b5b8235905067ffffffffffffffff811115611318576113176112db565b5b602083019150836001820283011115611334576113336112e0565b5b9250929050565b600073ffffffffffffffffffffffffffffffffffffffff82169050919050565b60006113668261133b565b9050919050565b6113768161135b565b811461138157600080fd5b50565b6000813590506113938161136d565b92915050565b6000819050919050565b6113ac81611399565b81146113b757600080fd5b50565b6000813590506113c9816113a3565b92915050565b600080600080600080600080600060e08a8c0312156113f1576113f06112cc565b5b60008a013567ffffffffffffffff81111561140f5761140e6112d1565b5b61141b8c828d016112e5565b995099505060208a013567ffffffffffffffff81111561143e5761143d6112d1565b5b61144a8c828d016112e5565b9750975050604061145d8c828d01611384565b955050606061146e8c828d01611384565b945050608061147f8c828d016113ba565b93505060a06114908c828d016113ba565b92505060c06114a18c828d016113ba565b9150509295985092959850929598565b600082825260208201905092915050565b7f61786c5553444300000000000000000000000000000000000000000000000000600082015250565b60006114f86007836114b1565b9150611503826114c2565b602082019050919050565b60006020820190508181036000830152611527816114eb565b9050919050565b60008151905061153d8161136d565b92915050565b600060208284031215611559576115586112cc565b5b60006115678482850161152e565b91505092915050565b7f4e487b7100000000000000000000000000000000000000000000000000000000600052601160045260246000fd5b60006115aa82611399565b91506115b583611399565b92508282039050818111156115cd576115cc611570565b5b92915050565b6115dc8161135b565b82525050565b6115eb81611399565b82525050565b600060408201905061160660008301856115d3565b61161360208301846115e2565b9392505050565b60008115159050919050565b61162f8161161a565b811461163a57600080fd5b50565b60008151905061164c81611626565b92915050565b600060208284031215611668576116676112cc565b5b60006116768482850161163d565b91505092915050565b600060608201905061169460008301866115d3565b6116a160208301856115d3565b6116ae60408301846115e2565b949350505050565b600081519050919050565b600082825260208201905092915050565b6000819050602082019050919050565b6116eb8161135b565b82525050565b60006116fd83836116e2565b60208301905092915050565b6000602082019050919050565b6000611721826116b6565b61172b81856116c1565b9350611736836116d2565b8060005b8381101561176757815161174e88826116f1565b975061175983611709565b92505060018101905061173a565b5085935050505092915050565b6000604082019050818103600083015261178e8185611716565b905061179d60208301846115e2565b9392505050565b82818337600083830152505050565b6000601f19601f8301169050919050565b60006117d083856114b1565b93506117dd8385846117a4565b6117e6836117b3565b840190509392505050565b600081519050919050565b600082825260208201905092915050565b60005b8381101561182b578082015181840152602081019050611810565b60008484015250505050565b6000611842826117f1565b61184c81856117fc565b935061185c81856020860161180d565b611865816117b3565b840191505092915050565b600060e082019050611885600083018b6115d3565b818103602083015261189881898b6117c4565b905081810360408301526118ad8187896117c4565b905081810360608301526118c18186611837565b905081810360808301526118d4816114eb565b90506118e360a08301856115e2565b6118f060c08301846115d3565b9998505050505050505050565b600060a082019050818103600083015261191881888a6117c4565b9050818103602083015261192d8186886117c4565b905081810360408301526119418185611837565b90508181036060830152611954816114eb565b905061196360808301846115e2565b979650505050505050565b600061197982611399565b915061198483611399565b925082820190508082111561199c5761199b611570565b5b92915050565b600060a0820190506119b760008301886115e2565b6119c460208301876115e2565b81810360408301526119d68186611716565b90506119e560608301856115d3565b6119f260808301846115e2565b9695505050505050565b7f4e487b7100000000000000000000000000000000000000000000000000000000600052604160045260246000fd5b611a34826117b3565b810181811067ffffffffffffffff82111715611a5357611a526119fc565b5b80604052505050565b6000611a666112c2565b9050611a728282611a2b565b919050565b600067ffffffffffffffff821115611a9257611a916119fc565b5b602082029050602081019050919050565b600081519050611ab2816113a3565b92915050565b6000611acb611ac684611a77565b611a5c565b90508083825260208201905060208402830185811115611aee57611aed6112e0565b5b835b81811015611b175780611b038882611aa3565b845260208401935050602081019050611af0565b5050509392505050565b600082601f830112611b3657611b356112d6565b5b8151611b46848260208601611ab8565b91505092915050565b600060208284031215611b6557611b646112cc565b5b600082015167ffffffffffffffff811115611b8357611b826112d1565b5b611b8f84828501611b21565b91505092915050565b6000608082019050611bad60008301876115e2565b8181036020830152611bbf8186611716565b9050611bce60408301856115d3565b611bdb60608301846115e2565b95945050505050565b7f4e487b7100000000000000000000000000000000000000000000000000000000600052603260045260246000fd5b600081600f0b9050919050565b611c2981611c13565b82525050565b6000606082019050611c446000830186611c20565b611c516020830185611c20565b611c5e60408301846115e2565b949350505050565b600060208284031215611c7c57611c7b6112cc565b5b6000611c8a84828501611aa3565b91505092915050565b600060a082019050611ca86000830188611c20565b611cb56020830187611c20565b611cc260408301866115e2565b611ccf60608301856115e2565b611cdc60808301846115d3565b9695505050505050565b6000604082019050611cfb60008301856115e2565b8181036020830152611d0d8184611716565b9050939250505056fea2646970667358221220f175bb60cb20527f96d6b4534548dd59ec0e2b31842ed5eb3550e35fe645f52764736f6c63430008110033",
  "linkReferences": {},
  "deployedLinkReferences": {}
}