{
  "_format": "hh-sol-artifact-1",
  "contractName": "MessageReceiver",
  "sourceName": "contracts/MessageReceiverMoonbeam.sol",
  "abi": [
    {
      "inputs": [
        {
          "internalType": "address",
          "name": "_gateway",
          "type": "address"
        },
        {
          "internalType": "address",
          "name": "_gasReceiver",
          "type": "address"
        },
        {
          "internalType": "address",
          "name": "_curvePools",
          "type": "address"
        },
        {
          "internalType": "address",
          "name": "_router",
          "type": "address"
        },
        {
          "internalType": "address",
          "name": "_weth",
          "type": "address"
        },
        {
          "internalType": "address",
          "name": "_ausdc",
          "type": "address"
        }
      ],
      "stateMutability": "nonpayable",
      "type": "constructor"
    },
    {
      "inputs": [],
      "name": "InvalidAddress",
      "type": "error"
    },
    {
      "inputs": [],
      "name": "NotApprovedByGateway",
      "type": "error"
    },
    {
      "anonymous": false,
      "inputs": [],
      "name": "Executed",
      "type": "event"
    },
    {
      "inputs": [
        {
          "internalType": "address",
          "name": "pool",
          "type": "address"
        },
        {
          "internalType": "address",
          "name": "basePool",
          "type": "address"
        },
        {
          "internalType": "uint8",
          "name": "tokenIndexFrom",
          "type": "uint8"
        },
        {
          "internalType": "uint8",
          "name": "tokenIndexTo",
          "type": "uint8"
        },
        {
          "internalType": "uint256",
          "name": "dx",
          "type": "uint256"
        },
        {
          "internalType": "uint256",
          "name": "minDy",
          "type": "uint256"
        },
        {
          "internalType": "uint256",
          "name": "deadline",
          "type": "uint256"
        }
      ],
      "name": "ExchangeToken",
      "outputs": [
        {
          "internalType": "uint256",
          "name": "",
          "type": "uint256"
        }
      ],
      "stateMutability": "nonpayable",
      "type": "function"
    },
    {
      "inputs": [
        {
          "internalType": "bytes32",
          "name": "commandId",
          "type": "bytes32"
        },
        {
          "internalType": "string",
          "name": "sourceChain",
          "type": "string"
        },
        {
          "internalType": "string",
          "name": "sourceAddress",
          "type": "string"
        },
        {
          "internalType": "bytes",
          "name": "payload",
          "type": "bytes"
        }
      ],
      "name": "execute",
      "outputs": [],
      "stateMutability": "nonpayable",
      "type": "function"
    },
    {
      "inputs": [
        {
          "internalType": "bytes32",
          "name": "commandId",
          "type": "bytes32"
        },
        {
          "internalType": "string",
          "name": "sourceChain",
          "type": "string"
        },
        {
          "internalType": "string",
          "name": "sourceAddress",
          "type": "string"
        },
        {
          "internalType": "bytes",
          "name": "payload",
          "type": "bytes"
        },
        {
          "internalType": "string",
          "name": "tokenSymbol",
          "type": "string"
        },
        {
          "internalType": "uint256",
          "name": "amount",
          "type": "uint256"
        }
      ],
      "name": "executeWithToken",
      "outputs": [],
      "stateMutability": "nonpayable",
      "type": "function"
    },
    {
      "inputs": [],
      "name": "gateway",
      "outputs": [
        {
          "internalType": "contract IAxelarGateway",
          "name": "",
          "type": "address"
        }
      ],
      "stateMutability": "view",
      "type": "function"
    },
    {
      "inputs": [
        {
          "internalType": "address",
          "name": "pool",
          "type": "address"
        },
        {
          "internalType": "address",
          "name": "basePool",
          "type": "address"
        },
        {
          "internalType": "uint8",
          "name": "tokenIndexFrom",
          "type": "uint8"
        },
        {
          "internalType": "uint8",
          "name": "tokenIndexTo",
          "type": "uint8"
        },
        {
          "internalType": "uint256",
          "name": "dx",
          "type": "uint256"
        }
      ],
      "name": "getRateExchangeUSDC",
      "outputs": [
        {
          "internalType": "uint256",
          "name": "",
          "type": "uint256"
        }
      ],
      "stateMutability": "view",
      "type": "function"
    },
    {
      "inputs": [
        {
          "internalType": "address",
          "name": "tokenOut",
          "type": "address"
        },
        {
          "internalType": "address",
          "name": "tokenAddress",
          "type": "address"
        },
        {
          "internalType": "address",
          "name": "recipient",
          "type": "address"
        },
        {
          "internalType": "uint256",
          "name": "requestAmount",
          "type": "uint256"
        },
        {
          "internalType": "uint256",
          "name": "amount",
          "type": "uint256"
        }
      ],
      "name": "receivedAndSwap",
      "outputs": [
        {
          "internalType": "uint256",
          "name": "",
          "type": "uint256"
        }
      ],
      "stateMutability": "nonpayable",
      "type": "function"
    }
  ],
  "bytecode": "0x6101406040523480156200001257600080fd5b50604051620026db380380620026db833981810160405281019062000038919062000251565b85600073ffffffffffffffffffffffffffffffffffffffff168173ffffffffffffffffffffffffffffffffffffffff1603620000a0576040517fe6c4247b00000000000000000000000000000000000000000000000000000000815260040160405180910390fd5b8073ffffffffffffffffffffffffffffffffffffffff1660808173ffffffffffffffffffffffffffffffffffffffff1681525050508473ffffffffffffffffffffffffffffffffffffffff1660a08173ffffffffffffffffffffffffffffffffffffffff16815250508373ffffffffffffffffffffffffffffffffffffffff1660c08173ffffffffffffffffffffffffffffffffffffffff16815250508273ffffffffffffffffffffffffffffffffffffffff1660e08173ffffffffffffffffffffffffffffffffffffffff16815250508173ffffffffffffffffffffffffffffffffffffffff166101008173ffffffffffffffffffffffffffffffffffffffff16815250508073ffffffffffffffffffffffffffffffffffffffff166101208173ffffffffffffffffffffffffffffffffffffffff1681525050505050505050620002ed565b600080fd5b600073ffffffffffffffffffffffffffffffffffffffff82169050919050565b60006200021982620001ec565b9050919050565b6200022b816200020c565b81146200023757600080fd5b50565b6000815190506200024b8162000220565b92915050565b60008060008060008060c08789031215620002715762000270620001e7565b5b60006200028189828a016200023a565b96505060206200029489828a016200023a565b9550506040620002a789828a016200023a565b9450506060620002ba89828a016200023a565b9350506080620002cd89828a016200023a565b92505060a0620002e089828a016200023a565b9150509295509295509295565b60805160a05160c05160e051610100516101205161232a620003b1600039600081816101860152818161030301528181610573015281816106510152818161096d0152610a9a0152600081816103a7015281816105e201526109dc01526000818161068d0152818161071001528181610ad60152610b590152600081816101f5015281816104160152818161081001528181610e9d0152610f5801526000505060008181610c4a01528181610c8a01528181610da6015261105d015261232a6000f3fe608060405234801561001057600080fd5b50600436106100625760003560e01c8063105aa25a14610067578063116191b6146100975780631a98b2e0146100b557806349160658146100d1578063b3f94b62146100ed578063c39ceda91461011d575b600080fd5b610081600480360381019061007c91906113ad565b61014d565b60405161008e9190611437565b60405180910390f35b61009f610c48565b6040516100ac91906114b1565b60405180910390f35b6100cf60048036038101906100ca91906115bd565b610c6c565b005b6100eb60048036038101906100e691906116cd565b610d88565b005b610107600480360381019061010291906117cf565b610e98565b6040516101149190611437565b60405180910390f35b61013760048036038101906101329190611871565b610f54565b6040516101449190611437565b60405180910390f35b6000806060600073b1bc9f56103175193519ae1540a0a4572b1566f69050600073a1ffdc79f998e7fa91ba3a6f098b84c9275b048390507f000000000000000000000000000000000000000000000000000000000000000073ffffffffffffffffffffffffffffffffffffffff168a73ffffffffffffffffffffffffffffffffffffffff16036103a5578873ffffffffffffffffffffffffffffffffffffffff1663095ea7b37f0000000000000000000000000000000000000000000000000000000000000000886040518363ffffffff1660e01b81526004016102329291906118fb565b6020604051808303816000875af1158015610251573d6000803e3d6000fd5b505050506040513d601f19601f82011682018060405250810190610275919061195c565b503073ffffffffffffffffffffffffffffffffffffffff1663b3f94b6282846000808b8d426040518863ffffffff1660e01b81526004016102bc97969594939291906119c4565b6020604051808303816000875af11580156102db573d6000803e3d6000fd5b505050506040513d601f19601f820116820180604052508101906102ff9190611a48565b93507f000000000000000000000000000000000000000000000000000000000000000073ffffffffffffffffffffffffffffffffffffffff1663a9059cbb89866040518363ffffffff1660e01b815260040161035c9291906118fb565b6020604051808303816000875af115801561037b573d6000803e3d6000fd5b505050506040513d601f19601f8201168201806040525081019061039f919061195c565b50610c38565b7f000000000000000000000000000000000000000000000000000000000000000073ffffffffffffffffffffffffffffffffffffffff168a73ffffffffffffffffffffffffffffffffffffffff16036107f2578873ffffffffffffffffffffffffffffffffffffffff1663095ea7b37f0000000000000000000000000000000000000000000000000000000000000000886040518363ffffffff1660e01b81526004016104539291906118fb565b6020604051808303816000875af1158015610472573d6000803e3d6000fd5b505050506040513d601f19601f82011682018060405250810190610496919061195c565b5060003073ffffffffffffffffffffffffffffffffffffffff1663b3f94b6283856000808c6000426040518863ffffffff1660e01b81526004016104e09796959493929190611aa6565b6020604051808303816000875af11580156104ff573d6000803e3d6000fd5b505050506040513d601f19601f820116820180604052508101906105239190611a48565b9050600267ffffffffffffffff8111156105405761053f611b15565b5b60405190808252806020026020018201604052801561056e5781602001602082028036833780820191505090505b5093507f0000000000000000000000000000000000000000000000000000000000000000846000815181106105a6576105a5611b44565b5b602002602001019073ffffffffffffffffffffffffffffffffffffffff16908173ffffffffffffffffffffffffffffffffffffffff16815250507f00000000000000000000000000000000000000000000000000000000000000008460018151811061061557610614611b44565b5b602002602001019073ffffffffffffffffffffffffffffffffffffffff16908173ffffffffffffffffffffffffffffffffffffffff16815250507f000000000000000000000000000000000000000000000000000000000000000073ffffffffffffffffffffffffffffffffffffffff1663095ea7b37f0000000000000000000000000000000000000000000000000000000000000000836040518363ffffffff1660e01b81526004016106ca9291906118fb565b6020604051808303816000875af11580156106e9573d6000803e3d6000fd5b505050506040513d601f19601f8201168201806040525081019061070d919061195c565b507f000000000000000000000000000000000000000000000000000000000000000073ffffffffffffffffffffffffffffffffffffffff166318cbafe5828a878d600f4261075b9190611ba2565b6040518663ffffffff1660e01b815260040161077b959493929190611c94565b6000604051808303816000875af115801561079a573d6000803e3d6000fd5b505050506040513d6000823e3d601f19601f820116820180604052508101906107c39190611e0e565b600185516107d19190611e57565b815181106107e2576107e1611b44565b5b6020026020010151945050610c37565b8873ffffffffffffffffffffffffffffffffffffffff1663095ea7b37f0000000000000000000000000000000000000000000000000000000000000000886040518363ffffffff1660e01b815260040161084d9291906118fb565b6020604051808303816000875af115801561086c573d6000803e3d6000fd5b505050506040513d601f19601f82011682018060405250810190610890919061195c565b5060003073ffffffffffffffffffffffffffffffffffffffff1663b3f94b6283856000808c6000426040518863ffffffff1660e01b81526004016108da9796959493929190611aa6565b6020604051808303816000875af11580156108f9573d6000803e3d6000fd5b505050506040513d601f19601f8201168201806040525081019061091d9190611a48565b9050600367ffffffffffffffff81111561093a57610939611b15565b5b6040519080825280602002602001820160405280156109685781602001602082028036833780820191505090505b5093507f0000000000000000000000000000000000000000000000000000000000000000846000815181106109a05761099f611b44565b5b602002602001019073ffffffffffffffffffffffffffffffffffffffff16908173ffffffffffffffffffffffffffffffffffffffff16815250507f000000000000000000000000000000000000000000000000000000000000000084600181518110610a0f57610a0e611b44565b5b602002602001019073ffffffffffffffffffffffffffffffffffffffff16908173ffffffffffffffffffffffffffffffffffffffff16815250508a84600281518110610a5e57610a5d611b44565b5b602002602001019073ffffffffffffffffffffffffffffffffffffffff16908173ffffffffffffffffffffffffffffffffffffffff16815250507f000000000000000000000000000000000000000000000000000000000000000073ffffffffffffffffffffffffffffffffffffffff1663095ea7b37f0000000000000000000000000000000000000000000000000000000000000000836040518363ffffffff1660e01b8152600401610b139291906118fb565b6020604051808303816000875af1158015610b32573d6000803e3d6000fd5b505050506040513d601f19601f82011682018060405250810190610b56919061195c565b507f000000000000000000000000000000000000000000000000000000000000000073ffffffffffffffffffffffffffffffffffffffff166338ed1739828a878d600f42610ba49190611ba2565b6040518663ffffffff1660e01b8152600401610bc4959493929190611c94565b6000604051808303816000875af1158015610be3573d6000803e3d6000fd5b505050506040513d6000823e3d601f19601f82011682018060405250810190610c0c9190611e0e565b60018551610c1a9190611e57565b81518110610c2b57610c2a611b44565b5b60200260200101519450505b5b8394505050505095945050505050565b7f000000000000000000000000000000000000000000000000000000000000000081565b60008585604051610c7e929190611eca565b604051809103902090507f000000000000000000000000000000000000000000000000000000000000000073ffffffffffffffffffffffffffffffffffffffff16631876eed98c8c8c8c8c878b8b8b6040518a63ffffffff1660e01b8152600401610cf199989796959493929190611f30565b6020604051808303816000875af1158015610d10573d6000803e3d6000fd5b505050506040513d601f19601f82011682018060405250810190610d34919061195c565b610d6a576040517f500c44b400000000000000000000000000000000000000000000000000000000815260040160405180910390fd5b610d7b8a8a8a8a8a8a8a8a8a611003565b5050505050505050505050565b60008282604051610d9a929190611eca565b604051809103902090507f000000000000000000000000000000000000000000000000000000000000000073ffffffffffffffffffffffffffffffffffffffff16635f6970c38989898989876040518763ffffffff1660e01b8152600401610e0796959493929190611fac565b6020604051808303816000875af1158015610e26573d6000803e3d6000fd5b505050506040513d601f19601f82011682018060405250810190610e4a919061195c565b610e80576040517f500c44b400000000000000000000000000000000000000000000000000000000815260040160405180910390fd5b610e8e8787878787876112fd565b5050505050505050565b6000807f000000000000000000000000000000000000000000000000000000000000000073ffffffffffffffffffffffffffffffffffffffff1663ff9693228a8a8a8a8a8a8a6040518863ffffffff1660e01b8152600401610f009796959493929190612012565b6020604051808303816000875af1158015610f1f573d6000803e3d6000fd5b505050506040513d601f19601f82011682018060405250810190610f439190611a48565b905080915050979650505050505050565b60007f000000000000000000000000000000000000000000000000000000000000000073ffffffffffffffffffffffffffffffffffffffff16633214b8c987878787876040518663ffffffff1660e01b8152600401610fb7959493929190612081565b602060405180830381865afa158015610fd4573d6000803e3d6000fd5b505050506040513d601f19601f82011682018060405250810190610ff89190611a48565b905095945050505050565b60008086868101906110159190612197565b9150915060008260008151811061102f5761102e611b44565b5b6020026020010151905060008360018151811061104f5761104e611b44565b5b6020026020010151905060007f000000000000000000000000000000000000000000000000000000000000000073ffffffffffffffffffffffffffffffffffffffff1663935b13f66040518163ffffffff1660e01b81526004016110b29061223f565b602060405180830381865afa1580156110cf573d6000803e3d6000fd5b505050506040513d601f19601f820116820180604052508101906110f39190612274565b90508073ffffffffffffffffffffffffffffffffffffffff168273ffffffffffffffffffffffffffffffffffffffff16036111ac578073ffffffffffffffffffffffffffffffffffffffff1663a9059cbb84886040518363ffffffff1660e01b81526004016111639291906118fb565b6020604051808303816000875af1158015611182573d6000803e3d6000fd5b505050506040513d601f19601f820116820180604052508101906111a6919061195c565b506112c1565b3073ffffffffffffffffffffffffffffffffffffffff1663105aa25a838386888b6040518663ffffffff1660e01b81526004016111ed9594939291906122a1565b6020604051808303816000875af192505050801561122957506040513d601f19601f820116820180604052508101906112269190611a48565b60015b6112b1578073ffffffffffffffffffffffffffffffffffffffff1663a9059cbb84886040518363ffffffff1660e01b81526004016112689291906118fb565b6020604051808303816000875af1158015611287573d6000803e3d6000fd5b505050506040513d601f19601f820116820180604052508101906112ab919061195c565b506112c0565b848110156112be57600080fd5b505b5b7f68f46c45a243a0e9065a97649faf9a5afe1692f2679e650c2f853b9cd734cc0e60405160405180910390a15050505050505050505050505050565b505050505050565b6000604051905090565b600080fd5b600080fd5b600073ffffffffffffffffffffffffffffffffffffffff82169050919050565b600061134482611319565b9050919050565b61135481611339565b811461135f57600080fd5b50565b6000813590506113718161134b565b92915050565b6000819050919050565b61138a81611377565b811461139557600080fd5b50565b6000813590506113a781611381565b92915050565b600080600080600060a086880312156113c9576113c861130f565b5b60006113d788828901611362565b95505060206113e888828901611362565b94505060406113f988828901611362565b935050606061140a88828901611398565b925050608061141b88828901611398565b9150509295509295909350565b61143181611377565b82525050565b600060208201905061144c6000830184611428565b92915050565b6000819050919050565b600061147761147261146d84611319565b611452565b611319565b9050919050565b60006114898261145c565b9050919050565b600061149b8261147e565b9050919050565b6114ab81611490565b82525050565b60006020820190506114c660008301846114a2565b92915050565b6000819050919050565b6114df816114cc565b81146114ea57600080fd5b50565b6000813590506114fc816114d6565b92915050565b600080fd5b600080fd5b600080fd5b60008083601f84011261152757611526611502565b5b8235905067ffffffffffffffff81111561154457611543611507565b5b6020830191508360018202830111156115605761155f61150c565b5b9250929050565b60008083601f84011261157d5761157c611502565b5b8235905067ffffffffffffffff81111561159a57611599611507565b5b6020830191508360018202830111156115b6576115b561150c565b5b9250929050565b60008060008060008060008060008060c08b8d0312156115e0576115df61130f565b5b60006115ee8d828e016114ed565b9a505060208b013567ffffffffffffffff81111561160f5761160e611314565b5b61161b8d828e01611511565b995099505060408b013567ffffffffffffffff81111561163e5761163d611314565b5b61164a8d828e01611511565b975097505060608b013567ffffffffffffffff81111561166d5761166c611314565b5b6116798d828e01611567565b955095505060808b013567ffffffffffffffff81111561169c5761169b611314565b5b6116a88d828e01611511565b935093505060a06116bb8d828e01611398565b9150509295989b9194979a5092959850565b60008060008060008060006080888a0312156116ec576116eb61130f565b5b60006116fa8a828b016114ed565b975050602088013567ffffffffffffffff81111561171b5761171a611314565b5b6117278a828b01611511565b9650965050604088013567ffffffffffffffff81111561174a57611749611314565b5b6117568a828b01611511565b9450945050606088013567ffffffffffffffff81111561177957611778611314565b5b6117858a828b01611567565b925092505092959891949750929550565b600060ff82169050919050565b6117ac81611796565b81146117b757600080fd5b50565b6000813590506117c9816117a3565b92915050565b600080600080600080600060e0888a0312156117ee576117ed61130f565b5b60006117fc8a828b01611362565b975050602061180d8a828b01611362565b965050604061181e8a828b016117ba565b955050606061182f8a828b016117ba565b94505060806118408a828b01611398565b93505060a06118518a828b01611398565b92505060c06118628a828b01611398565b91505092959891949750929550565b600080600080600060a0868803121561188d5761188c61130f565b5b600061189b88828901611362565b95505060206118ac88828901611362565b94505060406118bd888289016117ba565b93505060606118ce888289016117ba565b92505060806118df88828901611398565b9150509295509295909350565b6118f581611339565b82525050565b600060408201905061191060008301856118ec565b61191d6020830184611428565b9392505050565b60008115159050919050565b61193981611924565b811461194457600080fd5b50565b60008151905061195681611930565b92915050565b6000602082840312156119725761197161130f565b5b600061198084828501611947565b91505092915050565b6000819050919050565b60006119ae6119a96119a484611989565b611452565b611796565b9050919050565b6119be81611993565b82525050565b600060e0820190506119d9600083018a6118ec565b6119e660208301896118ec565b6119f360408301886119b5565b611a0060608301876119b5565b611a0d6080830186611428565b611a1a60a0830185611428565b611a2760c0830184611428565b98975050505050505050565b600081519050611a4281611381565b92915050565b600060208284031215611a5e57611a5d61130f565b5b6000611a6c84828501611a33565b91505092915050565b6000611a90611a8b611a8684611989565b611452565b611377565b9050919050565b611aa081611a75565b82525050565b600060e082019050611abb600083018a6118ec565b611ac860208301896118ec565b611ad560408301886119b5565b611ae260608301876119b5565b611aef6080830186611428565b611afc60a0830185611a97565b611b0960c0830184611428565b98975050505050505050565b7f4e487b7100000000000000000000000000000000000000000000000000000000600052604160045260246000fd5b7f4e487b7100000000000000000000000000000000000000000000000000000000600052603260045260246000fd5b7f4e487b7100000000000000000000000000000000000000000000000000000000600052601160045260246000fd5b6000611bad82611377565b9150611bb883611377565b9250828201905080821115611bd057611bcf611b73565b5b92915050565b600081519050919050565b600082825260208201905092915050565b6000819050602082019050919050565b611c0b81611339565b82525050565b6000611c1d8383611c02565b60208301905092915050565b6000602082019050919050565b6000611c4182611bd6565b611c4b8185611be1565b9350611c5683611bf2565b8060005b83811015611c87578151611c6e8882611c11565b9750611c7983611c29565b925050600181019050611c5a565b5085935050505092915050565b600060a082019050611ca96000830188611428565b611cb66020830187611428565b8181036040830152611cc88186611c36565b9050611cd760608301856118ec565b611ce46080830184611428565b9695505050505050565b6000601f19601f8301169050919050565b611d0882611cee565b810181811067ffffffffffffffff82111715611d2757611d26611b15565b5b80604052505050565b6000611d3a611305565b9050611d468282611cff565b919050565b600067ffffffffffffffff821115611d6657611d65611b15565b5b602082029050602081019050919050565b6000611d8a611d8584611d4b565b611d30565b90508083825260208201905060208402830185811115611dad57611dac61150c565b5b835b81811015611dd65780611dc28882611a33565b845260208401935050602081019050611daf565b5050509392505050565b600082601f830112611df557611df4611502565b5b8151611e05848260208601611d77565b91505092915050565b600060208284031215611e2457611e2361130f565b5b600082015167ffffffffffffffff811115611e4257611e41611314565b5b611e4e84828501611de0565b91505092915050565b6000611e6282611377565b9150611e6d83611377565b9250828203905081811115611e8557611e84611b73565b5b92915050565b600081905092915050565b82818337600083830152505050565b6000611eb18385611e8b565b9350611ebe838584611e96565b82840190509392505050565b6000611ed7828486611ea5565b91508190509392505050565b611eec816114cc565b82525050565b600082825260208201905092915050565b6000611f0f8385611ef2565b9350611f1c838584611e96565b611f2583611cee565b840190509392505050565b600060c082019050611f45600083018c611ee3565b8181036020830152611f58818a8c611f03565b90508181036040830152611f6d81888a611f03565b9050611f7c6060830187611ee3565b8181036080830152611f8f818587611f03565b9050611f9e60a0830184611428565b9a9950505050505050505050565b6000608082019050611fc16000830189611ee3565b8181036020830152611fd4818789611f03565b90508181036040830152611fe9818587611f03565b9050611ff86060830184611ee3565b979650505050505050565b61200c81611796565b82525050565b600060e082019050612027600083018a6118ec565b61203460208301896118ec565b6120416040830188612003565b61204e6060830187612003565b61205b6080830186611428565b61206860a0830185611428565b61207560c0830184611428565b98975050505050505050565b600060a08201905061209660008301886118ec565b6120a360208301876118ec565b6120b06040830186612003565b6120bd6060830185612003565b6120ca6080830184611428565b9695505050505050565b600067ffffffffffffffff8211156120ef576120ee611b15565b5b602082029050602081019050919050565b600061211361210e846120d4565b611d30565b905080838252602082019050602084028301858111156121365761213561150c565b5b835b8181101561215f578061214b8882611362565b845260208401935050602081019050612138565b5050509392505050565b600082601f83011261217e5761217d611502565b5b813561218e848260208601612100565b91505092915050565b600080604083850312156121ae576121ad61130f565b5b600083013567ffffffffffffffff8111156121cc576121cb611314565b5b6121d885828601612169565b92505060206121e985828601611398565b9150509250929050565b7f61786c5553444300000000000000000000000000000000000000000000000000600082015250565b6000612229600783611ef2565b9150612234826121f3565b602082019050919050565b600060208201905081810360008301526122588161221c565b9050919050565b60008151905061226e8161134b565b92915050565b60006020828403121561228a5761228961130f565b5b60006122988482850161225f565b91505092915050565b600060a0820190506122b660008301886118ec565b6122c360208301876118ec565b6122d060408301866118ec565b6122dd6060830185611428565b6122ea6080830184611428565b969550505050505056fea26469706673582212209fd6cbdf202592e9a895f832ac7a7f590284c55e2264af3f183eadb16bf3cdc264736f6c63430008110033",
  "linkReferences": {},
  "deployedLinkReferences": {}
}