{
  "_format": "hh-sol-artifact-1",
  "contractName": "MessageReceiver",
  "sourceName": "contracts/MessageReceiverMoonbeam.sol",
  "abi": [
    {
      "inputs": [
        {
          "internalType": "address",
          "name": "_gateway",
          "type": "address"
        },
        {
          "internalType": "address",
          "name": "_gasReceiver",
          "type": "address"
        },
        {
          "internalType": "address",
          "name": "_curvePools",
          "type": "address"
        },
        {
          "internalType": "address",
          "name": "_router",
          "type": "address"
        },
        {
          "internalType": "address",
          "name": "_weth",
          "type": "address"
        },
        {
          "internalType": "address",
          "name": "_ausdc",
          "type": "address"
        }
      ],
      "stateMutability": "nonpayable",
      "type": "constructor"
    },
    {
      "inputs": [],
      "name": "InvalidAddress",
      "type": "error"
    },
    {
      "inputs": [],
      "name": "NotApprovedByGateway",
      "type": "error"
    },
    {
      "anonymous": false,
      "inputs": [],
      "name": "Executed",
      "type": "event"
    },
    {
      "inputs": [
        {
          "internalType": "address",
          "name": "pool",
          "type": "address"
        },
        {
          "internalType": "address",
          "name": "basePool",
          "type": "address"
        },
        {
          "internalType": "uint8",
          "name": "tokenIndexFrom",
          "type": "uint8"
        },
        {
          "internalType": "uint8",
          "name": "tokenIndexTo",
          "type": "uint8"
        },
        {
          "internalType": "uint256",
          "name": "dx",
          "type": "uint256"
        },
        {
          "internalType": "uint256",
          "name": "minDy",
          "type": "uint256"
        },
        {
          "internalType": "uint256",
          "name": "deadline",
          "type": "uint256"
        }
      ],
      "name": "ExchangeToken",
      "outputs": [
        {
          "internalType": "uint256",
          "name": "",
          "type": "uint256"
        }
      ],
      "stateMutability": "nonpayable",
      "type": "function"
    },
    {
      "inputs": [
        {
          "internalType": "bytes32",
          "name": "commandId",
          "type": "bytes32"
        },
        {
          "internalType": "string",
          "name": "sourceChain",
          "type": "string"
        },
        {
          "internalType": "string",
          "name": "sourceAddress",
          "type": "string"
        },
        {
          "internalType": "bytes",
          "name": "payload",
          "type": "bytes"
        }
      ],
      "name": "execute",
      "outputs": [],
      "stateMutability": "nonpayable",
      "type": "function"
    },
    {
      "inputs": [
        {
          "internalType": "bytes32",
          "name": "commandId",
          "type": "bytes32"
        },
        {
          "internalType": "string",
          "name": "sourceChain",
          "type": "string"
        },
        {
          "internalType": "string",
          "name": "sourceAddress",
          "type": "string"
        },
        {
          "internalType": "bytes",
          "name": "payload",
          "type": "bytes"
        },
        {
          "internalType": "string",
          "name": "tokenSymbol",
          "type": "string"
        },
        {
          "internalType": "uint256",
          "name": "amount",
          "type": "uint256"
        }
      ],
      "name": "executeWithToken",
      "outputs": [],
      "stateMutability": "nonpayable",
      "type": "function"
    },
    {
      "inputs": [],
      "name": "gateway",
      "outputs": [
        {
          "internalType": "contract IAxelarGateway",
          "name": "",
          "type": "address"
        }
      ],
      "stateMutability": "view",
      "type": "function"
    },
    {
      "inputs": [
        {
          "internalType": "address",
          "name": "pool",
          "type": "address"
        },
        {
          "internalType": "address",
          "name": "basePool",
          "type": "address"
        },
        {
          "internalType": "uint8",
          "name": "tokenIndexFrom",
          "type": "uint8"
        },
        {
          "internalType": "uint8",
          "name": "tokenIndexTo",
          "type": "uint8"
        },
        {
          "internalType": "uint256",
          "name": "dx",
          "type": "uint256"
        }
      ],
      "name": "getRateExchangeUSDC",
      "outputs": [
        {
          "internalType": "uint256",
          "name": "",
          "type": "uint256"
        }
      ],
      "stateMutability": "view",
      "type": "function"
    },
    {
      "inputs": [
        {
          "internalType": "address",
          "name": "tokenOut",
          "type": "address"
        },
        {
          "internalType": "address",
          "name": "tokenAddress",
          "type": "address"
        },
        {
          "internalType": "address",
          "name": "recipient",
          "type": "address"
        },
        {
          "internalType": "uint256",
          "name": "requestAmount",
          "type": "uint256"
        },
        {
          "internalType": "uint256",
          "name": "amount",
          "type": "uint256"
        }
      ],
      "name": "receivedAndSwap",
      "outputs": [
        {
          "internalType": "uint256",
          "name": "",
          "type": "uint256"
        }
      ],
      "stateMutability": "nonpayable",
      "type": "function"
    }
  ],
  "bytecode": "0x6101406040523480156200001257600080fd5b506040516200284538038062002845833981810160405281019062000038919062000251565b85600073ffffffffffffffffffffffffffffffffffffffff168173ffffffffffffffffffffffffffffffffffffffff1603620000a0576040517fe6c4247b00000000000000000000000000000000000000000000000000000000815260040160405180910390fd5b8073ffffffffffffffffffffffffffffffffffffffff1660808173ffffffffffffffffffffffffffffffffffffffff1681525050508473ffffffffffffffffffffffffffffffffffffffff1660a08173ffffffffffffffffffffffffffffffffffffffff16815250508373ffffffffffffffffffffffffffffffffffffffff1660c08173ffffffffffffffffffffffffffffffffffffffff16815250508273ffffffffffffffffffffffffffffffffffffffff1660e08173ffffffffffffffffffffffffffffffffffffffff16815250508173ffffffffffffffffffffffffffffffffffffffff166101008173ffffffffffffffffffffffffffffffffffffffff16815250508073ffffffffffffffffffffffffffffffffffffffff166101208173ffffffffffffffffffffffffffffffffffffffff1681525050505050505050620002ed565b600080fd5b600073ffffffffffffffffffffffffffffffffffffffff82169050919050565b60006200021982620001ec565b9050919050565b6200022b816200020c565b81146200023757600080fd5b50565b6000815190506200024b8162000220565b92915050565b60008060008060008060c08789031215620002715762000270620001e7565b5b60006200028189828a016200023a565b96505060206200029489828a016200023a565b9550506040620002a789828a016200023a565b9450506060620002ba89828a016200023a565b9350506080620002cd89828a016200023a565b92505060a0620002e089828a016200023a565b9150509295509295509295565b60805160a05160c05160e0516101005161012051612471620003d46000396000818161016d0152818161030a015281816106400152818161071e01528181610b010152610c2e0152600081816103ae015281816106af0152610b7001526000818161075a015281816107dd01528181610c6a0152610ced0152600081816101dc0152818161027b0152818161041d015281816104be01528181610565015281816108de0152818161097f01528181610a260152818161103101526110ec01526000505060008181610dde01528181610e1e01528181610f3a01526111f101526124716000f3fe608060405234801561001057600080fd5b50600436106100625760003560e01c8063105aa25a14610067578063116191b6146100975780631a98b2e0146100b557806349160658146100d1578063b3f94b62146100ed578063c39ceda91461011d575b600080fd5b610081600480360381019061007c9190611541565b61014d565b60405161008e91906115cb565b60405180910390f35b61009f610ddc565b6040516100ac9190611645565b60405180910390f35b6100cf60048036038101906100ca9190611751565b610e00565b005b6100eb60048036038101906100e69190611861565b610f1c565b005b61010760048036038101906101029190611963565b61102c565b60405161011491906115cb565b60405180910390f35b61013760048036038101906101329190611a05565b6110e8565b60405161014491906115cb565b60405180910390f35b6000806060600073b1bc9f56103175193519ae1540a0a4572b1566f690507f000000000000000000000000000000000000000000000000000000000000000073ffffffffffffffffffffffffffffffffffffffff168973ffffffffffffffffffffffffffffffffffffffff16036103ac578773ffffffffffffffffffffffffffffffffffffffff1663095ea7b37f0000000000000000000000000000000000000000000000000000000000000000876040518363ffffffff1660e01b8152600401610219929190611a8f565b6020604051808303816000875af1158015610238573d6000803e3d6000fd5b505050506040513d601f19601f8201168201806040525081019061025c9190611af0565b503073ffffffffffffffffffffffffffffffffffffffff1663b3f94b627f0000000000000000000000000000000000000000000000000000000000000000836000808a8c426040518863ffffffff1660e01b81526004016102c39796959493929190611b58565b6020604051808303816000875af11580156102e2573d6000803e3d6000fd5b505050506040513d601f19601f820116820180604052508101906103069190611bdc565b92507f000000000000000000000000000000000000000000000000000000000000000073ffffffffffffffffffffffffffffffffffffffff1663a9059cbb88856040518363ffffffff1660e01b8152600401610363929190611a8f565b6020604051808303816000875af1158015610382573d6000803e3d6000fd5b505050506040513d601f19601f820116820180604052508101906103a69190611af0565b50610dcd565b7f000000000000000000000000000000000000000000000000000000000000000073ffffffffffffffffffffffffffffffffffffffff168973ffffffffffffffffffffffffffffffffffffffff16036108c0578773ffffffffffffffffffffffffffffffffffffffff1663095ea7b37f0000000000000000000000000000000000000000000000000000000000000000876040518363ffffffff1660e01b815260040161045a929190611a8f565b6020604051808303816000875af1158015610479573d6000803e3d6000fd5b505050506040513d601f19601f8201168201806040525081019061049d9190611af0565b5060003073ffffffffffffffffffffffffffffffffffffffff1663c39ceda97f0000000000000000000000000000000000000000000000000000000000000000846000808b6040518663ffffffff1660e01b8152600401610502959493929190611c09565b602060405180830381865afa15801561051f573d6000803e3d6000fd5b505050506040513d601f19601f820116820180604052508101906105439190611bdc565b905060003073ffffffffffffffffffffffffffffffffffffffff1663b3f94b627f0000000000000000000000000000000000000000000000000000000000000000856000808c88426040518863ffffffff1660e01b81526004016105ad9796959493929190611b58565b6020604051808303816000875af11580156105cc573d6000803e3d6000fd5b505050506040513d601f19601f820116820180604052508101906105f09190611bdc565b9050600267ffffffffffffffff81111561060d5761060c611c5c565b5b60405190808252806020026020018201604052801561063b5781602001602082028036833780820191505090505b5093507f00000000000000000000000000000000000000000000000000000000000000008460008151811061067357610672611c8b565b5b602002602001019073ffffffffffffffffffffffffffffffffffffffff16908173ffffffffffffffffffffffffffffffffffffffff16815250507f0000000000000000000000000000000000000000000000000000000000000000846001815181106106e2576106e1611c8b565b5b602002602001019073ffffffffffffffffffffffffffffffffffffffff16908173ffffffffffffffffffffffffffffffffffffffff16815250507f000000000000000000000000000000000000000000000000000000000000000073ffffffffffffffffffffffffffffffffffffffff1663095ea7b37f0000000000000000000000000000000000000000000000000000000000000000836040518363ffffffff1660e01b8152600401610797929190611a8f565b6020604051808303816000875af11580156107b6573d6000803e3d6000fd5b505050506040513d601f19601f820116820180604052508101906107da9190611af0565b507f000000000000000000000000000000000000000000000000000000000000000073ffffffffffffffffffffffffffffffffffffffff166318cbafe5828a878d600f426108289190611ce9565b6040518663ffffffff1660e01b8152600401610848959493929190611ddb565b6000604051808303816000875af1158015610867573d6000803e3d6000fd5b505050506040513d6000823e3d601f19601f820116820180604052508101906108909190611f55565b6001855161089e9190611f9e565b815181106108af576108ae611c8b565b5b602002602001015194505050610dcc565b8773ffffffffffffffffffffffffffffffffffffffff1663095ea7b37f0000000000000000000000000000000000000000000000000000000000000000876040518363ffffffff1660e01b815260040161091b929190611a8f565b6020604051808303816000875af115801561093a573d6000803e3d6000fd5b505050506040513d601f19601f8201168201806040525081019061095e9190611af0565b5060003073ffffffffffffffffffffffffffffffffffffffff1663c39ceda97f0000000000000000000000000000000000000000000000000000000000000000846000808b6040518663ffffffff1660e01b81526004016109c3959493929190611c09565b602060405180830381865afa1580156109e0573d6000803e3d6000fd5b505050506040513d601f19601f82011682018060405250810190610a049190611bdc565b905060003073ffffffffffffffffffffffffffffffffffffffff1663b3f94b627f0000000000000000000000000000000000000000000000000000000000000000856000808c88426040518863ffffffff1660e01b8152600401610a6e9796959493929190611b58565b6020604051808303816000875af1158015610a8d573d6000803e3d6000fd5b505050506040513d601f19601f82011682018060405250810190610ab19190611bdc565b9050600367ffffffffffffffff811115610ace57610acd611c5c565b5b604051908082528060200260200182016040528015610afc5781602001602082028036833780820191505090505b5093507f000000000000000000000000000000000000000000000000000000000000000084600081518110610b3457610b33611c8b565b5b602002602001019073ffffffffffffffffffffffffffffffffffffffff16908173ffffffffffffffffffffffffffffffffffffffff16815250507f000000000000000000000000000000000000000000000000000000000000000084600181518110610ba357610ba2611c8b565b5b602002602001019073ffffffffffffffffffffffffffffffffffffffff16908173ffffffffffffffffffffffffffffffffffffffff16815250508a84600281518110610bf257610bf1611c8b565b5b602002602001019073ffffffffffffffffffffffffffffffffffffffff16908173ffffffffffffffffffffffffffffffffffffffff16815250507f000000000000000000000000000000000000000000000000000000000000000073ffffffffffffffffffffffffffffffffffffffff1663095ea7b37f0000000000000000000000000000000000000000000000000000000000000000836040518363ffffffff1660e01b8152600401610ca7929190611a8f565b6020604051808303816000875af1158015610cc6573d6000803e3d6000fd5b505050506040513d601f19601f82011682018060405250810190610cea9190611af0565b507f000000000000000000000000000000000000000000000000000000000000000073ffffffffffffffffffffffffffffffffffffffff166338ed1739828a878d600f42610d389190611ce9565b6040518663ffffffff1660e01b8152600401610d58959493929190611ddb565b6000604051808303816000875af1158015610d77573d6000803e3d6000fd5b505050506040513d6000823e3d601f19601f82011682018060405250810190610da09190611f55565b60018551610dae9190611f9e565b81518110610dbf57610dbe611c8b565b5b6020026020010151945050505b5b82935050505095945050505050565b7f000000000000000000000000000000000000000000000000000000000000000081565b60008585604051610e12929190612011565b604051809103902090507f000000000000000000000000000000000000000000000000000000000000000073ffffffffffffffffffffffffffffffffffffffff16631876eed98c8c8c8c8c878b8b8b6040518a63ffffffff1660e01b8152600401610e8599989796959493929190612077565b6020604051808303816000875af1158015610ea4573d6000803e3d6000fd5b505050506040513d601f19601f82011682018060405250810190610ec89190611af0565b610efe576040517f500c44b400000000000000000000000000000000000000000000000000000000815260040160405180910390fd5b610f0f8a8a8a8a8a8a8a8a8a611197565b5050505050505050505050565b60008282604051610f2e929190612011565b604051809103902090507f000000000000000000000000000000000000000000000000000000000000000073ffffffffffffffffffffffffffffffffffffffff16635f6970c38989898989876040518763ffffffff1660e01b8152600401610f9b969594939291906120f3565b6020604051808303816000875af1158015610fba573d6000803e3d6000fd5b505050506040513d601f19601f82011682018060405250810190610fde9190611af0565b611014576040517f500c44b400000000000000000000000000000000000000000000000000000000815260040160405180910390fd5b611022878787878787611491565b5050505050505050565b6000807f000000000000000000000000000000000000000000000000000000000000000073ffffffffffffffffffffffffffffffffffffffff1663ff9693228a8a8a8a8a8a8a6040518863ffffffff1660e01b81526004016110949796959493929190612159565b6020604051808303816000875af11580156110b3573d6000803e3d6000fd5b505050506040513d601f19601f820116820180604052508101906110d79190611bdc565b905080915050979650505050505050565b60007f000000000000000000000000000000000000000000000000000000000000000073ffffffffffffffffffffffffffffffffffffffff16633214b8c987878787876040518663ffffffff1660e01b815260040161114b9594939291906121c8565b602060405180830381865afa158015611168573d6000803e3d6000fd5b505050506040513d601f19601f8201168201806040525081019061118c9190611bdc565b905095945050505050565b60008086868101906111a991906122de565b915091506000826000815181106111c3576111c2611c8b565b5b602002602001015190506000836001815181106111e3576111e2611c8b565b5b6020026020010151905060007f000000000000000000000000000000000000000000000000000000000000000073ffffffffffffffffffffffffffffffffffffffff1663935b13f66040518163ffffffff1660e01b815260040161124690612386565b602060405180830381865afa158015611263573d6000803e3d6000fd5b505050506040513d601f19601f8201168201806040525081019061128791906123bb565b90508073ffffffffffffffffffffffffffffffffffffffff168273ffffffffffffffffffffffffffffffffffffffff1603611340578073ffffffffffffffffffffffffffffffffffffffff1663a9059cbb84886040518363ffffffff1660e01b81526004016112f7929190611a8f565b6020604051808303816000875af1158015611316573d6000803e3d6000fd5b505050506040513d601f19601f8201168201806040525081019061133a9190611af0565b50611455565b3073ffffffffffffffffffffffffffffffffffffffff1663105aa25a838386888b6040518663ffffffff1660e01b81526004016113819594939291906123e8565b6020604051808303816000875af19250505080156113bd57506040513d601f19601f820116820180604052508101906113ba9190611bdc565b60015b611445578073ffffffffffffffffffffffffffffffffffffffff1663a9059cbb84886040518363ffffffff1660e01b81526004016113fc929190611a8f565b6020604051808303816000875af115801561141b573d6000803e3d6000fd5b505050506040513d601f19601f8201168201806040525081019061143f9190611af0565b50611454565b8481101561145257600080fd5b505b5b7f68f46c45a243a0e9065a97649faf9a5afe1692f2679e650c2f853b9cd734cc0e60405160405180910390a15050505050505050505050505050565b505050505050565b6000604051905090565b600080fd5b600080fd5b600073ffffffffffffffffffffffffffffffffffffffff82169050919050565b60006114d8826114ad565b9050919050565b6114e8816114cd565b81146114f357600080fd5b50565b600081359050611505816114df565b92915050565b6000819050919050565b61151e8161150b565b811461152957600080fd5b50565b60008135905061153b81611515565b92915050565b600080600080600060a0868803121561155d5761155c6114a3565b5b600061156b888289016114f6565b955050602061157c888289016114f6565b945050604061158d888289016114f6565b935050606061159e8882890161152c565b92505060806115af8882890161152c565b9150509295509295909350565b6115c58161150b565b82525050565b60006020820190506115e060008301846115bc565b92915050565b6000819050919050565b600061160b611606611601846114ad565b6115e6565b6114ad565b9050919050565b600061161d826115f0565b9050919050565b600061162f82611612565b9050919050565b61163f81611624565b82525050565b600060208201905061165a6000830184611636565b92915050565b6000819050919050565b61167381611660565b811461167e57600080fd5b50565b6000813590506116908161166a565b92915050565b600080fd5b600080fd5b600080fd5b60008083601f8401126116bb576116ba611696565b5b8235905067ffffffffffffffff8111156116d8576116d761169b565b5b6020830191508360018202830111156116f4576116f36116a0565b5b9250929050565b60008083601f84011261171157611710611696565b5b8235905067ffffffffffffffff81111561172e5761172d61169b565b5b60208301915083600182028301111561174a576117496116a0565b5b9250929050565b60008060008060008060008060008060c08b8d031215611774576117736114a3565b5b60006117828d828e01611681565b9a505060208b013567ffffffffffffffff8111156117a3576117a26114a8565b5b6117af8d828e016116a5565b995099505060408b013567ffffffffffffffff8111156117d2576117d16114a8565b5b6117de8d828e016116a5565b975097505060608b013567ffffffffffffffff811115611801576118006114a8565b5b61180d8d828e016116fb565b955095505060808b013567ffffffffffffffff8111156118305761182f6114a8565b5b61183c8d828e016116a5565b935093505060a061184f8d828e0161152c565b9150509295989b9194979a5092959850565b60008060008060008060006080888a0312156118805761187f6114a3565b5b600061188e8a828b01611681565b975050602088013567ffffffffffffffff8111156118af576118ae6114a8565b5b6118bb8a828b016116a5565b9650965050604088013567ffffffffffffffff8111156118de576118dd6114a8565b5b6118ea8a828b016116a5565b9450945050606088013567ffffffffffffffff81111561190d5761190c6114a8565b5b6119198a828b016116fb565b925092505092959891949750929550565b600060ff82169050919050565b6119408161192a565b811461194b57600080fd5b50565b60008135905061195d81611937565b92915050565b600080600080600080600060e0888a031215611982576119816114a3565b5b60006119908a828b016114f6565b97505060206119a18a828b016114f6565b96505060406119b28a828b0161194e565b95505060606119c38a828b0161194e565b94505060806119d48a828b0161152c565b93505060a06119e58a828b0161152c565b92505060c06119f68a828b0161152c565b91505092959891949750929550565b600080600080600060a08688031215611a2157611a206114a3565b5b6000611a2f888289016114f6565b9550506020611a40888289016114f6565b9450506040611a518882890161194e565b9350506060611a628882890161194e565b9250506080611a738882890161152c565b9150509295509295909350565b611a89816114cd565b82525050565b6000604082019050611aa46000830185611a80565b611ab160208301846115bc565b9392505050565b60008115159050919050565b611acd81611ab8565b8114611ad857600080fd5b50565b600081519050611aea81611ac4565b92915050565b600060208284031215611b0657611b056114a3565b5b6000611b1484828501611adb565b91505092915050565b6000819050919050565b6000611b42611b3d611b3884611b1d565b6115e6565b61192a565b9050919050565b611b5281611b27565b82525050565b600060e082019050611b6d600083018a611a80565b611b7a6020830189611a80565b611b876040830188611b49565b611b946060830187611b49565b611ba160808301866115bc565b611bae60a08301856115bc565b611bbb60c08301846115bc565b98975050505050505050565b600081519050611bd681611515565b92915050565b600060208284031215611bf257611bf16114a3565b5b6000611c0084828501611bc7565b91505092915050565b600060a082019050611c1e6000830188611a80565b611c2b6020830187611a80565b611c386040830186611b49565b611c456060830185611b49565b611c5260808301846115bc565b9695505050505050565b7f4e487b7100000000000000000000000000000000000000000000000000000000600052604160045260246000fd5b7f4e487b7100000000000000000000000000000000000000000000000000000000600052603260045260246000fd5b7f4e487b7100000000000000000000000000000000000000000000000000000000600052601160045260246000fd5b6000611cf48261150b565b9150611cff8361150b565b9250828201905080821115611d1757611d16611cba565b5b92915050565b600081519050919050565b600082825260208201905092915050565b6000819050602082019050919050565b611d52816114cd565b82525050565b6000611d648383611d49565b60208301905092915050565b6000602082019050919050565b6000611d8882611d1d565b611d928185611d28565b9350611d9d83611d39565b8060005b83811015611dce578151611db58882611d58565b9750611dc083611d70565b925050600181019050611da1565b5085935050505092915050565b600060a082019050611df060008301886115bc565b611dfd60208301876115bc565b8181036040830152611e0f8186611d7d565b9050611e1e6060830185611a80565b611e2b60808301846115bc565b9695505050505050565b6000601f19601f8301169050919050565b611e4f82611e35565b810181811067ffffffffffffffff82111715611e6e57611e6d611c5c565b5b80604052505050565b6000611e81611499565b9050611e8d8282611e46565b919050565b600067ffffffffffffffff821115611ead57611eac611c5c565b5b602082029050602081019050919050565b6000611ed1611ecc84611e92565b611e77565b90508083825260208201905060208402830185811115611ef457611ef36116a0565b5b835b81811015611f1d5780611f098882611bc7565b845260208401935050602081019050611ef6565b5050509392505050565b600082601f830112611f3c57611f3b611696565b5b8151611f4c848260208601611ebe565b91505092915050565b600060208284031215611f6b57611f6a6114a3565b5b600082015167ffffffffffffffff811115611f8957611f886114a8565b5b611f9584828501611f27565b91505092915050565b6000611fa98261150b565b9150611fb48361150b565b9250828203905081811115611fcc57611fcb611cba565b5b92915050565b600081905092915050565b82818337600083830152505050565b6000611ff88385611fd2565b9350612005838584611fdd565b82840190509392505050565b600061201e828486611fec565b91508190509392505050565b61203381611660565b82525050565b600082825260208201905092915050565b60006120568385612039565b9350612063838584611fdd565b61206c83611e35565b840190509392505050565b600060c08201905061208c600083018c61202a565b818103602083015261209f818a8c61204a565b905081810360408301526120b481888a61204a565b90506120c3606083018761202a565b81810360808301526120d681858761204a565b90506120e560a08301846115bc565b9a9950505050505050505050565b6000608082019050612108600083018961202a565b818103602083015261211b81878961204a565b9050818103604083015261213081858761204a565b905061213f606083018461202a565b979650505050505050565b6121538161192a565b82525050565b600060e08201905061216e600083018a611a80565b61217b6020830189611a80565b612188604083018861214a565b612195606083018761214a565b6121a260808301866115bc565b6121af60a08301856115bc565b6121bc60c08301846115bc565b98975050505050505050565b600060a0820190506121dd6000830188611a80565b6121ea6020830187611a80565b6121f7604083018661214a565b612204606083018561214a565b61221160808301846115bc565b9695505050505050565b600067ffffffffffffffff82111561223657612235611c5c565b5b602082029050602081019050919050565b600061225a6122558461221b565b611e77565b9050808382526020820190506020840283018581111561227d5761227c6116a0565b5b835b818110156122a6578061229288826114f6565b84526020840193505060208101905061227f565b5050509392505050565b600082601f8301126122c5576122c4611696565b5b81356122d5848260208601612247565b91505092915050565b600080604083850312156122f5576122f46114a3565b5b600083013567ffffffffffffffff811115612313576123126114a8565b5b61231f858286016122b0565b92505060206123308582860161152c565b9150509250929050565b7f61786c5553444300000000000000000000000000000000000000000000000000600082015250565b6000612370600783612039565b915061237b8261233a565b602082019050919050565b6000602082019050818103600083015261239f81612363565b9050919050565b6000815190506123b5816114df565b92915050565b6000602082840312156123d1576123d06114a3565b5b60006123df848285016123a6565b91505092915050565b600060a0820190506123fd6000830188611a80565b61240a6020830187611a80565b6124176040830186611a80565b61242460608301856115bc565b61243160808301846115bc565b969550505050505056fea2646970667358221220832295ddc56faffbeee1621da89da9de6bb12d5676d4bf2997a188d03e3f49b964736f6c63430008110033",
  "linkReferences": {},
  "deployedLinkReferences": {}
}