{
  "_format": "hh-sol-artifact-1",
  "contractName": "MessageReceiver",
  "sourceName": "contracts/MessageReceiver.sol",
  "abi": [
    {
      "inputs": [
        {
          "internalType": "address",
          "name": "_gateway",
          "type": "address"
        },
        {
          "internalType": "address",
          "name": "_gasReceiver",
          "type": "address"
        },
        {
          "internalType": "address",
          "name": "_curvePools",
          "type": "address"
        },
        {
          "internalType": "address",
          "name": "_router",
          "type": "address"
        },
        {
          "internalType": "address",
          "name": "_weth",
          "type": "address"
        },
        {
          "internalType": "address",
          "name": "_ausdc",
          "type": "address"
        }
      ],
      "stateMutability": "nonpayable",
      "type": "constructor"
    },
    {
      "inputs": [],
      "name": "InvalidAddress",
      "type": "error"
    },
    {
      "inputs": [],
      "name": "NotApprovedByGateway",
      "type": "error"
    },
    {
      "anonymous": false,
      "inputs": [],
      "name": "Executed",
      "type": "event"
    },
    {
      "inputs": [
        {
          "internalType": "int128",
          "name": "i",
          "type": "int128"
        },
        {
          "internalType": "int128",
          "name": "j",
          "type": "int128"
        },
        {
          "internalType": "uint256",
          "name": "_dx",
          "type": "uint256"
        },
        {
          "internalType": "uint256",
          "name": "_min_dy",
          "type": "uint256"
        },
        {
          "internalType": "address",
          "name": "_receiver",
          "type": "address"
        }
      ],
      "name": "ExchangeToken",
      "outputs": [
        {
          "internalType": "uint256",
          "name": "",
          "type": "uint256"
        }
      ],
      "stateMutability": "nonpayable",
      "type": "function"
    },
    {
      "inputs": [
        {
          "internalType": "bytes32",
          "name": "commandId",
          "type": "bytes32"
        },
        {
          "internalType": "string",
          "name": "sourceChain",
          "type": "string"
        },
        {
          "internalType": "string",
          "name": "sourceAddress",
          "type": "string"
        },
        {
          "internalType": "bytes",
          "name": "payload",
          "type": "bytes"
        }
      ],
      "name": "execute",
      "outputs": [],
      "stateMutability": "nonpayable",
      "type": "function"
    },
    {
      "inputs": [
        {
          "internalType": "bytes32",
          "name": "commandId",
          "type": "bytes32"
        },
        {
          "internalType": "string",
          "name": "sourceChain",
          "type": "string"
        },
        {
          "internalType": "string",
          "name": "sourceAddress",
          "type": "string"
        },
        {
          "internalType": "bytes",
          "name": "payload",
          "type": "bytes"
        },
        {
          "internalType": "string",
          "name": "tokenSymbol",
          "type": "string"
        },
        {
          "internalType": "uint256",
          "name": "amount",
          "type": "uint256"
        }
      ],
      "name": "executeWithToken",
      "outputs": [],
      "stateMutability": "nonpayable",
      "type": "function"
    },
    {
      "inputs": [],
      "name": "gateway",
      "outputs": [
        {
          "internalType": "contract IAxelarGateway",
          "name": "",
          "type": "address"
        }
      ],
      "stateMutability": "view",
      "type": "function"
    },
    {
      "inputs": [
        {
          "internalType": "address",
          "name": "tokenOut",
          "type": "address"
        },
        {
          "internalType": "address",
          "name": "tokenAddress",
          "type": "address"
        },
        {
          "internalType": "address",
          "name": "recipient",
          "type": "address"
        },
        {
          "internalType": "uint256",
          "name": "requestAmount",
          "type": "uint256"
        },
        {
          "internalType": "uint256",
          "name": "amount",
          "type": "uint256"
        }
      ],
      "name": "receivedAndSwap",
      "outputs": [
        {
          "internalType": "uint256",
          "name": "",
          "type": "uint256"
        }
      ],
      "stateMutability": "nonpayable",
      "type": "function"
    }
  ],
  "bytecode": "0x6101406040523480156200001257600080fd5b506040516200246c3803806200246c833981810160405281019062000038919062000251565b85600073ffffffffffffffffffffffffffffffffffffffff168173ffffffffffffffffffffffffffffffffffffffff1603620000a0576040517fe6c4247b00000000000000000000000000000000000000000000000000000000815260040160405180910390fd5b8073ffffffffffffffffffffffffffffffffffffffff1660808173ffffffffffffffffffffffffffffffffffffffff1681525050508473ffffffffffffffffffffffffffffffffffffffff1660a08173ffffffffffffffffffffffffffffffffffffffff16815250508373ffffffffffffffffffffffffffffffffffffffff1660c08173ffffffffffffffffffffffffffffffffffffffff16815250508273ffffffffffffffffffffffffffffffffffffffff1660e08173ffffffffffffffffffffffffffffffffffffffff16815250508173ffffffffffffffffffffffffffffffffffffffff166101008173ffffffffffffffffffffffffffffffffffffffff16815250508073ffffffffffffffffffffffffffffffffffffffff166101208173ffffffffffffffffffffffffffffffffffffffff1681525050505050505050620002ed565b600080fd5b600073ffffffffffffffffffffffffffffffffffffffff82169050919050565b60006200021982620001ec565b9050919050565b6200022b816200020c565b81146200023757600080fd5b50565b6000815190506200024b8162000220565b92915050565b60008060008060008060c08789031215620002715762000270620001e7565b5b60006200028189828a016200023a565b96505060206200029489828a016200023a565b9550506040620002a789828a016200023a565b9450506060620002ba89828a016200023a565b9350506080620002cd89828a016200023a565b92505060a0620002e089828a016200023a565b9150509295509295509295565b60805160a05160c05160e05161010051610120516120c2620003aa600039600081816101190152818161046c0152818161054a0152818161086e015261099b015260008181610298015281816104db01526108dd01526000818161058601528181610609015281816109d70152610a5a015260008181610188015281816103070152818161070901528181610d9c0152610e5101526000505060008181610b4901528181610b8901528181610ca50152610f5001526120c26000f3fe608060405234801561001057600080fd5b50600436106100575760003560e01c8063105aa25a1461005c578063116191b61461008c5780631a98b2e0146100aa57806349160658146100c6578063f10d098e146100e2575b600080fd5b610076600480360381019061007191906112a0565b610112565b604051610083919061132a565b60405180910390f35b610094610b47565b6040516100a191906113a4565b60405180910390f35b6100c460048036038101906100bf91906114b0565b610b6b565b005b6100e060048036038101906100db91906115c0565b610c87565b005b6100fc60048036038101906100f791906116c2565b610d97565b604051610109919061132a565b60405180910390f35b60008060607f000000000000000000000000000000000000000000000000000000000000000073ffffffffffffffffffffffffffffffffffffffff168873ffffffffffffffffffffffffffffffffffffffff1603610296578673ffffffffffffffffffffffffffffffffffffffff1663095ea7b37f0000000000000000000000000000000000000000000000000000000000000000866040518363ffffffff1660e01b81526004016101c592919061174c565b6020604051808303816000875af11580156101e4573d6000803e3d6000fd5b505050506040513d601f19601f8201168201806040525081019061020891906117ad565b503073ffffffffffffffffffffffffffffffffffffffff1663f10d098e6000600187898b6040518663ffffffff1660e01b815260040161024c959493929190611850565b6020604051808303816000875af115801561026b573d6000803e3d6000fd5b505050506040513d601f19601f8201168201806040525081019061028f91906118b8565b9150610b39565b7f000000000000000000000000000000000000000000000000000000000000000073ffffffffffffffffffffffffffffffffffffffff168873ffffffffffffffffffffffffffffffffffffffff16036106eb578673ffffffffffffffffffffffffffffffffffffffff1663095ea7b37f0000000000000000000000000000000000000000000000000000000000000000866040518363ffffffff1660e01b815260040161034492919061174c565b6020604051808303816000875af1158015610363573d6000803e3d6000fd5b505050506040513d601f19601f8201168201806040525081019061038791906117ad565b5060003073ffffffffffffffffffffffffffffffffffffffff1663f10d098e60006001886103b8600060018c610e4d565b306040518663ffffffff1660e01b81526004016103d9959493929190611850565b6020604051808303816000875af11580156103f8573d6000803e3d6000fd5b505050506040513d601f19601f8201168201806040525081019061041c91906118b8565b9050600267ffffffffffffffff811115610439576104386118e5565b5b6040519080825280602002602001820160405280156104675781602001602082028036833780820191505090505b5091507f00000000000000000000000000000000000000000000000000000000000000008260008151811061049f5761049e611914565b5b602002602001019073ffffffffffffffffffffffffffffffffffffffff16908173ffffffffffffffffffffffffffffffffffffffff16815250507f00000000000000000000000000000000000000000000000000000000000000008260018151811061050e5761050d611914565b5b602002602001019073ffffffffffffffffffffffffffffffffffffffff16908173ffffffffffffffffffffffffffffffffffffffff16815250507f000000000000000000000000000000000000000000000000000000000000000073ffffffffffffffffffffffffffffffffffffffff1663095ea7b37f0000000000000000000000000000000000000000000000000000000000000000836040518363ffffffff1660e01b81526004016105c392919061174c565b6020604051808303816000875af11580156105e2573d6000803e3d6000fd5b505050506040513d601f19601f8201168201806040525081019061060691906117ad565b507f000000000000000000000000000000000000000000000000000000000000000073ffffffffffffffffffffffffffffffffffffffff166318cbafe58288858b600f426106549190611972565b6040518663ffffffff1660e01b8152600401610674959493929190611a64565b6000604051808303816000875af1158015610693573d6000803e3d6000fd5b505050506040513d6000823e3d601f19601f820116820180604052508101906106bc9190611bde565b600183516106ca9190611c27565b815181106106db576106da611914565b5b6020026020010151925050610b38565b8673ffffffffffffffffffffffffffffffffffffffff1663095ea7b37f0000000000000000000000000000000000000000000000000000000000000000866040518363ffffffff1660e01b815260040161074692919061174c565b6020604051808303816000875af1158015610765573d6000803e3d6000fd5b505050506040513d601f19601f8201168201806040525081019061078991906117ad565b5060003073ffffffffffffffffffffffffffffffffffffffff1663f10d098e60006001886107ba600060018c610e4d565b306040518663ffffffff1660e01b81526004016107db959493929190611850565b6020604051808303816000875af11580156107fa573d6000803e3d6000fd5b505050506040513d601f19601f8201168201806040525081019061081e91906118b8565b9050600367ffffffffffffffff81111561083b5761083a6118e5565b5b6040519080825280602002602001820160405280156108695781602001602082028036833780820191505090505b5091507f0000000000000000000000000000000000000000000000000000000000000000826000815181106108a1576108a0611914565b5b602002602001019073ffffffffffffffffffffffffffffffffffffffff16908173ffffffffffffffffffffffffffffffffffffffff16815250507f0000000000000000000000000000000000000000000000000000000000000000826001815181106109105761090f611914565b5b602002602001019073ffffffffffffffffffffffffffffffffffffffff16908173ffffffffffffffffffffffffffffffffffffffff1681525050888260028151811061095f5761095e611914565b5b602002602001019073ffffffffffffffffffffffffffffffffffffffff16908173ffffffffffffffffffffffffffffffffffffffff16815250507f000000000000000000000000000000000000000000000000000000000000000073ffffffffffffffffffffffffffffffffffffffff1663095ea7b37f0000000000000000000000000000000000000000000000000000000000000000836040518363ffffffff1660e01b8152600401610a1492919061174c565b6020604051808303816000875af1158015610a33573d6000803e3d6000fd5b505050506040513d601f19601f82011682018060405250810190610a5791906117ad565b507f000000000000000000000000000000000000000000000000000000000000000073ffffffffffffffffffffffffffffffffffffffff166338ed17398288858b600f42610aa59190611972565b6040518663ffffffff1660e01b8152600401610ac5959493929190611a64565b6000604051808303816000875af1158015610ae4573d6000803e3d6000fd5b505050506040513d6000823e3d601f19601f82011682018060405250810190610b0d9190611bde565b60018351610b1b9190611c27565b81518110610b2c57610b2b611914565b5b60200260200101519250505b5b819250505095945050505050565b7f000000000000000000000000000000000000000000000000000000000000000081565b60008585604051610b7d929190611c9a565b604051809103902090507f000000000000000000000000000000000000000000000000000000000000000073ffffffffffffffffffffffffffffffffffffffff16631876eed98c8c8c8c8c878b8b8b6040518a63ffffffff1660e01b8152600401610bf099989796959493929190611d00565b6020604051808303816000875af1158015610c0f573d6000803e3d6000fd5b505050506040513d601f19601f82011682018060405250810190610c3391906117ad565b610c69576040517f500c44b400000000000000000000000000000000000000000000000000000000815260040160405180910390fd5b610c7a8a8a8a8a8a8a8a8a8a610ef6565b5050505050505050505050565b60008282604051610c99929190611c9a565b604051809103902090507f000000000000000000000000000000000000000000000000000000000000000073ffffffffffffffffffffffffffffffffffffffff16635f6970c38989898989876040518763ffffffff1660e01b8152600401610d0696959493929190611d7c565b6020604051808303816000875af1158015610d25573d6000803e3d6000fd5b505050506040513d601f19601f82011682018060405250810190610d4991906117ad565b610d7f576040517f500c44b400000000000000000000000000000000000000000000000000000000815260040160405180910390fd5b610d8d8787878787876111f0565b5050505050505050565b6000807f000000000000000000000000000000000000000000000000000000000000000073ffffffffffffffffffffffffffffffffffffffff1663ddc1f59d88888888886040518663ffffffff1660e01b8152600401610dfb959493929190611de2565b6020604051808303816000875af1158015610e1a573d6000803e3d6000fd5b505050506040513d601f19601f82011682018060405250810190610e3e91906118b8565b90508091505095945050505050565b60007f000000000000000000000000000000000000000000000000000000000000000073ffffffffffffffffffffffffffffffffffffffff16635e0d443f8585856040518463ffffffff1660e01b8152600401610eac93929190611e35565b602060405180830381865afa158015610ec9573d6000803e3d6000fd5b505050506040513d601f19601f82011682018060405250810190610eed91906118b8565b90509392505050565b6000808686810190610f089190611f2f565b91509150600082600081518110610f2257610f21611914565b5b60200260200101519050600083600181518110610f4257610f41611914565b5b6020026020010151905060007f000000000000000000000000000000000000000000000000000000000000000073ffffffffffffffffffffffffffffffffffffffff1663935b13f66040518163ffffffff1660e01b8152600401610fa590611fd7565b602060405180830381865afa158015610fc2573d6000803e3d6000fd5b505050506040513d601f19601f82011682018060405250810190610fe6919061200c565b90508073ffffffffffffffffffffffffffffffffffffffff168273ffffffffffffffffffffffffffffffffffffffff160361109f578073ffffffffffffffffffffffffffffffffffffffff1663a9059cbb84886040518363ffffffff1660e01b815260040161105692919061174c565b6020604051808303816000875af1158015611075573d6000803e3d6000fd5b505050506040513d601f19601f8201168201806040525081019061109991906117ad565b506111b4565b3073ffffffffffffffffffffffffffffffffffffffff1663105aa25a838386888b6040518663ffffffff1660e01b81526004016110e0959493929190612039565b6020604051808303816000875af192505050801561111c57506040513d601f19601f8201168201806040525081019061111991906118b8565b60015b6111a4578073ffffffffffffffffffffffffffffffffffffffff1663a9059cbb84886040518363ffffffff1660e01b815260040161115b92919061174c565b6020604051808303816000875af115801561117a573d6000803e3d6000fd5b505050506040513d601f19601f8201168201806040525081019061119e91906117ad565b506111b3565b848110156111b157600080fd5b505b5b7f68f46c45a243a0e9065a97649faf9a5afe1692f2679e650c2f853b9cd734cc0e60405160405180910390a15050505050505050505050505050565b505050505050565b6000604051905090565b600080fd5b600080fd5b600073ffffffffffffffffffffffffffffffffffffffff82169050919050565b60006112378261120c565b9050919050565b6112478161122c565b811461125257600080fd5b50565b6000813590506112648161123e565b92915050565b6000819050919050565b61127d8161126a565b811461128857600080fd5b50565b60008135905061129a81611274565b92915050565b600080600080600060a086880312156112bc576112bb611202565b5b60006112ca88828901611255565b95505060206112db88828901611255565b94505060406112ec88828901611255565b93505060606112fd8882890161128b565b925050608061130e8882890161128b565b9150509295509295909350565b6113248161126a565b82525050565b600060208201905061133f600083018461131b565b92915050565b6000819050919050565b600061136a6113656113608461120c565b611345565b61120c565b9050919050565b600061137c8261134f565b9050919050565b600061138e82611371565b9050919050565b61139e81611383565b82525050565b60006020820190506113b96000830184611395565b92915050565b6000819050919050565b6113d2816113bf565b81146113dd57600080fd5b50565b6000813590506113ef816113c9565b92915050565b600080fd5b600080fd5b600080fd5b60008083601f84011261141a576114196113f5565b5b8235905067ffffffffffffffff811115611437576114366113fa565b5b602083019150836001820283011115611453576114526113ff565b5b9250929050565b60008083601f8401126114705761146f6113f5565b5b8235905067ffffffffffffffff81111561148d5761148c6113fa565b5b6020830191508360018202830111156114a9576114a86113ff565b5b9250929050565b60008060008060008060008060008060c08b8d0312156114d3576114d2611202565b5b60006114e18d828e016113e0565b9a505060208b013567ffffffffffffffff81111561150257611501611207565b5b61150e8d828e01611404565b995099505060408b013567ffffffffffffffff81111561153157611530611207565b5b61153d8d828e01611404565b975097505060608b013567ffffffffffffffff8111156115605761155f611207565b5b61156c8d828e0161145a565b955095505060808b013567ffffffffffffffff81111561158f5761158e611207565b5b61159b8d828e01611404565b935093505060a06115ae8d828e0161128b565b9150509295989b9194979a5092959850565b60008060008060008060006080888a0312156115df576115de611202565b5b60006115ed8a828b016113e0565b975050602088013567ffffffffffffffff81111561160e5761160d611207565b5b61161a8a828b01611404565b9650965050604088013567ffffffffffffffff81111561163d5761163c611207565b5b6116498a828b01611404565b9450945050606088013567ffffffffffffffff81111561166c5761166b611207565b5b6116788a828b0161145a565b925092505092959891949750929550565b600081600f0b9050919050565b61169f81611689565b81146116aa57600080fd5b50565b6000813590506116bc81611696565b92915050565b600080600080600060a086880312156116de576116dd611202565b5b60006116ec888289016116ad565b95505060206116fd888289016116ad565b945050604061170e8882890161128b565b935050606061171f8882890161128b565b925050608061173088828901611255565b9150509295509295909350565b6117468161122c565b82525050565b6000604082019050611761600083018561173d565b61176e602083018461131b565b9392505050565b60008115159050919050565b61178a81611775565b811461179557600080fd5b50565b6000815190506117a781611781565b92915050565b6000602082840312156117c3576117c2611202565b5b60006117d184828501611798565b91505092915050565b6000819050919050565b60006117ff6117fa6117f5846117da565b611345565b611689565b9050919050565b61180f816117e4565b82525050565b6000819050919050565b600061183a61183561183084611815565b611345565b611689565b9050919050565b61184a8161181f565b82525050565b600060a0820190506118656000830188611806565b6118726020830187611841565b61187f604083018661131b565b61188c606083018561131b565b611899608083018461173d565b9695505050505050565b6000815190506118b281611274565b92915050565b6000602082840312156118ce576118cd611202565b5b60006118dc848285016118a3565b91505092915050565b7f4e487b7100000000000000000000000000000000000000000000000000000000600052604160045260246000fd5b7f4e487b7100000000000000000000000000000000000000000000000000000000600052603260045260246000fd5b7f4e487b7100000000000000000000000000000000000000000000000000000000600052601160045260246000fd5b600061197d8261126a565b91506119888361126a565b92508282019050808211156119a05761199f611943565b5b92915050565b600081519050919050565b600082825260208201905092915050565b6000819050602082019050919050565b6119db8161122c565b82525050565b60006119ed83836119d2565b60208301905092915050565b6000602082019050919050565b6000611a11826119a6565b611a1b81856119b1565b9350611a26836119c2565b8060005b83811015611a57578151611a3e88826119e1565b9750611a49836119f9565b925050600181019050611a2a565b5085935050505092915050565b600060a082019050611a79600083018861131b565b611a86602083018761131b565b8181036040830152611a988186611a06565b9050611aa7606083018561173d565b611ab4608083018461131b565b9695505050505050565b6000601f19601f8301169050919050565b611ad882611abe565b810181811067ffffffffffffffff82111715611af757611af66118e5565b5b80604052505050565b6000611b0a6111f8565b9050611b168282611acf565b919050565b600067ffffffffffffffff821115611b3657611b356118e5565b5b602082029050602081019050919050565b6000611b5a611b5584611b1b565b611b00565b90508083825260208201905060208402830185811115611b7d57611b7c6113ff565b5b835b81811015611ba65780611b9288826118a3565b845260208401935050602081019050611b7f565b5050509392505050565b600082601f830112611bc557611bc46113f5565b5b8151611bd5848260208601611b47565b91505092915050565b600060208284031215611bf457611bf3611202565b5b600082015167ffffffffffffffff811115611c1257611c11611207565b5b611c1e84828501611bb0565b91505092915050565b6000611c328261126a565b9150611c3d8361126a565b9250828203905081811115611c5557611c54611943565b5b92915050565b600081905092915050565b82818337600083830152505050565b6000611c818385611c5b565b9350611c8e838584611c66565b82840190509392505050565b6000611ca7828486611c75565b91508190509392505050565b611cbc816113bf565b82525050565b600082825260208201905092915050565b6000611cdf8385611cc2565b9350611cec838584611c66565b611cf583611abe565b840190509392505050565b600060c082019050611d15600083018c611cb3565b8181036020830152611d28818a8c611cd3565b90508181036040830152611d3d81888a611cd3565b9050611d4c6060830187611cb3565b8181036080830152611d5f818587611cd3565b9050611d6e60a083018461131b565b9a9950505050505050505050565b6000608082019050611d916000830189611cb3565b8181036020830152611da4818789611cd3565b90508181036040830152611db9818587611cd3565b9050611dc86060830184611cb3565b979650505050505050565b611ddc81611689565b82525050565b600060a082019050611df76000830188611dd3565b611e046020830187611dd3565b611e11604083018661131b565b611e1e606083018561131b565b611e2b608083018461173d565b9695505050505050565b6000606082019050611e4a6000830186611dd3565b611e576020830185611dd3565b611e64604083018461131b565b949350505050565b600067ffffffffffffffff821115611e8757611e866118e5565b5b602082029050602081019050919050565b6000611eab611ea684611e6c565b611b00565b90508083825260208201905060208402830185811115611ece57611ecd6113ff565b5b835b81811015611ef75780611ee38882611255565b845260208401935050602081019050611ed0565b5050509392505050565b600082601f830112611f1657611f156113f5565b5b8135611f26848260208601611e98565b91505092915050565b60008060408385031215611f4657611f45611202565b5b600083013567ffffffffffffffff811115611f6457611f63611207565b5b611f7085828601611f01565b9250506020611f818582860161128b565b9150509250929050565b7f61786c5553444300000000000000000000000000000000000000000000000000600082015250565b6000611fc1600783611cc2565b9150611fcc82611f8b565b602082019050919050565b60006020820190508181036000830152611ff081611fb4565b9050919050565b6000815190506120068161123e565b92915050565b60006020828403121561202257612021611202565b5b600061203084828501611ff7565b91505092915050565b600060a08201905061204e600083018861173d565b61205b602083018761173d565b612068604083018661173d565b612075606083018561131b565b612082608083018461131b565b969550505050505056fea2646970667358221220a172efbf5536426fc7ffabfca6d5924985aec897a286c56acb2050624ea1409364736f6c63430008110033",
  "linkReferences": {},
  "deployedLinkReferences": {}
}